{
  "contractName": "LuxuryItemTracking",
  "abi": [
    {
      "inputs": [
        {
          "internalType": "string",
          "name": "baseURI",
          "type": "string"
        },
        {
          "internalType": "string",
          "name": "name",
          "type": "string"
        },
        {
          "internalType": "string",
          "name": "symbol",
          "type": "string"
        }
      ],
      "stateMutability": "nonpayable",
      "type": "constructor"
    },
    {
      "anonymous": false,
      "inputs": [
        {
          "indexed": true,
          "internalType": "address",
          "name": "owner",
          "type": "address"
        },
        {
          "indexed": true,
          "internalType": "address",
          "name": "approved",
          "type": "address"
        },
        {
          "indexed": true,
          "internalType": "uint256",
          "name": "tokenId",
          "type": "uint256"
        }
      ],
      "name": "Approval",
      "type": "event"
    },
    {
      "anonymous": false,
      "inputs": [
        {
          "indexed": true,
          "internalType": "address",
          "name": "owner",
          "type": "address"
        },
        {
          "indexed": true,
          "internalType": "address",
          "name": "operator",
          "type": "address"
        },
        {
          "indexed": false,
          "internalType": "bool",
          "name": "approved",
          "type": "bool"
        }
      ],
      "name": "ApprovalForAll",
      "type": "event"
    },
    {
      "anonymous": false,
      "inputs": [
        {
          "indexed": true,
          "internalType": "uint256",
          "name": "serialNumber",
          "type": "uint256"
        },
        {
          "indexed": false,
          "internalType": "string",
          "name": "certification",
          "type": "string"
        }
      ],
      "name": "CertificationSet",
      "type": "event"
    },
    {
      "anonymous": false,
      "inputs": [
        {
          "indexed": true,
          "internalType": "uint256",
          "name": "serialNumber",
          "type": "uint256"
        },
        {
          "indexed": false,
          "internalType": "bool",
          "name": "isCertified",
          "type": "bool"
        }
      ],
      "name": "LuxuryItemCertificationUpdated",
      "type": "event"
    },
    {
      "anonymous": false,
      "inputs": [
        {
          "indexed": true,
          "internalType": "uint256",
          "name": "serialNumber",
          "type": "uint256"
        },
        {
          "indexed": false,
          "internalType": "uint256",
          "name": "valuation",
          "type": "uint256"
        }
      ],
      "name": "LuxuryItemValuationUpdated",
      "type": "event"
    },
    {
      "anonymous": false,
      "inputs": [
        {
          "indexed": true,
          "internalType": "address",
          "name": "previousOwner",
          "type": "address"
        },
        {
          "indexed": true,
          "internalType": "address",
          "name": "newOwner",
          "type": "address"
        }
      ],
      "name": "OwnershipTransferred",
      "type": "event"
    },
    {
      "anonymous": false,
      "inputs": [
        {
          "indexed": true,
          "internalType": "address",
          "name": "from",
          "type": "address"
        },
        {
          "indexed": true,
          "internalType": "address",
          "name": "to",
          "type": "address"
        },
        {
          "indexed": true,
          "internalType": "uint256",
          "name": "tokenId",
          "type": "uint256"
        }
      ],
      "name": "Transfer",
      "type": "event"
    },
    {
      "anonymous": false,
      "inputs": [
        {
          "indexed": true,
          "internalType": "uint256",
          "name": "serialNumber",
          "type": "uint256"
        },
        {
          "indexed": false,
          "internalType": "uint256",
          "name": "valuation",
          "type": "uint256"
        }
      ],
      "name": "ValuationSet",
      "type": "event"
    },
    {
      "inputs": [],
      "name": "MAX_SUPPLY",
      "outputs": [
        {
          "internalType": "uint256",
          "name": "",
          "type": "uint256"
        }
      ],
      "stateMutability": "view",
      "type": "function",
      "constant": true
    },
    {
      "inputs": [],
      "name": "PRICE",
      "outputs": [
        {
          "internalType": "uint256",
          "name": "",
          "type": "uint256"
        }
      ],
      "stateMutability": "view",
      "type": "function",
      "constant": true
    },
    {
      "inputs": [
        {
          "internalType": "address",
          "name": "to",
          "type": "address"
        },
        {
          "internalType": "uint256",
          "name": "tokenId",
          "type": "uint256"
        }
      ],
      "name": "approve",
      "outputs": [],
      "stateMutability": "nonpayable",
      "type": "function"
    },
    {
      "inputs": [
        {
          "internalType": "address",
          "name": "owner",
          "type": "address"
        }
      ],
      "name": "balanceOf",
      "outputs": [
        {
          "internalType": "uint256",
          "name": "",
          "type": "uint256"
        }
      ],
      "stateMutability": "view",
      "type": "function",
      "constant": true
    },
    {
      "inputs": [],
      "name": "baseTokenURI",
      "outputs": [
        {
          "internalType": "string",
          "name": "",
          "type": "string"
        }
      ],
      "stateMutability": "view",
      "type": "function",
      "constant": true
    },
    {
      "inputs": [
        {
          "internalType": "uint256",
          "name": "tokenId",
          "type": "uint256"
        }
      ],
      "name": "getApproved",
      "outputs": [
        {
          "internalType": "address",
          "name": "",
          "type": "address"
        }
      ],
      "stateMutability": "view",
      "type": "function",
      "constant": true
    },
    {
      "inputs": [
        {
          "internalType": "address",
          "name": "owner",
          "type": "address"
        },
        {
          "internalType": "address",
          "name": "operator",
          "type": "address"
        }
      ],
      "name": "isApprovedForAll",
      "outputs": [
        {
          "internalType": "bool",
          "name": "",
          "type": "bool"
        }
      ],
      "stateMutability": "view",
      "type": "function",
      "constant": true
    },
    {
      "inputs": [],
      "name": "name",
      "outputs": [
        {
          "internalType": "string",
          "name": "",
          "type": "string"
        }
      ],
      "stateMutability": "view",
      "type": "function",
      "constant": true
    },
    {
      "inputs": [],
      "name": "owner",
      "outputs": [
        {
          "internalType": "address",
          "name": "",
          "type": "address"
        }
      ],
      "stateMutability": "view",
      "type": "function",
      "constant": true
    },
    {
      "inputs": [
        {
          "internalType": "uint256",
          "name": "tokenId",
          "type": "uint256"
        }
      ],
      "name": "ownerOf",
      "outputs": [
        {
          "internalType": "address",
          "name": "",
          "type": "address"
        }
      ],
      "stateMutability": "view",
      "type": "function",
      "constant": true
    },
    {
      "inputs": [],
      "name": "renounceOwnership",
      "outputs": [],
      "stateMutability": "nonpayable",
      "type": "function"
    },
    {
      "inputs": [
        {
          "internalType": "address",
          "name": "from",
          "type": "address"
        },
        {
          "internalType": "address",
          "name": "to",
          "type": "address"
        },
        {
          "internalType": "uint256",
          "name": "tokenId",
          "type": "uint256"
        }
      ],
      "name": "safeTransferFrom",
      "outputs": [],
      "stateMutability": "nonpayable",
      "type": "function"
    },
    {
      "inputs": [
        {
          "internalType": "address",
          "name": "from",
          "type": "address"
        },
        {
          "internalType": "address",
          "name": "to",
          "type": "address"
        },
        {
          "internalType": "uint256",
          "name": "tokenId",
          "type": "uint256"
        },
        {
          "internalType": "bytes",
          "name": "data",
          "type": "bytes"
        }
      ],
      "name": "safeTransferFrom",
      "outputs": [],
      "stateMutability": "nonpayable",
      "type": "function"
    },
    {
      "inputs": [
        {
          "internalType": "address",
          "name": "operator",
          "type": "address"
        },
        {
          "internalType": "bool",
          "name": "approved",
          "type": "bool"
        }
      ],
      "name": "setApprovalForAll",
      "outputs": [],
      "stateMutability": "nonpayable",
      "type": "function"
    },
    {
      "inputs": [
        {
          "internalType": "bytes4",
          "name": "interfaceId",
          "type": "bytes4"
        }
      ],
      "name": "supportsInterface",
      "outputs": [
        {
          "internalType": "bool",
          "name": "",
          "type": "bool"
        }
      ],
      "stateMutability": "view",
      "type": "function",
      "constant": true
    },
    {
      "inputs": [],
      "name": "symbol",
      "outputs": [
        {
          "internalType": "string",
          "name": "",
          "type": "string"
        }
      ],
      "stateMutability": "view",
      "type": "function",
      "constant": true
    },
    {
      "inputs": [
        {
          "internalType": "uint256",
          "name": "index",
          "type": "uint256"
        }
      ],
      "name": "tokenByIndex",
      "outputs": [
        {
          "internalType": "uint256",
          "name": "",
          "type": "uint256"
        }
      ],
      "stateMutability": "view",
      "type": "function",
      "constant": true
    },
    {
      "inputs": [
        {
          "internalType": "address",
          "name": "owner",
          "type": "address"
        },
        {
          "internalType": "uint256",
          "name": "index",
          "type": "uint256"
        }
      ],
      "name": "tokenOfOwnerByIndex",
      "outputs": [
        {
          "internalType": "uint256",
          "name": "",
          "type": "uint256"
        }
      ],
      "stateMutability": "view",
      "type": "function",
      "constant": true
    },
    {
      "inputs": [
        {
          "internalType": "uint256",
          "name": "tokenId",
          "type": "uint256"
        }
      ],
      "name": "tokenURI",
      "outputs": [
        {
          "internalType": "string",
          "name": "",
          "type": "string"
        }
      ],
      "stateMutability": "view",
      "type": "function",
      "constant": true
    },
    {
      "inputs": [],
      "name": "totalSupply",
      "outputs": [
        {
          "internalType": "uint256",
          "name": "",
          "type": "uint256"
        }
      ],
      "stateMutability": "view",
      "type": "function",
      "constant": true
    },
    {
      "inputs": [
        {
          "internalType": "address",
          "name": "from",
          "type": "address"
        },
        {
          "internalType": "address",
          "name": "to",
          "type": "address"
        },
        {
          "internalType": "uint256",
          "name": "tokenId",
          "type": "uint256"
        }
      ],
      "name": "transferFrom",
      "outputs": [],
      "stateMutability": "nonpayable",
      "type": "function"
    },
    {
      "inputs": [
        {
          "internalType": "address",
          "name": "newOwner",
          "type": "address"
        }
      ],
      "name": "transferOwnership",
      "outputs": [],
      "stateMutability": "nonpayable",
      "type": "function"
    },
    {
      "inputs": [
        {
          "internalType": "uint256",
          "name": "_serialNumber",
          "type": "uint256"
        },
        {
          "internalType": "uint256",
          "name": "_valuation",
          "type": "uint256"
        }
      ],
      "name": "setLuxuryItemValuation",
      "outputs": [],
      "stateMutability": "nonpayable",
      "type": "function"
    },
    {
      "inputs": [
        {
          "internalType": "string",
          "name": "_baseTokenURI",
          "type": "string"
        }
      ],
      "name": "setBaseURI",
      "outputs": [],
      "stateMutability": "nonpayable",
      "type": "function"
    },
    {
      "inputs": [
        {
          "internalType": "string",
          "name": "_name",
          "type": "string"
        },
        {
          "internalType": "uint256",
          "name": "_serialNumber",
          "type": "uint256"
        },
        {
          "internalType": "uint256",
          "name": "_productionDate",
          "type": "uint256"
        }
      ],
      "name": "mintNFT",
      "outputs": [],
      "stateMutability": "payable",
      "type": "function",
      "payable": true
    },
    {
      "inputs": [
        {
          "internalType": "uint256",
          "name": "_serialNumber",
          "type": "uint256"
        },
        {
          "internalType": "string",
          "name": "_logisticsInfo",
          "type": "string"
        }
      ],
      "name": "updateLogisticsInfo",
      "outputs": [],
      "stateMutability": "nonpayable",
      "type": "function"
    },
    {
      "inputs": [
        {
          "internalType": "uint256",
          "name": "_serialNumber",
          "type": "uint256"
        },
        {
          "internalType": "string",
          "name": "_salesRecord",
          "type": "string"
        }
      ],
      "name": "updateSalesRecord",
      "outputs": [],
      "stateMutability": "nonpayable",
      "type": "function"
    },
    {
      "inputs": [
        {
          "internalType": "uint256",
          "name": "_serialNumber",
          "type": "uint256"
        },
        {
          "internalType": "bool",
          "name": "_isCertified",
          "type": "bool"
        }
      ],
      "name": "certifyUser",
      "outputs": [],
      "stateMutability": "nonpayable",
      "type": "function"
    },
    {
      "inputs": [
        {
          "internalType": "uint256",
          "name": "_serialNumber",
          "type": "uint256"
        }
      ],
      "name": "getItemDetails",
      "outputs": [
        {
          "internalType": "string",
          "name": "",
          "type": "string"
        },
        {
          "internalType": "address",
          "name": "",
          "type": "address"
        },
        {
          "internalType": "uint256",
          "name": "",
          "type": "uint256"
        },
        {
          "internalType": "string",
          "name": "",
          "type": "string"
        },
        {
          "internalType": "string",
          "name": "",
          "type": "string"
        }
      ],
      "stateMutability": "view",
      "type": "function",
      "constant": true
    },
    {
      "inputs": [
        {
          "internalType": "uint256",
          "name": "_serialNumber",
          "type": "uint256"
        },
        {
          "internalType": "string",
          "name": "_certification",
          "type": "string"
        }
      ],
      "name": "setLuxuryItemCertification",
      "outputs": [],
      "stateMutability": "nonpayable",
      "type": "function"
    },
    {
      "inputs": [
        {
          "internalType": "uint256",
          "name": "_serialNumber",
          "type": "uint256"
        }
      ],
      "name": "isCertifiedUser",
      "outputs": [
        {
          "internalType": "bool",
          "name": "",
          "type": "bool"
        }
      ],
      "stateMutability": "view",
      "type": "function",
      "constant": true
    }
  ],
  "bytecode": "0x60806040523480156200001157600080fd5b5060405162004aa938038062004aa98339818101604052810190620000379190620004a9565b81818160009080519060200190620000519291906200025c565b5080600190805190602001906200006a9291906200025c565b5050506200008d62000081620000a760201b60201c565b620000af60201b60201c565b6200009e836200017560201b60201c565b50505062000649565b600033905090565b6000600a60009054906101000a900473ffffffffffffffffffffffffffffffffffffffff16905081600a60006101000a81548173ffffffffffffffffffffffffffffffffffffffff021916908373ffffffffffffffffffffffffffffffffffffffff1602179055508173ffffffffffffffffffffffffffffffffffffffff168173ffffffffffffffffffffffffffffffffffffffff167f8be0079c531659141344cd1fd0a4f28419497f9722a3daafe3b4186f6b6457e060405160405180910390a35050565b62000185620001a160201b60201c565b80600d90805190602001906200019d9291906200025c565b5050565b620001b1620000a760201b60201c565b73ffffffffffffffffffffffffffffffffffffffff16620001d76200023260201b60201c565b73ffffffffffffffffffffffffffffffffffffffff161462000230576040517f08c379a00000000000000000000000000000000000000000000000000000000081526004016200022790620005c3565b60405180910390fd5b565b6000600a60009054906101000a900473ffffffffffffffffffffffffffffffffffffffff16905090565b8280546200026a9062000614565b90600052602060002090601f0160209004810192826200028e5760008555620002da565b82601f10620002a957805160ff1916838001178555620002da565b82800160010185558215620002da579182015b82811115620002d9578251825591602001919060010190620002bc565b5b509050620002e99190620002ed565b5090565b5b8082111562000308576000816000905550600101620002ee565b5090565b6000604051905090565b600080fd5b600080fd5b600080fd5b600080fd5b6000601f19601f8301169050919050565b7f4e487b7100000000000000000000000000000000000000000000000000000000600052604160045260246000fd5b62000375826200032a565b810181811067ffffffffffffffff821117156200039757620003966200033b565b5b80604052505050565b6000620003ac6200030c565b9050620003ba82826200036a565b919050565b600067ffffffffffffffff821115620003dd57620003dc6200033b565b5b620003e8826200032a565b9050602081019050919050565b60005b8381101562000415578082015181840152602081019050620003f8565b8381111562000425576000848401525b50505050565b6000620004426200043c84620003bf565b620003a0565b90508281526020810184848401111562000461576200046062000325565b5b6200046e848285620003f5565b509392505050565b600082601f8301126200048e576200048d62000320565b5b8151620004a08482602086016200042b565b91505092915050565b600080600060608486031215620004c557620004c462000316565b5b600084015167ffffffffffffffff811115620004e657620004e56200031b565b5b620004f48682870162000476565b935050602084015167ffffffffffffffff8111156200051857620005176200031b565b5b620005268682870162000476565b925050604084015167ffffffffffffffff8111156200054a57620005496200031b565b5b620005588682870162000476565b9150509250925092565b600082825260208201905092915050565b7f4f776e61626c653a2063616c6c6572206973206e6f7420746865206f776e6572600082015250565b6000620005ab60208362000562565b9150620005b88262000573565b602082019050919050565b60006020820190508181036000830152620005de816200059c565b9050919050565b7f4e487b7100000000000000000000000000000000000000000000000000000000600052602260045260246000fd5b600060028204905060018216806200062d57607f821691505b602082108103620006435762000642620005e5565b5b50919050565b61445080620006596000396000f3fe6080604052600436106101d85760003560e01c806370a0823111610102578063a22cb46511610095578063c87b56dd11610064578063c87b56dd146106c1578063d547cfb7146106fe578063e985e9c514610729578063f2fde38b14610766576101d8565b8063a22cb46514610609578063a8b83a3d14610632578063b0a5430d1461066f578063b88d4fde14610698576101d8565b80638d859f3e116100d15780638d859f3e1461056c5780638da5cb5b1461059757806395d89b41146105c2578063977922d2146105ed576101d8565b806370a08231146104ae578063715018a6146104eb57806373004ca01461050257806389cf021714610543576101d8565b80632d58e6ce1161017a5780634a1a2312116101495780634a1a2312146103e25780634f6ccce71461040b57806355f804b3146104485780636352211e14610471576101d8565b80632d58e6ce146103285780632f745c591461035157806332cb6b0c1461038e57806342842e0e146103b9576101d8565b8063095ea7b3116101b6578063095ea7b31461028257806318160ddd146102ab5780631869b206146102d657806323b872dd146102ff576101d8565b806301ffc9a7146101dd57806306fdde031461021a578063081812fc14610245575b600080fd5b3480156101e957600080fd5b5061020460048036038101906101ff9190612ea3565b61078f565b6040516102119190612eeb565b60405180910390f35b34801561022657600080fd5b5061022f610809565b60405161023c9190612f9f565b60405180910390f35b34801561025157600080fd5b5061026c60048036038101906102679190612ff7565b61089b565b6040516102799190613065565b60405180910390f35b34801561028e57600080fd5b506102a960048036038101906102a491906130ac565b6108e1565b005b3480156102b757600080fd5b506102c06109f8565b6040516102cd91906130fb565b60405180910390f35b3480156102e257600080fd5b506102fd60048036038101906102f89190613142565b610a05565b005b34801561030b57600080fd5b5061032660048036038101906103219190613182565b610b99565b005b34801561033457600080fd5b5061034f600480360381019061034a919061330a565b610bf9565b005b34801561035d57600080fd5b50610378600480360381019061037391906130ac565b610c78565b60405161038591906130fb565b60405180910390f35b34801561039a57600080fd5b506103a3610d1d565b6040516103b091906130fb565b60405180910390f35b3480156103c557600080fd5b506103e060048036038101906103db9190613182565b610d22565b005b3480156103ee57600080fd5b5061040960048036038101906104049190613366565b610d42565b005b34801561041757600080fd5b50610432600480360381019061042d9190612ff7565b610e21565b60405161043f91906130fb565b60405180910390f35b34801561045457600080fd5b5061046f600480360381019061046a91906133a6565b610e92565b005b34801561047d57600080fd5b5061049860048036038101906104939190612ff7565b610eb4565b6040516104a59190613065565b60405180910390f35b3480156104ba57600080fd5b506104d560048036038101906104d091906133ef565b610f3a565b6040516104e291906130fb565b60405180910390f35b3480156104f757600080fd5b50610500610ff1565b005b34801561050e57600080fd5b5061052960048036038101906105249190612ff7565b611005565b60405161053a95949392919061341c565b60405180910390f35b34801561054f57600080fd5b5061056a6004803603810190610565919061330a565b61125a565b005b34801561057857600080fd5b50610581611311565b60405161058e91906130fb565b60405180910390f35b3480156105a357600080fd5b506105ac61131b565b6040516105b99190613065565b60405180910390f35b3480156105ce57600080fd5b506105d7611345565b6040516105e49190612f9f565b60405180910390f35b61060760048036038101906106029190613484565b6113d7565b005b34801561061557600080fd5b50610630600480360381019061062b91906134f3565b6114c5565b005b34801561063e57600080fd5b5061065960048036038101906106549190612ff7565b6114db565b6040516106669190612eeb565b60405180910390f35b34801561067b57600080fd5b506106966004803603810190610691919061330a565b61158d565b005b3480156106a457600080fd5b506106bf60048036038101906106ba91906135d4565b61160c565b005b3480156106cd57600080fd5b506106e860048036038101906106e39190612ff7565b61166e565b6040516106f59190612f9f565b60405180910390f35b34801561070a57600080fd5b506107136116d6565b6040516107209190612f9f565b60405180910390f35b34801561073557600080fd5b50610750600480360381019061074b9190613657565b611764565b60405161075d9190612eeb565b60405180910390f35b34801561077257600080fd5b5061078d600480360381019061078891906133ef565b6117f8565b005b60007f780e9d63000000000000000000000000000000000000000000000000000000007bffffffffffffffffffffffffffffffffffffffffffffffffffffffff1916827bffffffffffffffffffffffffffffffffffffffffffffffffffffffff1916148061080257506108018261187b565b5b9050919050565b606060008054610818906136c6565b80601f0160208091040260200160405190810160405280929190818152602001828054610844906136c6565b80156108915780601f1061086657610100808354040283529160200191610891565b820191906000526020600020905b81548152906001019060200180831161087457829003601f168201915b5050505050905090565b60006108a68261195d565b6004600083815260200190815260200160002060009054906101000a900473ffffffffffffffffffffffffffffffffffffffff169050919050565b60006108ec82610eb4565b90508073ffffffffffffffffffffffffffffffffffffffff168373ffffffffffffffffffffffffffffffffffffffff160361095c576040517f08c379a000000000000000000000000000000000000000000000000000000000815260040161095390613769565b60405180910390fd5b8073ffffffffffffffffffffffffffffffffffffffff1661097b6119a8565b73ffffffffffffffffffffffffffffffffffffffff1614806109aa57506109a9816109a46119a8565b611764565b5b6109e9576040517f08c379a00000000000000000000000000000000000000000000000000000000081526004016109e0906137fb565b60405180910390fd5b6109f383836119b0565b505050565b6000600880549050905090565b610a0e82611a69565b610a4d576040517f08c379a0000000000000000000000000000000000000000000000000000000008152600401610a4490613867565b60405180910390fd5b3373ffffffffffffffffffffffffffffffffffffffff16600c600084815260200190815260200160002060020160009054906101000a900473ffffffffffffffffffffffffffffffffffffffff1673ffffffffffffffffffffffffffffffffffffffff1614610af1576040517f08c379a0000000000000000000000000000000000000000000000000000000008152600401610ae8906138f9565b60405180910390fd5b6001600c600084815260200190815260200160002060090160003373ffffffffffffffffffffffffffffffffffffffff1673ffffffffffffffffffffffffffffffffffffffff16815260200190815260200160002060006101000a81548160ff021916908315150217905550817f22bc4ea421fbd5b6f95757c180adaa8cb0f11ab8a1075d66995663e82711c91682604051610b8d9190612eeb565b60405180910390a25050565b610baa610ba46119a8565b82611a8b565b610be9576040517f08c379a0000000000000000000000000000000000000000000000000000000008152600401610be09061398b565b60405180910390fd5b610bf4838383611b20565b505050565b610c01611e19565b610c0a82611a69565b610c49576040517f08c379a0000000000000000000000000000000000000000000000000000000008152600401610c4090613867565b60405180910390fd5b80600c60008481526020019081526020016000206005019080519060200190610c73929190612d94565b505050565b6000610c8383610f3a565b8210610cc4576040517f08c379a0000000000000000000000000000000000000000000000000000000008152600401610cbb90613a1d565b60405180910390fd5b600660008473ffffffffffffffffffffffffffffffffffffffff1673ffffffffffffffffffffffffffffffffffffffff168152602001908152602001600020600083815260200190815260200160002054905092915050565b600a81565b610d3d8383836040518060200160405280600081525061160c565b505050565b610d4a611e19565b610d5382611a69565b610d92576040517f08c379a0000000000000000000000000000000000000000000000000000000008152600401610d8990613867565b60405180910390fd5b80600c600084815260200190815260200160002060070181905550817fb607f618d42004a68651337cff412752d042354c4fd3a56fe8ae01e34fa969c882604051610ddd91906130fb565b60405180910390a2817ff53f69ac7365862a2efc8646aa895f72a1f3c9f34c719034c29a40aafe491f0e82604051610e1591906130fb565b60405180910390a25050565b6000610e2b6109f8565b8210610e6c576040517f08c379a0000000000000000000000000000000000000000000000000000000008152600401610e6390613aaf565b60405180910390fd5b60088281548110610e8057610e7f613acf565b5b90600052602060002001549050919050565b610e9a611e19565b80600d9080519060200190610eb0929190612d94565b5050565b600080610ec083611e97565b9050600073ffffffffffffffffffffffffffffffffffffffff168173ffffffffffffffffffffffffffffffffffffffff1603610f31576040517f08c379a0000000000000000000000000000000000000000000000000000000008152600401610f2890613b4a565b60405180910390fd5b80915050919050565b60008073ffffffffffffffffffffffffffffffffffffffff168273ffffffffffffffffffffffffffffffffffffffff1603610faa576040517f08c379a0000000000000000000000000000000000000000000000000000000008152600401610fa190613bdc565b60405180910390fd5b600360008373ffffffffffffffffffffffffffffffffffffffff1673ffffffffffffffffffffffffffffffffffffffff168152602001908152602001600020549050919050565b610ff9611e19565b6110036000611ed4565b565b606060008060608061101686611a69565b611055576040517f08c379a000000000000000000000000000000000000000000000000000000000815260040161104c90613867565b60405180910390fd5b6000600c60008881526020019081526020016000209050806000018160020160009054906101000a900473ffffffffffffffffffffffffffffffffffffffff16826003015483600401846005018480546110ae906136c6565b80601f01602080910402602001604051908101604052809291908181526020018280546110da906136c6565b80156111275780601f106110fc57610100808354040283529160200191611127565b820191906000526020600020905b81548152906001019060200180831161110a57829003601f168201915b5050505050945081805461113a906136c6565b80601f0160208091040260200160405190810160405280929190818152602001828054611166906136c6565b80156111b35780601f10611188576101008083540402835291602001916111b3565b820191906000526020600020905b81548152906001019060200180831161119657829003601f168201915b505050505091508080546111c6906136c6565b80601f01602080910402602001604051908101604052809291908181526020018280546111f2906136c6565b801561123f5780601f106112145761010080835404028352916020019161123f565b820191906000526020600020905b81548152906001019060200180831161122257829003601f168201915b50505050509050955095509550955095505091939590929450565b611262611e19565b61126b82611a69565b6112aa576040517f08c379a00000000000000000000000000000000000000000000000000000000081526004016112a190613867565b60405180910390fd5b80600c600084815260200190815260200160002060080190805190602001906112d4929190612d94565b50817fed2482489691c0116dbce5a79d91599d001f8e029676b3759720dab25fba7b2d826040516113059190612f9f565b60405180910390a25050565b6509184e72a00081565b6000600a60009054906101000a900473ffffffffffffffffffffffffffffffffffffffff16905090565b606060018054611354906136c6565b80601f0160208091040260200160405190810160405280929190818152602001828054611380906136c6565b80156113cd5780601f106113a2576101008083540402835291602001916113cd565b820191906000526020600020905b8154815290600101906020018083116113b057829003601f168201915b5050505050905090565b600a6113e3600b611f9a565b10611423576040517f08c379a000000000000000000000000000000000000000000000000000000000815260040161141a90613c48565b60405180910390fd5b6509184e72a00034101561146c576040517f08c379a000000000000000000000000000000000000000000000000000000000815260040161146390613cda565b60405180910390fd5b61147582611a69565b156114b5576040517f08c379a00000000000000000000000000000000000000000000000000000000081526004016114ac90613d6c565b60405180910390fd5b6114c0838383611fa8565b505050565b6114d76114d06119a8565b8383612064565b5050565b60006114e682611a69565b611525576040517f08c379a000000000000000000000000000000000000000000000000000000000815260040161151c90613867565b60405180910390fd5b600c600083815260200190815260200160002060090160003373ffffffffffffffffffffffffffffffffffffffff1673ffffffffffffffffffffffffffffffffffffffff16815260200190815260200160002060009054906101000a900460ff169050919050565b611595611e19565b61159e82611a69565b6115dd576040517f08c379a00000000000000000000000000000000000000000000000000000000081526004016115d490613867565b60405180910390fd5b80600c60008481526020019081526020016000206004019080519060200190611607929190612d94565b505050565b61161d6116176119a8565b83611a8b565b61165c576040517f08c379a00000000000000000000000000000000000000000000000000000000081526004016116539061398b565b60405180910390fd5b611668848484846121d0565b50505050565b60606116798261195d565b600061168361222c565b905060008151116116a357604051806020016040528060008152506116ce565b806116ad84612243565b6040516020016116be929190613dc8565b6040516020818303038152906040525b915050919050565b600d80546116e3906136c6565b80601f016020809104026020016040519081016040528092919081815260200182805461170f906136c6565b801561175c5780601f106117315761010080835404028352916020019161175c565b820191906000526020600020905b81548152906001019060200180831161173f57829003601f168201915b505050505081565b6000600560008473ffffffffffffffffffffffffffffffffffffffff1673ffffffffffffffffffffffffffffffffffffffff16815260200190815260200160002060008373ffffffffffffffffffffffffffffffffffffffff1673ffffffffffffffffffffffffffffffffffffffff16815260200190815260200160002060009054906101000a900460ff16905092915050565b611800611e19565b600073ffffffffffffffffffffffffffffffffffffffff168173ffffffffffffffffffffffffffffffffffffffff160361186f576040517f08c379a000000000000000000000000000000000000000000000000000000000815260040161186690613e5e565b60405180910390fd5b61187881611ed4565b50565b60007f80ac58cd000000000000000000000000000000000000000000000000000000007bffffffffffffffffffffffffffffffffffffffffffffffffffffffff1916827bffffffffffffffffffffffffffffffffffffffffffffffffffffffff1916148061194657507f5b5e139f000000000000000000000000000000000000000000000000000000007bffffffffffffffffffffffffffffffffffffffffffffffffffffffff1916827bffffffffffffffffffffffffffffffffffffffffffffffffffffffff1916145b80611956575061195582612311565b5b9050919050565b61196681611a69565b6119a5576040517f08c379a000000000000000000000000000000000000000000000000000000000815260040161199c90613b4a565b60405180910390fd5b50565b600033905090565b816004600083815260200190815260200160002060006101000a81548173ffffffffffffffffffffffffffffffffffffffff021916908373ffffffffffffffffffffffffffffffffffffffff160217905550808273ffffffffffffffffffffffffffffffffffffffff16611a2383610eb4565b73ffffffffffffffffffffffffffffffffffffffff167f8c5be1e5ebec7d5bd14f71427d1e84f3dd0314c0f7b2291e5b200ac8c7c3b92560405160405180910390a45050565b600081600c600084815260200190815260200160002060010154149050919050565b600080611a9783610eb4565b90508073ffffffffffffffffffffffffffffffffffffffff168473ffffffffffffffffffffffffffffffffffffffff161480611ad95750611ad88185611764565b5b80611b1757508373ffffffffffffffffffffffffffffffffffffffff16611aff8461089b565b73ffffffffffffffffffffffffffffffffffffffff16145b91505092915050565b8273ffffffffffffffffffffffffffffffffffffffff16611b4082610eb4565b73ffffffffffffffffffffffffffffffffffffffff1614611b96576040517f08c379a0000000000000000000000000000000000000000000000000000000008152600401611b8d90613ef0565b60405180910390fd5b600073ffffffffffffffffffffffffffffffffffffffff168273ffffffffffffffffffffffffffffffffffffffff1603611c05576040517f08c379a0000000000000000000000000000000000000000000000000000000008152600401611bfc90613f82565b60405180910390fd5b611c12838383600161237b565b8273ffffffffffffffffffffffffffffffffffffffff16611c3282610eb4565b73ffffffffffffffffffffffffffffffffffffffff1614611c88576040517f08c379a0000000000000000000000000000000000000000000000000000000008152600401611c7f90613ef0565b60405180910390fd5b6004600082815260200190815260200160002060006101000a81549073ffffffffffffffffffffffffffffffffffffffff02191690556001600360008573ffffffffffffffffffffffffffffffffffffffff1673ffffffffffffffffffffffffffffffffffffffff168152602001908152602001600020600082825403925050819055506001600360008473ffffffffffffffffffffffffffffffffffffffff1673ffffffffffffffffffffffffffffffffffffffff16815260200190815260200160002060008282540192505081905550816002600083815260200190815260200160002060006101000a81548173ffffffffffffffffffffffffffffffffffffffff021916908373ffffffffffffffffffffffffffffffffffffffff160217905550808273ffffffffffffffffffffffffffffffffffffffff168473ffffffffffffffffffffffffffffffffffffffff167fddf252ad1be2c89b69c2b068fc378daa952ba7f163c4a11628f55a4df523b3ef60405160405180910390a4611e1483838360016124d9565b505050565b611e216119a8565b73ffffffffffffffffffffffffffffffffffffffff16611e3f61131b565b73ffffffffffffffffffffffffffffffffffffffff1614611e95576040517f08c379a0000000000000000000000000000000000000000000000000000000008152600401611e8c90613fee565b60405180910390fd5b565b60006002600083815260200190815260200160002060009054906101000a900473ffffffffffffffffffffffffffffffffffffffff169050919050565b6000600a60009054906101000a900473ffffffffffffffffffffffffffffffffffffffff16905081600a60006101000a81548173ffffffffffffffffffffffffffffffffffffffff021916908373ffffffffffffffffffffffffffffffffffffffff1602179055508173ffffffffffffffffffffffffffffffffffffffff168173ffffffffffffffffffffffffffffffffffffffff167f8be0079c531659141344cd1fd0a4f28419497f9722a3daafe3b4186f6b6457e060405160405180910390a35050565b600081600001549050919050565b611fb2600b6124df565b6000600c6000848152602001908152602001600020905083816000019080519060200190611fe1929190612d94565b50828160010181905550338160020160006101000a81548173ffffffffffffffffffffffffffffffffffffffff021916908373ffffffffffffffffffffffffffffffffffffffff16021790555081816003018190555060008160060160006101000a81548160ff02191690831515021790555061205e33846124f5565b50505050565b8173ffffffffffffffffffffffffffffffffffffffff168373ffffffffffffffffffffffffffffffffffffffff16036120d2576040517f08c379a00000000000000000000000000000000000000000000000000000000081526004016120c99061405a565b60405180910390fd5b80600560008573ffffffffffffffffffffffffffffffffffffffff1673ffffffffffffffffffffffffffffffffffffffff16815260200190815260200160002060008473ffffffffffffffffffffffffffffffffffffffff1673ffffffffffffffffffffffffffffffffffffffff16815260200190815260200160002060006101000a81548160ff0219169083151502179055508173ffffffffffffffffffffffffffffffffffffffff168373ffffffffffffffffffffffffffffffffffffffff167f17307eab39ab6107e8899845ad3d59bd9653f200f220920489ca2b5937696c31836040516121c39190612eeb565b60405180910390a3505050565b6121db848484611b20565b6121e784848484612513565b612226576040517f08c379a000000000000000000000000000000000000000000000000000000000815260040161221d906140ec565b60405180910390fd5b50505050565b606060405180602001604052806000815250905090565b6060600060016122528461269a565b01905060008167ffffffffffffffff811115612271576122706131df565b5b6040519080825280601f01601f1916602001820160405280156122a35781602001600182028036833780820191505090505b509050600082602001820190505b600115612306578080600190039150507f3031323334353637383961626364656600000000000000000000000000000000600a86061a8153600a85816122fa576122f961410c565b5b049450600085036122b1575b819350505050919050565b60007f01ffc9a7000000000000000000000000000000000000000000000000000000007bffffffffffffffffffffffffffffffffffffffffffffffffffffffff1916827bffffffffffffffffffffffffffffffffffffffffffffffffffffffff1916149050919050565b612387848484846127ed565b60018111156123cb576040517f08c379a00000000000000000000000000000000000000000000000000000000081526004016123c2906141ad565b60405180910390fd5b6000829050600073ffffffffffffffffffffffffffffffffffffffff168573ffffffffffffffffffffffffffffffffffffffff16036124125761240d816127f3565b612451565b8373ffffffffffffffffffffffffffffffffffffffff168573ffffffffffffffffffffffffffffffffffffffff16146124505761244f858261283c565b5b5b600073ffffffffffffffffffffffffffffffffffffffff168473ffffffffffffffffffffffffffffffffffffffff16036124935761248e816129a9565b6124d2565b8473ffffffffffffffffffffffffffffffffffffffff168473ffffffffffffffffffffffffffffffffffffffff16146124d1576124d08482612a7a565b5b5b5050505050565b50505050565b6001816000016000828254019250508190555050565b61250f828260405180602001604052806000815250612af9565b5050565b60006125348473ffffffffffffffffffffffffffffffffffffffff16612b54565b1561268d578373ffffffffffffffffffffffffffffffffffffffff1663150b7a0261255d6119a8565b8786866040518563ffffffff1660e01b815260040161257f9493929190614222565b6020604051808303816000875af19250505080156125bb57506040513d601f19601f820116820180604052508101906125b89190614283565b60015b61263d573d80600081146125eb576040519150601f19603f3d011682016040523d82523d6000602084013e6125f0565b606091505b506000815103612635576040517f08c379a000000000000000000000000000000000000000000000000000000000815260040161262c906140ec565b60405180910390fd5b805181602001fd5b63150b7a0260e01b7bffffffffffffffffffffffffffffffffffffffffffffffffffffffff1916817bffffffffffffffffffffffffffffffffffffffffffffffffffffffff191614915050612692565b600190505b949350505050565b600080600090507a184f03e93ff9f4daa797ed6e38ed64bf6a1f01000000000000000083106126f8577a184f03e93ff9f4daa797ed6e38ed64bf6a1f01000000000000000083816126ee576126ed61410c565b5b0492506040810190505b6d04ee2d6d415b85acef81000000008310612735576d04ee2d6d415b85acef8100000000838161272b5761272a61410c565b5b0492506020810190505b662386f26fc10000831061276457662386f26fc10000838161275a5761275961410c565b5b0492506010810190505b6305f5e100831061278d576305f5e10083816127835761278261410c565b5b0492506008810190505b61271083106127b25761271083816127a8576127a761410c565b5b0492506004810190505b606483106127d557606483816127cb576127ca61410c565b5b0492506002810190505b600a83106127e4576001810190505b80915050919050565b50505050565b6008805490506009600083815260200190815260200160002081905550600881908060018154018082558091505060019003906000526020600020016000909190919091505550565b6000600161284984610f3a565b61285391906142df565b9050600060076000848152602001908152602001600020549050818114612938576000600660008673ffffffffffffffffffffffffffffffffffffffff1673ffffffffffffffffffffffffffffffffffffffff168152602001908152602001600020600084815260200190815260200160002054905080600660008773ffffffffffffffffffffffffffffffffffffffff1673ffffffffffffffffffffffffffffffffffffffff168152602001908152602001600020600084815260200190815260200160002081905550816007600083815260200190815260200160002081905550505b6007600084815260200190815260200160002060009055600660008573ffffffffffffffffffffffffffffffffffffffff1673ffffffffffffffffffffffffffffffffffffffff16815260200190815260200160002060008381526020019081526020016000206000905550505050565b600060016008805490506129bd91906142df565b90506000600960008481526020019081526020016000205490506000600883815481106129ed576129ec613acf565b5b906000526020600020015490508060088381548110612a0f57612a0e613acf565b5b906000526020600020018190555081600960008381526020019081526020016000208190555060096000858152602001908152602001600020600090556008805480612a5e57612a5d614313565b5b6001900381819060005260206000200160009055905550505050565b6000612a8583610f3a565b905081600660008573ffffffffffffffffffffffffffffffffffffffff1673ffffffffffffffffffffffffffffffffffffffff168152602001908152602001600020600083815260200190815260200160002081905550806007600084815260200190815260200160002081905550505050565b612b038383612b77565b612b106000848484612513565b612b4f576040517f08c379a0000000000000000000000000000000000000000000000000000000008152600401612b46906140ec565b60405180910390fd5b505050565b6000808273ffffffffffffffffffffffffffffffffffffffff163b119050919050565b600073ffffffffffffffffffffffffffffffffffffffff168273ffffffffffffffffffffffffffffffffffffffff1603612be6576040517f08c379a0000000000000000000000000000000000000000000000000000000008152600401612bdd9061438e565b60405180910390fd5b612bef81611a69565b15612c2f576040517f08c379a0000000000000000000000000000000000000000000000000000000008152600401612c26906143fa565b60405180910390fd5b612c3d60008383600161237b565b612c4681611a69565b15612c86576040517f08c379a0000000000000000000000000000000000000000000000000000000008152600401612c7d906143fa565b60405180910390fd5b6001600360008473ffffffffffffffffffffffffffffffffffffffff1673ffffffffffffffffffffffffffffffffffffffff16815260200190815260200160002060008282540192505081905550816002600083815260200190815260200160002060006101000a81548173ffffffffffffffffffffffffffffffffffffffff021916908373ffffffffffffffffffffffffffffffffffffffff160217905550808273ffffffffffffffffffffffffffffffffffffffff16600073ffffffffffffffffffffffffffffffffffffffff167fddf252ad1be2c89b69c2b068fc378daa952ba7f163c4a11628f55a4df523b3ef60405160405180910390a4612d906000838360016124d9565b5050565b828054612da0906136c6565b90600052602060002090601f016020900481019282612dc25760008555612e09565b82601f10612ddb57805160ff1916838001178555612e09565b82800160010185558215612e09579182015b82811115612e08578251825591602001919060010190612ded565b5b509050612e169190612e1a565b5090565b5b80821115612e33576000816000905550600101612e1b565b5090565b6000604051905090565b600080fd5b600080fd5b60007fffffffff0000000000000000000000000000000000000000000000000000000082169050919050565b612e8081612e4b565b8114612e8b57600080fd5b50565b600081359050612e9d81612e77565b92915050565b600060208284031215612eb957612eb8612e41565b5b6000612ec784828501612e8e565b91505092915050565b60008115159050919050565b612ee581612ed0565b82525050565b6000602082019050612f006000830184612edc565b92915050565b600081519050919050565b600082825260208201905092915050565b60005b83811015612f40578082015181840152602081019050612f25565b83811115612f4f576000848401525b50505050565b6000601f19601f8301169050919050565b6000612f7182612f06565b612f7b8185612f11565b9350612f8b818560208601612f22565b612f9481612f55565b840191505092915050565b60006020820190508181036000830152612fb98184612f66565b905092915050565b6000819050919050565b612fd481612fc1565b8114612fdf57600080fd5b50565b600081359050612ff181612fcb565b92915050565b60006020828403121561300d5761300c612e41565b5b600061301b84828501612fe2565b91505092915050565b600073ffffffffffffffffffffffffffffffffffffffff82169050919050565b600061304f82613024565b9050919050565b61305f81613044565b82525050565b600060208201905061307a6000830184613056565b92915050565b61308981613044565b811461309457600080fd5b50565b6000813590506130a681613080565b92915050565b600080604083850312156130c3576130c2612e41565b5b60006130d185828601613097565b92505060206130e285828601612fe2565b9150509250929050565b6130f581612fc1565b82525050565b600060208201905061311060008301846130ec565b92915050565b61311f81612ed0565b811461312a57600080fd5b50565b60008135905061313c81613116565b92915050565b6000806040838503121561315957613158612e41565b5b600061316785828601612fe2565b92505060206131788582860161312d565b9150509250929050565b60008060006060848603121561319b5761319a612e41565b5b60006131a986828701613097565b93505060206131ba86828701613097565b92505060406131cb86828701612fe2565b9150509250925092565b600080fd5b600080fd5b7f4e487b7100000000000000000000000000000000000000000000000000000000600052604160045260246000fd5b61321782612f55565b810181811067ffffffffffffffff82111715613236576132356131df565b5b80604052505050565b6000613249612e37565b9050613255828261320e565b919050565b600067ffffffffffffffff821115613275576132746131df565b5b61327e82612f55565b9050602081019050919050565b82818337600083830152505050565b60006132ad6132a88461325a565b61323f565b9050828152602081018484840111156132c9576132c86131da565b5b6132d484828561328b565b509392505050565b600082601f8301126132f1576132f06131d5565b5b813561330184826020860161329a565b91505092915050565b6000806040838503121561332157613320612e41565b5b600061332f85828601612fe2565b925050602083013567ffffffffffffffff8111156133505761334f612e46565b5b61335c858286016132dc565b9150509250929050565b6000806040838503121561337d5761337c612e41565b5b600061338b85828601612fe2565b925050602061339c85828601612fe2565b9150509250929050565b6000602082840312156133bc576133bb612e41565b5b600082013567ffffffffffffffff8111156133da576133d9612e46565b5b6133e6848285016132dc565b91505092915050565b60006020828403121561340557613404612e41565b5b600061341384828501613097565b91505092915050565b600060a08201905081810360008301526134368188612f66565b90506134456020830187613056565b61345260408301866130ec565b81810360608301526134648185612f66565b905081810360808301526134788184612f66565b90509695505050505050565b60008060006060848603121561349d5761349c612e41565b5b600084013567ffffffffffffffff8111156134bb576134ba612e46565b5b6134c7868287016132dc565b93505060206134d886828701612fe2565b92505060406134e986828701612fe2565b9150509250925092565b6000806040838503121561350a57613509612e41565b5b600061351885828601613097565b92505060206135298582860161312d565b9150509250929050565b600067ffffffffffffffff82111561354e5761354d6131df565b5b61355782612f55565b9050602081019050919050565b600061357761357284613533565b61323f565b905082815260208101848484011115613593576135926131da565b5b61359e84828561328b565b509392505050565b600082601f8301126135bb576135ba6131d5565b5b81356135cb848260208601613564565b91505092915050565b600080600080608085870312156135ee576135ed612e41565b5b60006135fc87828801613097565b945050602061360d87828801613097565b935050604061361e87828801612fe2565b925050606085013567ffffffffffffffff81111561363f5761363e612e46565b5b61364b878288016135a6565b91505092959194509250565b6000806040838503121561366e5761366d612e41565b5b600061367c85828601613097565b925050602061368d85828601613097565b9150509250929050565b7f4e487b7100000000000000000000000000000000000000000000000000000000600052602260045260246000fd5b600060028204905060018216806136de57607f821691505b6020821081036136f1576136f0613697565b5b50919050565b7f4552433732313a20617070726f76616c20746f2063757272656e74206f776e6560008201527f7200000000000000000000000000000000000000000000000000000000000000602082015250565b6000613753602183612f11565b915061375e826136f7565b604082019050919050565b6000602082019050818103600083015261378281613746565b9050919050565b7f4552433732313a20617070726f76652063616c6c6572206973206e6f7420746f60008201527f6b656e206f776e6572206f7220617070726f76656420666f7220616c6c000000602082015250565b60006137e5603d83612f11565b91506137f082613789565b604082019050919050565b60006020820190508181036000830152613814816137d8565b9050919050565b7f4974656d20646f6573206e6f7420657869737400000000000000000000000000600082015250565b6000613851601383612f11565b915061385c8261381b565b602082019050919050565b6000602082019050818103600083015261388081613844565b9050919050565b7f4f6e6c79206d616e7566616374757265722063616e206365727469667920757360008201527f6572730000000000000000000000000000000000000000000000000000000000602082015250565b60006138e3602383612f11565b91506138ee82613887565b604082019050919050565b60006020820190508181036000830152613912816138d6565b9050919050565b7f4552433732313a2063616c6c6572206973206e6f7420746f6b656e206f776e6560008201527f72206f7220617070726f76656400000000000000000000000000000000000000602082015250565b6000613975602d83612f11565b915061398082613919565b604082019050919050565b600060208201905081810360008301526139a481613968565b9050919050565b7f455243373231456e756d657261626c653a206f776e657220696e646578206f7560008201527f74206f6620626f756e6473000000000000000000000000000000000000000000602082015250565b6000613a07602b83612f11565b9150613a12826139ab565b604082019050919050565b60006020820190508181036000830152613a36816139fa565b9050919050565b7f455243373231456e756d657261626c653a20676c6f62616c20696e646578206f60008201527f7574206f6620626f756e64730000000000000000000000000000000000000000602082015250565b6000613a99602c83612f11565b9150613aa482613a3d565b604082019050919050565b60006020820190508181036000830152613ac881613a8c565b9050919050565b7f4e487b7100000000000000000000000000000000000000000000000000000000600052603260045260246000fd5b7f4552433732313a20696e76616c696420746f6b656e2049440000000000000000600082015250565b6000613b34601883612f11565b9150613b3f82613afe565b602082019050919050565b60006020820190508181036000830152613b6381613b27565b9050919050565b7f4552433732313a2061646472657373207a65726f206973206e6f74206120766160008201527f6c6964206f776e65720000000000000000000000000000000000000000000000602082015250565b6000613bc6602983612f11565b9150613bd182613b6a565b604082019050919050565b60006020820190508181036000830152613bf581613bb9565b9050919050565b7f5468697320636f6c6c656374696f6e20697320736f6c64206f75742100000000600082015250565b6000613c32601c83612f11565b9150613c3d82613bfc565b602082019050919050565b60006020820190508181036000830152613c6181613c25565b9050919050565b7f4e6f7420656e6f75676820657468657220746f207075726368617365204e465460008201527f2e00000000000000000000000000000000000000000000000000000000000000602082015250565b6000613cc4602183612f11565b9150613ccf82613c68565b604082019050919050565b60006020820190508181036000830152613cf381613cb7565b9050919050565b7f4974656d207769746820746869732073657269616c206e756d62657220616c7260008201527f6561647920657869737473000000000000000000000000000000000000000000602082015250565b6000613d56602b83612f11565b9150613d6182613cfa565b604082019050919050565b60006020820190508181036000830152613d8581613d49565b9050919050565b600081905092915050565b6000613da282612f06565b613dac8185613d8c565b9350613dbc818560208601612f22565b80840191505092915050565b6000613dd48285613d97565b9150613de08284613d97565b91508190509392505050565b7f4f776e61626c653a206e6577206f776e657220697320746865207a65726f206160008201527f6464726573730000000000000000000000000000000000000000000000000000602082015250565b6000613e48602683612f11565b9150613e5382613dec565b604082019050919050565b60006020820190508181036000830152613e7781613e3b565b9050919050565b7f4552433732313a207472616e736665722066726f6d20696e636f72726563742060008201527f6f776e6572000000000000000000000000000000000000000000000000000000602082015250565b6000613eda602583612f11565b9150613ee582613e7e565b604082019050919050565b60006020820190508181036000830152613f0981613ecd565b9050919050565b7f4552433732313a207472616e7366657220746f20746865207a65726f2061646460008201527f7265737300000000000000000000000000000000000000000000000000000000602082015250565b6000613f6c602483612f11565b9150613f7782613f10565b604082019050919050565b60006020820190508181036000830152613f9b81613f5f565b9050919050565b7f4f776e61626c653a2063616c6c6572206973206e6f7420746865206f776e6572600082015250565b6000613fd8602083612f11565b9150613fe382613fa2565b602082019050919050565b6000602082019050818103600083015261400781613fcb565b9050919050565b7f4552433732313a20617070726f766520746f2063616c6c657200000000000000600082015250565b6000614044601983612f11565b915061404f8261400e565b602082019050919050565b6000602082019050818103600083015261407381614037565b9050919050565b7f4552433732313a207472616e7366657220746f206e6f6e20455243373231526560008201527f63656976657220696d706c656d656e7465720000000000000000000000000000602082015250565b60006140d6603283612f11565b91506140e18261407a565b604082019050919050565b60006020820190508181036000830152614105816140c9565b9050919050565b7f4e487b7100000000000000000000000000000000000000000000000000000000600052601260045260246000fd5b7f455243373231456e756d657261626c653a20636f6e736563757469766520747260008201527f616e7366657273206e6f7420737570706f727465640000000000000000000000602082015250565b6000614197603583612f11565b91506141a28261413b565b604082019050919050565b600060208201905081810360008301526141c68161418a565b9050919050565b600081519050919050565b600082825260208201905092915050565b60006141f4826141cd565b6141fe81856141d8565b935061420e818560208601612f22565b61421781612f55565b840191505092915050565b60006080820190506142376000830187613056565b6142446020830186613056565b61425160408301856130ec565b818103606083015261426381846141e9565b905095945050505050565b60008151905061427d81612e77565b92915050565b60006020828403121561429957614298612e41565b5b60006142a78482850161426e565b91505092915050565b7f4e487b7100000000000000000000000000000000000000000000000000000000600052601160045260246000fd5b60006142ea82612fc1565b91506142f583612fc1565b925082821015614308576143076142b0565b5b828203905092915050565b7f4e487b7100000000000000000000000000000000000000000000000000000000600052603160045260246000fd5b7f4552433732313a206d696e7420746f20746865207a65726f2061646472657373600082015250565b6000614378602083612f11565b915061438382614342565b602082019050919050565b600060208201905081810360008301526143a78161436b565b9050919050565b7f4552433732313a20746f6b656e20616c7265616479206d696e74656400000000600082015250565b60006143e4601c83612f11565b91506143ef826143ae565b602082019050919050565b60006020820190508181036000830152614413816143d7565b905091905056fea2646970667358221220a9ea7c47397e907bcc0420b2e7c0cb9cb5603b64fb8651bc20aa6ac2b6f6b62064736f6c634300080d0033",
  "immutableReferences": {},
  "source": "// SPDX-License-Identifier: MIT\npragma solidity ^0.8.13;\n\nimport \"@openzeppelin/contracts/token/ERC721/extensions/ERC721Enumerable.sol\";\nimport \"@openzeppelin/contracts/access/Ownable.sol\";\nimport \"@openzeppelin/contracts/utils/Counters.sol\";\nimport \"@openzeppelin/contracts/utils/math/SafeMath.sol\";\nimport \"./StringUtils.sol\";\n\ncontract LuxuryItemTracking is ERC721Enumerable, Ownable {\n    using Counters for Counters.Counter;\n event LuxuryItemCertificationUpdated(uint256 indexed serialNumber, bool isCertified);\n    event LuxuryItemValuationUpdated(uint256 indexed serialNumber, uint256 valuation);\n    Counters.Counter private _tokenIds;\n    uint public constant MAX_SUPPLY = 10;\n    uint public constant PRICE = 0.00001 ether;\n\n  struct LuxuryItem {\n        string name;\n        uint256 serialNumber;\n        address manufacturer;\n        uint256 productionDate;\n        string logisticsInfo;\n        string salesRecord;\n        bool isCertified; // \n        uint256 valuation;\n        string certification;\n        mapping(address => bool) certifiedUsers;\n    }\n\n\n    mapping(uint256 => LuxuryItem) private luxuryItems;\n\n    string public baseTokenURI;\n\n    event ValuationSet(uint256 indexed serialNumber, uint256 valuation);\n    event CertificationSet(uint256 indexed serialNumber, string certification);\n\n    constructor(string memory baseURI, string memory name, string memory symbol) ERC721(name, symbol) {\n        setBaseURI(baseURI);\n    }\n\n   \n    function setLuxuryItemValuation(\n        uint256 _serialNumber,\n        uint256 _valuation\n    ) public onlyOwner {\n        require(_exists(_serialNumber), \"Item does not exist\");\n        luxuryItems[_serialNumber].valuation = _valuation;\n         emit ValuationSet(_serialNumber, _valuation);\n          emit LuxuryItemValuationUpdated(_serialNumber, _valuation);\n    }\n\n    function setBaseURI(string memory _baseTokenURI) public onlyOwner {\n        baseTokenURI = _baseTokenURI;\n    }\n\n   function mintNFT(\n        string memory _name,\n        uint256 _serialNumber,\n        uint256 _productionDate\n    ) public payable {\n        require(_tokenIds.current() < MAX_SUPPLY, \"This collection is sold out!\");\n        require(msg.value >= PRICE, \"Not enough ether to purchase NFT.\");\n        require(!_exists(_serialNumber), \"Item with this serial number already exists\");\n\n        _mintSingleNFT(_name, _serialNumber, _productionDate);\n    }\n\n    function _mintSingleNFT(string memory _name, uint256 _serialNumber, uint256 _productionDate) private {\n        _tokenIds.increment();\n        LuxuryItem storage newItem = luxuryItems[_serialNumber];\n        newItem.name = _name;\n        newItem.serialNumber = _serialNumber;\n        newItem.manufacturer = msg.sender;\n        newItem.productionDate = _productionDate;\n        newItem.isCertified = false; // \n\n        _safeMint(msg.sender, _serialNumber);\n    }\n\n    function _exists(uint256 _serialNumber) override internal view returns (bool) {\n        return luxuryItems[_serialNumber].serialNumber == _serialNumber;\n    }\n\n    function updateLogisticsInfo(\n        uint256 _serialNumber,\n        string memory _logisticsInfo\n    ) public onlyOwner {\n        require(_exists(_serialNumber), \"Item does not exist\");\n        luxuryItems[_serialNumber].logisticsInfo = _logisticsInfo;\n    }\n\n    function updateSalesRecord(\n        uint256 _serialNumber,\n        string memory _salesRecord\n    ) public onlyOwner {\n        require(_exists(_serialNumber), \"Item does not exist\");\n        luxuryItems[_serialNumber].salesRecord = _salesRecord;\n    }\n\n    function certifyUser(uint256 _serialNumber,bool _isCertified ) public {\n        require(_exists(_serialNumber), \"Item does not exist\");\n        require(\n            luxuryItems[_serialNumber].manufacturer == msg.sender,\n            \"Only manufacturer can certify users\"\n        );\n        luxuryItems[_serialNumber].certifiedUsers[msg.sender] = true;\n     emit LuxuryItemCertificationUpdated(_serialNumber, _isCertified);\n    }\n\n    function getItemDetails(\n        uint256 _serialNumber\n    )\n        public\n        view\n        returns (string memory, address, uint256, string memory, string memory)\n    {\n        require(_exists(_serialNumber), \"Item does not exist\");\n\n        LuxuryItem storage item = luxuryItems[_serialNumber];\n        return (\n            item.name,\n            item.manufacturer,\n            item.productionDate,\n            item.logisticsInfo,\n            item.salesRecord\n        );\n    }\n\n    function setLuxuryItemCertification(\n        uint256 _serialNumber,\n        string memory _certification\n    ) public onlyOwner {\n        require(_exists(_serialNumber), \"Item does not exist\");\n        luxuryItems[_serialNumber].certification = _certification;\n        emit CertificationSet(_serialNumber, _certification);\n    }\n\n    function isCertifiedUser(uint256 _serialNumber) public view returns (bool) {\n        require(_exists(_serialNumber), \"Item does not exist\");\n        return luxuryItems[_serialNumber].certifiedUsers[msg.sender];\n    }\n\n  \n}\n",
  "sourcePath": "/root/ddnwork/contracts/LuxuryItemTracking.sol",
  "compiler": {
    "name": "solc",
    "version": "0.8.13+commit.abaa5c0e.Emscripten.clang"
  },
  "schemaVersion": "3.4.16",
  "updatedAt": "2024-03-06T03:35:30.194Z",
  "networkType": "ethereum",
  "devdoc": {
    "kind": "dev",
    "methods": {
      "approve(address,uint256)": {
        "details": "See {IERC721-approve}."
      },
      "balanceOf(address)": {
        "details": "See {IERC721-balanceOf}."
      },
      "getApproved(uint256)": {
        "details": "See {IERC721-getApproved}."
      },
      "isApprovedForAll(address,address)": {
        "details": "See {IERC721-isApprovedForAll}."
      },
      "name()": {
        "details": "See {IERC721Metadata-name}."
      },
      "owner()": {
        "details": "Returns the address of the current owner."
      },
      "ownerOf(uint256)": {
        "details": "See {IERC721-ownerOf}."
      },
      "renounceOwnership()": {
        "details": "Leaves the contract without owner. It will not be possible to call `onlyOwner` functions. Can only be called by the current owner. NOTE: Renouncing ownership will leave the contract without an owner, thereby disabling any functionality that is only available to the owner."
      },
      "safeTransferFrom(address,address,uint256)": {
        "details": "See {IERC721-safeTransferFrom}."
      },
      "safeTransferFrom(address,address,uint256,bytes)": {
        "details": "See {IERC721-safeTransferFrom}."
      },
      "setApprovalForAll(address,bool)": {
        "details": "See {IERC721-setApprovalForAll}."
      },
      "supportsInterface(bytes4)": {
        "details": "See {IERC165-supportsInterface}."
      },
      "symbol()": {
        "details": "See {IERC721Metadata-symbol}."
      },
      "tokenByIndex(uint256)": {
        "details": "See {IERC721Enumerable-tokenByIndex}."
      },
      "tokenOfOwnerByIndex(address,uint256)": {
        "details": "See {IERC721Enumerable-tokenOfOwnerByIndex}."
      },
      "tokenURI(uint256)": {
        "details": "See {IERC721Metadata-tokenURI}."
      },
      "totalSupply()": {
        "details": "See {IERC721Enumerable-totalSupply}."
      },
      "transferFrom(address,address,uint256)": {
        "details": "See {IERC721-transferFrom}."
      },
      "transferOwnership(address)": {
        "details": "Transfers ownership of the contract to a new account (`newOwner`). Can only be called by the current owner."
      }
    },
    "version": 1
  },
  "userdoc": {
    "kind": "user",
    "methods": {},
    "version": 1
  }
}