{
  "contractName": "LuxuryItemTracking",
  "abi": [
    {
      "inputs": [
        {
          "internalType": "string",
          "name": "baseURI",
          "type": "string"
        },
        {
          "internalType": "string",
          "name": "name",
          "type": "string"
        },
        {
          "internalType": "string",
          "name": "symbol",
          "type": "string"
        }
      ],
      "stateMutability": "nonpayable",
      "type": "constructor"
    },
    {
      "anonymous": false,
      "inputs": [
        {
          "indexed": true,
          "internalType": "address",
          "name": "owner",
          "type": "address"
        },
        {
          "indexed": true,
          "internalType": "address",
          "name": "approved",
          "type": "address"
        },
        {
          "indexed": true,
          "internalType": "uint256",
          "name": "tokenId",
          "type": "uint256"
        }
      ],
      "name": "Approval",
      "type": "event"
    },
    {
      "anonymous": false,
      "inputs": [
        {
          "indexed": true,
          "internalType": "address",
          "name": "owner",
          "type": "address"
        },
        {
          "indexed": true,
          "internalType": "address",
          "name": "operator",
          "type": "address"
        },
        {
          "indexed": false,
          "internalType": "bool",
          "name": "approved",
          "type": "bool"
        }
      ],
      "name": "ApprovalForAll",
      "type": "event"
    },
    {
      "anonymous": false,
      "inputs": [
        {
          "indexed": false,
          "internalType": "string",
          "name": "message",
          "type": "string"
        }
      ],
      "name": "DebugMessage",
      "type": "event"
    },
    {
      "anonymous": false,
      "inputs": [
        {
          "indexed": true,
          "internalType": "address",
          "name": "previousOwner",
          "type": "address"
        },
        {
          "indexed": true,
          "internalType": "address",
          "name": "newOwner",
          "type": "address"
        }
      ],
      "name": "OwnershipTransferred",
      "type": "event"
    },
    {
      "anonymous": false,
      "inputs": [
        {
          "indexed": true,
          "internalType": "address",
          "name": "from",
          "type": "address"
        },
        {
          "indexed": true,
          "internalType": "address",
          "name": "to",
          "type": "address"
        },
        {
          "indexed": true,
          "internalType": "uint256",
          "name": "tokenId",
          "type": "uint256"
        }
      ],
      "name": "Transfer",
      "type": "event"
    },
    {
      "inputs": [],
      "name": "MAX_PER_MINT",
      "outputs": [
        {
          "internalType": "uint256",
          "name": "",
          "type": "uint256"
        }
      ],
      "stateMutability": "view",
      "type": "function",
      "constant": true
    },
    {
      "inputs": [],
      "name": "MAX_SUPPLY",
      "outputs": [
        {
          "internalType": "uint256",
          "name": "",
          "type": "uint256"
        }
      ],
      "stateMutability": "view",
      "type": "function",
      "constant": true
    },
    {
      "inputs": [],
      "name": "PRICE",
      "outputs": [
        {
          "internalType": "uint256",
          "name": "",
          "type": "uint256"
        }
      ],
      "stateMutability": "view",
      "type": "function",
      "constant": true
    },
    {
      "inputs": [
        {
          "internalType": "address",
          "name": "to",
          "type": "address"
        },
        {
          "internalType": "uint256",
          "name": "tokenId",
          "type": "uint256"
        }
      ],
      "name": "approve",
      "outputs": [],
      "stateMutability": "nonpayable",
      "type": "function"
    },
    {
      "inputs": [
        {
          "internalType": "address",
          "name": "owner",
          "type": "address"
        }
      ],
      "name": "balanceOf",
      "outputs": [
        {
          "internalType": "uint256",
          "name": "",
          "type": "uint256"
        }
      ],
      "stateMutability": "view",
      "type": "function",
      "constant": true
    },
    {
      "inputs": [],
      "name": "baseTokenURI",
      "outputs": [
        {
          "internalType": "string",
          "name": "",
          "type": "string"
        }
      ],
      "stateMutability": "view",
      "type": "function",
      "constant": true
    },
    {
      "inputs": [
        {
          "internalType": "uint256",
          "name": "tokenId",
          "type": "uint256"
        }
      ],
      "name": "getApproved",
      "outputs": [
        {
          "internalType": "address",
          "name": "",
          "type": "address"
        }
      ],
      "stateMutability": "view",
      "type": "function",
      "constant": true
    },
    {
      "inputs": [
        {
          "internalType": "address",
          "name": "owner",
          "type": "address"
        },
        {
          "internalType": "address",
          "name": "operator",
          "type": "address"
        }
      ],
      "name": "isApprovedForAll",
      "outputs": [
        {
          "internalType": "bool",
          "name": "",
          "type": "bool"
        }
      ],
      "stateMutability": "view",
      "type": "function",
      "constant": true
    },
    {
      "inputs": [],
      "name": "name",
      "outputs": [
        {
          "internalType": "string",
          "name": "",
          "type": "string"
        }
      ],
      "stateMutability": "view",
      "type": "function",
      "constant": true
    },
    {
      "inputs": [],
      "name": "owner",
      "outputs": [
        {
          "internalType": "address",
          "name": "",
          "type": "address"
        }
      ],
      "stateMutability": "view",
      "type": "function",
      "constant": true
    },
    {
      "inputs": [
        {
          "internalType": "uint256",
          "name": "tokenId",
          "type": "uint256"
        }
      ],
      "name": "ownerOf",
      "outputs": [
        {
          "internalType": "address",
          "name": "",
          "type": "address"
        }
      ],
      "stateMutability": "view",
      "type": "function",
      "constant": true
    },
    {
      "inputs": [],
      "name": "renounceOwnership",
      "outputs": [],
      "stateMutability": "nonpayable",
      "type": "function"
    },
    {
      "inputs": [
        {
          "internalType": "address",
          "name": "from",
          "type": "address"
        },
        {
          "internalType": "address",
          "name": "to",
          "type": "address"
        },
        {
          "internalType": "uint256",
          "name": "tokenId",
          "type": "uint256"
        }
      ],
      "name": "safeTransferFrom",
      "outputs": [],
      "stateMutability": "nonpayable",
      "type": "function"
    },
    {
      "inputs": [
        {
          "internalType": "address",
          "name": "from",
          "type": "address"
        },
        {
          "internalType": "address",
          "name": "to",
          "type": "address"
        },
        {
          "internalType": "uint256",
          "name": "tokenId",
          "type": "uint256"
        },
        {
          "internalType": "bytes",
          "name": "data",
          "type": "bytes"
        }
      ],
      "name": "safeTransferFrom",
      "outputs": [],
      "stateMutability": "nonpayable",
      "type": "function"
    },
    {
      "inputs": [
        {
          "internalType": "address",
          "name": "operator",
          "type": "address"
        },
        {
          "internalType": "bool",
          "name": "approved",
          "type": "bool"
        }
      ],
      "name": "setApprovalForAll",
      "outputs": [],
      "stateMutability": "nonpayable",
      "type": "function"
    },
    {
      "inputs": [
        {
          "internalType": "bytes4",
          "name": "interfaceId",
          "type": "bytes4"
        }
      ],
      "name": "supportsInterface",
      "outputs": [
        {
          "internalType": "bool",
          "name": "",
          "type": "bool"
        }
      ],
      "stateMutability": "view",
      "type": "function",
      "constant": true
    },
    {
      "inputs": [],
      "name": "symbol",
      "outputs": [
        {
          "internalType": "string",
          "name": "",
          "type": "string"
        }
      ],
      "stateMutability": "view",
      "type": "function",
      "constant": true
    },
    {
      "inputs": [
        {
          "internalType": "uint256",
          "name": "index",
          "type": "uint256"
        }
      ],
      "name": "tokenByIndex",
      "outputs": [
        {
          "internalType": "uint256",
          "name": "",
          "type": "uint256"
        }
      ],
      "stateMutability": "view",
      "type": "function",
      "constant": true
    },
    {
      "inputs": [
        {
          "internalType": "address",
          "name": "owner",
          "type": "address"
        },
        {
          "internalType": "uint256",
          "name": "index",
          "type": "uint256"
        }
      ],
      "name": "tokenOfOwnerByIndex",
      "outputs": [
        {
          "internalType": "uint256",
          "name": "",
          "type": "uint256"
        }
      ],
      "stateMutability": "view",
      "type": "function",
      "constant": true
    },
    {
      "inputs": [
        {
          "internalType": "uint256",
          "name": "tokenId",
          "type": "uint256"
        }
      ],
      "name": "tokenURI",
      "outputs": [
        {
          "internalType": "string",
          "name": "",
          "type": "string"
        }
      ],
      "stateMutability": "view",
      "type": "function",
      "constant": true
    },
    {
      "inputs": [],
      "name": "totalSupply",
      "outputs": [
        {
          "internalType": "uint256",
          "name": "",
          "type": "uint256"
        }
      ],
      "stateMutability": "view",
      "type": "function",
      "constant": true
    },
    {
      "inputs": [
        {
          "internalType": "address",
          "name": "from",
          "type": "address"
        },
        {
          "internalType": "address",
          "name": "to",
          "type": "address"
        },
        {
          "internalType": "uint256",
          "name": "tokenId",
          "type": "uint256"
        }
      ],
      "name": "transferFrom",
      "outputs": [],
      "stateMutability": "nonpayable",
      "type": "function"
    },
    {
      "inputs": [
        {
          "internalType": "address",
          "name": "newOwner",
          "type": "address"
        }
      ],
      "name": "transferOwnership",
      "outputs": [],
      "stateMutability": "nonpayable",
      "type": "function"
    },
    {
      "inputs": [
        {
          "internalType": "string",
          "name": "_baseTokenURI",
          "type": "string"
        }
      ],
      "name": "setBaseURI",
      "outputs": [],
      "stateMutability": "nonpayable",
      "type": "function"
    },
    {
      "inputs": [
        {
          "internalType": "string",
          "name": "_name",
          "type": "string"
        },
        {
          "internalType": "uint256",
          "name": "_serialNumber",
          "type": "uint256"
        },
        {
          "internalType": "uint256",
          "name": "_productionDate",
          "type": "uint256"
        }
      ],
      "name": "mintNFTs",
      "outputs": [],
      "stateMutability": "payable",
      "type": "function",
      "payable": true
    },
    {
      "inputs": [
        {
          "internalType": "uint256",
          "name": "_serialNumber",
          "type": "uint256"
        },
        {
          "internalType": "string",
          "name": "_logisticsInfo",
          "type": "string"
        }
      ],
      "name": "updateLogisticsInfo",
      "outputs": [],
      "stateMutability": "nonpayable",
      "type": "function"
    },
    {
      "inputs": [
        {
          "internalType": "uint256",
          "name": "_serialNumber",
          "type": "uint256"
        },
        {
          "internalType": "string",
          "name": "_salesRecord",
          "type": "string"
        }
      ],
      "name": "updateSalesRecord",
      "outputs": [],
      "stateMutability": "nonpayable",
      "type": "function"
    },
    {
      "inputs": [
        {
          "internalType": "uint256",
          "name": "_serialNumber",
          "type": "uint256"
        }
      ],
      "name": "certifyUser",
      "outputs": [],
      "stateMutability": "nonpayable",
      "type": "function"
    },
    {
      "inputs": [
        {
          "internalType": "uint256",
          "name": "_serialNumber",
          "type": "uint256"
        }
      ],
      "name": "getItemDetails",
      "outputs": [
        {
          "internalType": "string",
          "name": "",
          "type": "string"
        },
        {
          "internalType": "address",
          "name": "",
          "type": "address"
        },
        {
          "internalType": "uint256",
          "name": "",
          "type": "uint256"
        },
        {
          "internalType": "string",
          "name": "",
          "type": "string"
        },
        {
          "internalType": "string",
          "name": "",
          "type": "string"
        }
      ],
      "stateMutability": "view",
      "type": "function",
      "constant": true
    },
    {
      "inputs": [
        {
          "internalType": "uint256",
          "name": "_serialNumber",
          "type": "uint256"
        }
      ],
      "name": "isCertifiedUser",
      "outputs": [
        {
          "internalType": "bool",
          "name": "",
          "type": "bool"
        }
      ],
      "stateMutability": "view",
      "type": "function",
      "constant": true
    }
  ],
  "bytecode": "0x608060405234801562000010575f80fd5b5060405162005098380380620050988339818101604052810190620000369190620003fb565b8181815f9081620000489190620006e8565b5080600190816200005a9190620006e8565b5050506200007d62000071620000ce60201b60201c565b620000d560201b60201c565b6200008e836200019860201b60201c565b7f2ca7ea951db3bc93c3c659c7ddf08261b1b1153e0685c16b88444c6235865c53604051620000bd906200082a565b60405180910390a1505050620008b8565b5f33905090565b5f600a5f9054906101000a900473ffffffffffffffffffffffffffffffffffffffff16905081600a5f6101000a81548173ffffffffffffffffffffffffffffffffffffffff021916908373ffffffffffffffffffffffffffffffffffffffff1602179055508173ffffffffffffffffffffffffffffffffffffffff168173ffffffffffffffffffffffffffffffffffffffff167f8be0079c531659141344cd1fd0a4f28419497f9722a3daafe3b4186f6b6457e060405160405180910390a35050565b620001a8620001bd60201b60201c565b80600e9081620001b99190620006e8565b5050565b620001cd620000ce60201b60201c565b73ffffffffffffffffffffffffffffffffffffffff16620001f36200024e60201b60201c565b73ffffffffffffffffffffffffffffffffffffffff16146200024c576040517f08c379a0000000000000000000000000000000000000000000000000000000008152600401620002439062000898565b60405180910390fd5b565b5f600a5f9054906101000a900473ffffffffffffffffffffffffffffffffffffffff16905090565b5f604051905090565b5f80fd5b5f80fd5b5f80fd5b5f80fd5b5f601f19601f8301169050919050565b7f4e487b71000000000000000000000000000000000000000000000000000000005f52604160045260245ffd5b620002d7826200028f565b810181811067ffffffffffffffff82111715620002f957620002f86200029f565b5b80604052505050565b5f6200030d62000276565b90506200031b8282620002cc565b919050565b5f67ffffffffffffffff8211156200033d576200033c6200029f565b5b62000348826200028f565b9050602081019050919050565b5f5b838110156200037457808201518184015260208101905062000357565b5f8484015250505050565b5f620003956200038f8462000320565b62000302565b905082815260208101848484011115620003b457620003b36200028b565b5b620003c184828562000355565b509392505050565b5f82601f830112620003e057620003df62000287565b5b8151620003f28482602086016200037f565b91505092915050565b5f805f606084860312156200041557620004146200027f565b5b5f84015167ffffffffffffffff81111562000435576200043462000283565b5b6200044386828701620003c9565b935050602084015167ffffffffffffffff81111562000467576200046662000283565b5b6200047586828701620003c9565b925050604084015167ffffffffffffffff81111562000499576200049862000283565b5b620004a786828701620003c9565b9150509250925092565b5f81519050919050565b7f4e487b71000000000000000000000000000000000000000000000000000000005f52602260045260245ffd5b5f60028204905060018216806200050057607f821691505b602082108103620005165762000515620004bb565b5b50919050565b5f819050815f5260205f209050919050565b5f6020601f8301049050919050565b5f82821b905092915050565b5f600883026200057a7fffffffffffffffffffffffffffffffffffffffffffffffffffffffffffffffff826200053d565b6200058686836200053d565b95508019841693508086168417925050509392505050565b5f819050919050565b5f819050919050565b5f620005d0620005ca620005c4846200059e565b620005a7565b6200059e565b9050919050565b5f819050919050565b620005eb83620005b0565b62000603620005fa82620005d7565b84845462000549565b825550505050565b5f90565b620006196200060b565b62000626818484620005e0565b505050565b5b818110156200064d57620006415f826200060f565b6001810190506200062c565b5050565b601f8211156200069c5762000666816200051c565b62000671846200052e565b8101602085101562000681578190505b6200069962000690856200052e565b8301826200062b565b50505b505050565b5f82821c905092915050565b5f620006be5f1984600802620006a1565b1980831691505092915050565b5f620006d88383620006ad565b9150826002028217905092915050565b620006f382620004b1565b67ffffffffffffffff8111156200070f576200070e6200029f565b5b6200071b8254620004e8565b6200072882828562000651565b5f60209050601f8311600181146200075e575f841562000749578287015190505b620007558582620006cb565b865550620007c4565b601f1984166200076e866200051c565b5f5b82811015620007975784890151825560018201915060208501945060208101905062000770565b86831015620007b75784890151620007b3601f891682620006ad565b8355505b6001600288020188555050505b505050505050565b5f82825260208201905092915050565b7f436f6e7472616374206465706c6f796564207375636365737366756c6c7921005f82015250565b5f62000812601f83620007cc565b91506200081f82620007dc565b602082019050919050565b5f6020820190508181035f830152620008438162000804565b9050919050565b7f4f776e61626c653a2063616c6c6572206973206e6f7420746865206f776e65725f82015250565b5f62000880602083620007cc565b91506200088d826200084a565b602082019050919050565b5f6020820190508181035f830152620008b18162000872565b9050919050565b6147d280620008c65f395ff3fe6080604052600436106101cc575f3560e01c806370a08231116100f6578063a8b83a3d11610094578063c87b56dd11610063578063c87b56dd14610674578063d547cfb7146106b0578063e985e9c5146106da578063f2fde38b14610716576101cc565b8063a8b83a3d146105c0578063b0a5430d146105fc578063b10b66ca14610624578063b88d4fde1461064c576101cc565b80638d859f3e116100d05780638d859f3e1461051a5780638da5cb5b1461054457806395d89b411461056e578063a22cb46514610598576101cc565b806370a0823114610488578063715018a6146104c457806373004ca0146104da576101cc565b80632d58e6ce1161016e5780634f6ccce71161013d5780634f6ccce7146103cc57806355f804b3146104085780636352211e14610430578063700874a51461046c576101cc565b80632d58e6ce146103165780632f745c591461033e57806332cb6b0c1461037a57806342842e0e146103a4576101cc565b8063095ea7b3116101aa578063095ea7b31461027257806309d42b301461029a57806318160ddd146102c457806323b872dd146102ee576101cc565b806301ffc9a7146101d057806306fdde031461020c578063081812fc14610236575b5f80fd5b3480156101db575f80fd5b506101f660048036038101906101f19190612ffc565b61073e565b6040516102039190613041565b60405180910390f35b348015610217575f80fd5b506102206107b7565b60405161022d91906130e4565b60405180910390f35b348015610241575f80fd5b5061025c60048036038101906102579190613137565b610846565b60405161026991906131a1565b60405180910390f35b34801561027d575f80fd5b50610298600480360381019061029391906131e4565b610888565b005b3480156102a5575f80fd5b506102ae61099e565b6040516102bb9190613231565b60405180910390f35b3480156102cf575f80fd5b506102d86109a3565b6040516102e59190613231565b60405180910390f35b3480156102f9575f80fd5b50610314600480360381019061030f919061324a565b6109af565b005b348015610321575f80fd5b5061033c600480360381019061033791906133c6565b610a0f565b005b348015610349575f80fd5b50610364600480360381019061035f91906131e4565b610a85565b6040516103719190613231565b60405180910390f35b348015610385575f80fd5b5061038e610b25565b60405161039b9190613231565b60405180910390f35b3480156103af575f80fd5b506103ca60048036038101906103c5919061324a565b610b2a565b005b3480156103d7575f80fd5b506103f260048036038101906103ed9190613137565b610b49565b6040516103ff9190613231565b60405180910390f35b348015610413575f80fd5b5061042e60048036038101906104299190613420565b610bb7565b005b34801561043b575f80fd5b5061045660048036038101906104519190613137565b610bd2565b60405161046391906131a1565b60405180910390f35b61048660048036038101906104819190613467565b610c56565b005b348015610493575f80fd5b506104ae60048036038101906104a991906134d3565b611009565b6040516104bb9190613231565b60405180910390f35b3480156104cf575f80fd5b506104d86110bd565b005b3480156104e5575f80fd5b5061050060048036038101906104fb9190613137565b6110d0565b6040516105119594939291906134fe565b60405180910390f35b348015610525575f80fd5b5061052e611319565b60405161053b9190613231565b60405180910390f35b34801561054f575f80fd5b50610558611323565b60405161056591906131a1565b60405180910390f35b348015610579575f80fd5b5061058261134b565b60405161058f91906130e4565b60405180910390f35b3480156105a3575f80fd5b506105be60048036038101906105b9919061358e565b6113db565b005b3480156105cb575f80fd5b506105e660048036038101906105e19190613137565b6113f1565b6040516105f39190613041565b60405180910390f35b348015610607575f80fd5b50610622600480360381019061061d91906133c6565b61149d565b005b34801561062f575f80fd5b5061064a60048036038101906106459190613137565b611513565b005b348015610657575f80fd5b50610672600480360381019061066d919061366a565b611666565b005b34801561067f575f80fd5b5061069a60048036038101906106959190613137565b6116c8565b6040516106a791906130e4565b60405180910390f35b3480156106bb575f80fd5b506106c461172d565b6040516106d191906130e4565b60405180910390f35b3480156106e5575f80fd5b5061070060048036038101906106fb91906136ea565b6117b9565b60405161070d9190613041565b60405180910390f35b348015610721575f80fd5b5061073c600480360381019061073791906134d3565b611847565b005b5f7f780e9d63000000000000000000000000000000000000000000000000000000007bffffffffffffffffffffffffffffffffffffffffffffffffffffffff1916827bffffffffffffffffffffffffffffffffffffffffffffffffffffffff191614806107b057506107af826118c9565b5b9050919050565b60605f80546107c590613755565b80601f01602080910402602001604051908101604052809291908181526020018280546107f190613755565b801561083c5780601f106108135761010080835404028352916020019161083c565b820191905f5260205f20905b81548152906001019060200180831161081f57829003601f168201915b5050505050905090565b5f610850826119aa565b60045f8381526020019081526020015f205f9054906101000a900473ffffffffffffffffffffffffffffffffffffffff169050919050565b5f61089282610bd2565b90508073ffffffffffffffffffffffffffffffffffffffff168373ffffffffffffffffffffffffffffffffffffffff1603610902576040517f08c379a00000000000000000000000000000000000000000000000000000000081526004016108f9906137f5565b60405180910390fd5b8073ffffffffffffffffffffffffffffffffffffffff166109216119f5565b73ffffffffffffffffffffffffffffffffffffffff161480610950575061094f8161094a6119f5565b6117b9565b5b61098f576040517f08c379a000000000000000000000000000000000000000000000000000000000815260040161098690613883565b60405180910390fd5b61099983836119fc565b505050565b600581565b5f600880549050905090565b6109c06109ba6119f5565b82611ab2565b6109ff576040517f08c379a00000000000000000000000000000000000000000000000000000000081526004016109f690613911565b60405180910390fd5b610a0a838383611b46565b505050565b610a17611e32565b610a2082611eb0565b610a5f576040517f08c379a0000000000000000000000000000000000000000000000000000000008152600401610a5690613979565b60405180910390fd5b80600c5f8481526020019081526020015f206005019081610a809190613b34565b505050565b5f610a8f83611009565b8210610ad0576040517f08c379a0000000000000000000000000000000000000000000000000000000008152600401610ac790613c73565b60405180910390fd5b60065f8473ffffffffffffffffffffffffffffffffffffffff1673ffffffffffffffffffffffffffffffffffffffff1681526020019081526020015f205f8381526020019081526020015f2054905092915050565b600a81565b610b4483838360405180602001604052805f815250611666565b505050565b5f610b526109a3565b8210610b93576040517f08c379a0000000000000000000000000000000000000000000000000000000008152600401610b8a90613d01565b60405180910390fd5b60088281548110610ba757610ba6613d1f565b5b905f5260205f2001549050919050565b610bbf611e32565b80600e9081610bce9190613b34565b5050565b5f80610bdd83611eeb565b90505f73ffffffffffffffffffffffffffffffffffffffff168173ffffffffffffffffffffffffffffffffffffffff1603610c4d576040517f08c379a0000000000000000000000000000000000000000000000000000000008152600401610c4490613d96565b60405180910390fd5b80915050919050565b5f610c61600b611f24565b9050600a610c79600183611f3090919063ffffffff16565b1115610cba576040517f08c379a0000000000000000000000000000000000000000000000000000000008152600401610cb190613dfe565b60405180910390fd5b600a610cc6600b611f24565b10610d06576040517f08c379a0000000000000000000000000000000000000000000000000000000008152600401610cfd90613dfe565b60405180910390fd5b600a610d12600b611f24565b10610d52576040517f08c379a0000000000000000000000000000000000000000000000000000000008152600401610d4990613dfe565b60405180910390fd5b600a610d5e600b611f24565b10610d9e576040517f08c379a0000000000000000000000000000000000000000000000000000000008152600401610d9590613dfe565b60405180910390fd5b600a610daa600b611f24565b10610dea576040517f08c379a0000000000000000000000000000000000000000000000000000000008152600401610de190613dfe565b60405180910390fd5b600a610df6600b611f24565b10610e36576040517f08c379a0000000000000000000000000000000000000000000000000000000008152600401610e2d90613dfe565b60405180910390fd5b610e3f83611eb0565b15610e7f576040517f08c379a0000000000000000000000000000000000000000000000000000000008152600401610e7690613e8c565b60405180910390fd5b600a610e8b600b611f24565b10610ecb576040517f08c379a0000000000000000000000000000000000000000000000000000000008152600401610ec290613dfe565b60405180910390fd5b600a610ed7600b611f24565b10610f17576040517f08c379a0000000000000000000000000000000000000000000000000000000008152600401610f0e90613dfe565b60405180910390fd5b600a610f23600b611f24565b10610f63576040517f08c379a0000000000000000000000000000000000000000000000000000000008152600401610f5a90613dfe565b60405180910390fd5b600a610f6f600b611f24565b10610faf576040517f08c379a0000000000000000000000000000000000000000000000000000000008152600401610fa690613dfe565b60405180910390fd5b6509184e72a000341015610ff8576040517f08c379a0000000000000000000000000000000000000000000000000000000008152600401610fef90613f1a565b60405180910390fd5b611003848484611f45565b50505050565b5f8073ffffffffffffffffffffffffffffffffffffffff168273ffffffffffffffffffffffffffffffffffffffff1603611078576040517f08c379a000000000000000000000000000000000000000000000000000000000815260040161106f90613fa8565b60405180910390fd5b60035f8373ffffffffffffffffffffffffffffffffffffffff1673ffffffffffffffffffffffffffffffffffffffff1681526020019081526020015f20549050919050565b6110c5611e32565b6110ce5f612028565b565b60605f806060806110e086611eb0565b61111f576040517f08c379a000000000000000000000000000000000000000000000000000000000815260040161111690613979565b60405180910390fd5b5f600c5f8881526020019081526020015f209050805f01816002015f9054906101000a900473ffffffffffffffffffffffffffffffffffffffff168260030154836004018460050184805461117390613755565b80601f016020809104026020016040519081016040528092919081815260200182805461119f90613755565b80156111ea5780601f106111c1576101008083540402835291602001916111ea565b820191905f5260205f20905b8154815290600101906020018083116111cd57829003601f168201915b505050505094508180546111fd90613755565b80601f016020809104026020016040519081016040528092919081815260200182805461122990613755565b80156112745780601f1061124b57610100808354040283529160200191611274565b820191905f5260205f20905b81548152906001019060200180831161125757829003601f168201915b5050505050915080805461128790613755565b80601f01602080910402602001604051908101604052809291908181526020018280546112b390613755565b80156112fe5780601f106112d5576101008083540402835291602001916112fe565b820191905f5260205f20905b8154815290600101906020018083116112e157829003601f168201915b50505050509050955095509550955095505091939590929450565b6509184e72a00081565b5f600a5f9054906101000a900473ffffffffffffffffffffffffffffffffffffffff16905090565b60606001805461135a90613755565b80601f016020809104026020016040519081016040528092919081815260200182805461138690613755565b80156113d15780601f106113a8576101008083540402835291602001916113d1565b820191905f5260205f20905b8154815290600101906020018083116113b457829003601f168201915b5050505050905090565b6113ed6113e66119f5565b83836120eb565b5050565b5f6113fb82611eb0565b61143a576040517f08c379a000000000000000000000000000000000000000000000000000000000815260040161143190613979565b60405180910390fd5b600c5f8381526020019081526020015f206006015f3373ffffffffffffffffffffffffffffffffffffffff1673ffffffffffffffffffffffffffffffffffffffff1681526020019081526020015f205f9054906101000a900460ff169050919050565b6114a5611e32565b6114ae82611eb0565b6114ed576040517f08c379a00000000000000000000000000000000000000000000000000000000081526004016114e490613979565b60405180910390fd5b80600c5f8481526020019081526020015f20600401908161150e9190613b34565b505050565b61151c81611eb0565b61155b576040517f08c379a000000000000000000000000000000000000000000000000000000000815260040161155290613979565b60405180910390fd5b3373ffffffffffffffffffffffffffffffffffffffff16600c5f8381526020019081526020015f206002015f9054906101000a900473ffffffffffffffffffffffffffffffffffffffff1673ffffffffffffffffffffffffffffffffffffffff16146115fc576040517f08c379a00000000000000000000000000000000000000000000000000000000081526004016115f390614036565b60405180910390fd5b6001600c5f8381526020019081526020015f206006015f3373ffffffffffffffffffffffffffffffffffffffff1673ffffffffffffffffffffffffffffffffffffffff1681526020019081526020015f205f6101000a81548160ff02191690831515021790555050565b6116776116716119f5565b83611ab2565b6116b6576040517f08c379a00000000000000000000000000000000000000000000000000000000081526004016116ad90613911565b60405180910390fd5b6116c284848484612252565b50505050565b60606116d3826119aa565b5f6116dc6122ae565b90505f8151116116fa5760405180602001604052805f815250611725565b806117048461233e565b60405160200161171592919061408e565b6040516020818303038152906040525b915050919050565b600e805461173a90613755565b80601f016020809104026020016040519081016040528092919081815260200182805461176690613755565b80156117b15780601f10611788576101008083540402835291602001916117b1565b820191905f5260205f20905b81548152906001019060200180831161179457829003601f168201915b505050505081565b5f60055f8473ffffffffffffffffffffffffffffffffffffffff1673ffffffffffffffffffffffffffffffffffffffff1681526020019081526020015f205f8373ffffffffffffffffffffffffffffffffffffffff1673ffffffffffffffffffffffffffffffffffffffff1681526020019081526020015f205f9054906101000a900460ff16905092915050565b61184f611e32565b5f73ffffffffffffffffffffffffffffffffffffffff168173ffffffffffffffffffffffffffffffffffffffff16036118bd576040517f08c379a00000000000000000000000000000000000000000000000000000000081526004016118b490614121565b60405180910390fd5b6118c681612028565b50565b5f7f80ac58cd000000000000000000000000000000000000000000000000000000007bffffffffffffffffffffffffffffffffffffffffffffffffffffffff1916827bffffffffffffffffffffffffffffffffffffffffffffffffffffffff1916148061199357507f5b5e139f000000000000000000000000000000000000000000000000000000007bffffffffffffffffffffffffffffffffffffffffffffffffffffffff1916827bffffffffffffffffffffffffffffffffffffffffffffffffffffffff1916145b806119a357506119a282612408565b5b9050919050565b6119b381611eb0565b6119f2576040517f08c379a00000000000000000000000000000000000000000000000000000000081526004016119e990613d96565b60405180910390fd5b50565b5f33905090565b8160045f8381526020019081526020015f205f6101000a81548173ffffffffffffffffffffffffffffffffffffffff021916908373ffffffffffffffffffffffffffffffffffffffff160217905550808273ffffffffffffffffffffffffffffffffffffffff16611a6c83610bd2565b73ffffffffffffffffffffffffffffffffffffffff167f8c5be1e5ebec7d5bd14f71427d1e84f3dd0314c0f7b2291e5b200ac8c7c3b92560405160405180910390a45050565b5f80611abd83610bd2565b90508073ffffffffffffffffffffffffffffffffffffffff168473ffffffffffffffffffffffffffffffffffffffff161480611aff5750611afe81856117b9565b5b80611b3d57508373ffffffffffffffffffffffffffffffffffffffff16611b2584610846565b73ffffffffffffffffffffffffffffffffffffffff16145b91505092915050565b8273ffffffffffffffffffffffffffffffffffffffff16611b6682610bd2565b73ffffffffffffffffffffffffffffffffffffffff1614611bbc576040517f08c379a0000000000000000000000000000000000000000000000000000000008152600401611bb3906141af565b60405180910390fd5b5f73ffffffffffffffffffffffffffffffffffffffff168273ffffffffffffffffffffffffffffffffffffffff1603611c2a576040517f08c379a0000000000000000000000000000000000000000000000000000000008152600401611c219061423d565b60405180910390fd5b611c378383836001612471565b8273ffffffffffffffffffffffffffffffffffffffff16611c5782610bd2565b73ffffffffffffffffffffffffffffffffffffffff1614611cad576040517f08c379a0000000000000000000000000000000000000000000000000000000008152600401611ca4906141af565b60405180910390fd5b60045f8281526020019081526020015f205f6101000a81549073ffffffffffffffffffffffffffffffffffffffff0219169055600160035f8573ffffffffffffffffffffffffffffffffffffffff1673ffffffffffffffffffffffffffffffffffffffff1681526020019081526020015f205f8282540392505081905550600160035f8473ffffffffffffffffffffffffffffffffffffffff1673ffffffffffffffffffffffffffffffffffffffff1681526020019081526020015f205f82825401925050819055508160025f8381526020019081526020015f205f6101000a81548173ffffffffffffffffffffffffffffffffffffffff021916908373ffffffffffffffffffffffffffffffffffffffff160217905550808273ffffffffffffffffffffffffffffffffffffffff168473ffffffffffffffffffffffffffffffffffffffff167fddf252ad1be2c89b69c2b068fc378daa952ba7f163c4a11628f55a4df523b3ef60405160405180910390a4611e2d83838360016125cc565b505050565b611e3a6119f5565b73ffffffffffffffffffffffffffffffffffffffff16611e58611323565b73ffffffffffffffffffffffffffffffffffffffff1614611eae576040517f08c379a0000000000000000000000000000000000000000000000000000000008152600401611ea5906142a5565b60405180910390fd5b565b5f600d611ebc836125d2565b604051611ec991906142c3565b90815260200160405180910390205f9054906101000a900460ff169050919050565b5f60025f8381526020019081526020015f205f9054906101000a900473ffffffffffffffffffffffffffffffffffffffff169050919050565b5f815f01549050919050565b5f8183611f3d9190614306565b905092915050565b611f4f600b61272b565b5f600c5f611f5d600b611f24565b81526020019081526020015f20905083815f019081611f7c9190613b34565b5082816001018190555033816002015f6101000a81548173ffffffffffffffffffffffffffffffffffffffff021916908373ffffffffffffffffffffffffffffffffffffffff1602179055508181600301819055506001600d611fde856125d2565b604051611feb91906142c3565b90815260200160405180910390205f6101000a81548160ff0219169083151502179055506120223361201d600b611f24565b61273f565b50505050565b5f600a5f9054906101000a900473ffffffffffffffffffffffffffffffffffffffff16905081600a5f6101000a81548173ffffffffffffffffffffffffffffffffffffffff021916908373ffffffffffffffffffffffffffffffffffffffff1602179055508173ffffffffffffffffffffffffffffffffffffffff168173ffffffffffffffffffffffffffffffffffffffff167f8be0079c531659141344cd1fd0a4f28419497f9722a3daafe3b4186f6b6457e060405160405180910390a35050565b8173ffffffffffffffffffffffffffffffffffffffff168373ffffffffffffffffffffffffffffffffffffffff1603612159576040517f08c379a000000000000000000000000000000000000000000000000000000000815260040161215090614383565b60405180910390fd5b8060055f8573ffffffffffffffffffffffffffffffffffffffff1673ffffffffffffffffffffffffffffffffffffffff1681526020019081526020015f205f8473ffffffffffffffffffffffffffffffffffffffff1673ffffffffffffffffffffffffffffffffffffffff1681526020019081526020015f205f6101000a81548160ff0219169083151502179055508173ffffffffffffffffffffffffffffffffffffffff168373ffffffffffffffffffffffffffffffffffffffff167f17307eab39ab6107e8899845ad3d59bd9653f200f220920489ca2b5937696c31836040516122459190613041565b60405180910390a3505050565b61225d848484611b46565b6122698484848461275c565b6122a8576040517f08c379a000000000000000000000000000000000000000000000000000000000815260040161229f90614411565b60405180910390fd5b50505050565b6060600e80546122bd90613755565b80601f01602080910402602001604051908101604052809291908181526020018280546122e990613755565b80156123345780601f1061230b57610100808354040283529160200191612334565b820191905f5260205f20905b81548152906001019060200180831161231757829003601f168201915b5050505050905090565b60605f600161234c846128de565b0190505f8167ffffffffffffffff81111561236a576123696132a2565b5b6040519080825280601f01601f19166020018201604052801561239c5781602001600182028036833780820191505090505b5090505f82602001820190505b6001156123fd578080600190039150507f3031323334353637383961626364656600000000000000000000000000000000600a86061a8153600a85816123f2576123f161442f565b5b0494505f85036123a9575b819350505050919050565b5f7f01ffc9a7000000000000000000000000000000000000000000000000000000007bffffffffffffffffffffffffffffffffffffffffffffffffffffffff1916827bffffffffffffffffffffffffffffffffffffffffffffffffffffffff1916149050919050565b61247d84848484612a2f565b60018111156124c1576040517f08c379a00000000000000000000000000000000000000000000000000000000081526004016124b8906144cc565b60405180910390fd5b5f8290505f73ffffffffffffffffffffffffffffffffffffffff168573ffffffffffffffffffffffffffffffffffffffff16036125065761250181612a35565b612545565b8373ffffffffffffffffffffffffffffffffffffffff168573ffffffffffffffffffffffffffffffffffffffff1614612544576125438582612a79565b5b5b5f73ffffffffffffffffffffffffffffffffffffffff168473ffffffffffffffffffffffffffffffffffffffff16036125865761258181612bcf565b6125c5565b8473ffffffffffffffffffffffffffffffffffffffff168473ffffffffffffffffffffffffffffffffffffffff16146125c4576125c38482612c8f565b5b5b5050505050565b50505050565b60605f8203612618576040518060400160405280600181526020017f30000000000000000000000000000000000000000000000000000000000000008152509050612726565b5f8290505f5b5f8214612647578080612630906144ea565b915050600a826126409190614531565b915061261e565b5f8167ffffffffffffffff811115612662576126616132a2565b5b6040519080825280601f01601f1916602001820160405280156126945781602001600182028036833780820191505090505b5090505b5f851461271f576001826126ac9190614561565b9150600a856126bb9190614594565b60306126c79190614306565b60f81b8183815181106126dd576126dc613d1f565b5b60200101907effffffffffffffffffffffffffffffffffffffffffffffffffffffffffffff191690815f1a905350600a856127189190614531565b9450612698565b8093505050505b919050565b6001815f015f828254019250508190555050565b612758828260405180602001604052805f815250612d07565b5050565b5f61277c8473ffffffffffffffffffffffffffffffffffffffff16612d61565b156128d1578373ffffffffffffffffffffffffffffffffffffffff1663150b7a026127a56119f5565b8786866040518563ffffffff1660e01b81526004016127c79493929190614616565b6020604051808303815f875af192505050801561280257506040513d601f19601f820116820180604052508101906127ff9190614674565b60015b612881573d805f8114612830576040519150601f19603f3d011682016040523d82523d5f602084013e612835565b606091505b505f815103612879576040517f08c379a000000000000000000000000000000000000000000000000000000000815260040161287090614411565b60405180910390fd5b805181602001fd5b63150b7a0260e01b7bffffffffffffffffffffffffffffffffffffffffffffffffffffffff1916817bffffffffffffffffffffffffffffffffffffffffffffffffffffffff1916149150506128d6565b600190505b949350505050565b5f805f90507a184f03e93ff9f4daa797ed6e38ed64bf6a1f010000000000000000831061293a577a184f03e93ff9f4daa797ed6e38ed64bf6a1f01000000000000000083816129305761292f61442f565b5b0492506040810190505b6d04ee2d6d415b85acef81000000008310612977576d04ee2d6d415b85acef8100000000838161296d5761296c61442f565b5b0492506020810190505b662386f26fc1000083106129a657662386f26fc10000838161299c5761299b61442f565b5b0492506010810190505b6305f5e10083106129cf576305f5e10083816129c5576129c461442f565b5b0492506008810190505b61271083106129f45761271083816129ea576129e961442f565b5b0492506004810190505b60648310612a175760648381612a0d57612a0c61442f565b5b0492506002810190505b600a8310612a26576001810190505b80915050919050565b50505050565b60088054905060095f8381526020019081526020015f2081905550600881908060018154018082558091505060019003905f5260205f20015f909190919091505550565b5f6001612a8584611009565b612a8f9190614561565b90505f60075f8481526020019081526020015f20549050818114612b66575f60065f8673ffffffffffffffffffffffffffffffffffffffff1673ffffffffffffffffffffffffffffffffffffffff1681526020019081526020015f205f8481526020019081526020015f205490508060065f8773ffffffffffffffffffffffffffffffffffffffff1673ffffffffffffffffffffffffffffffffffffffff1681526020019081526020015f205f8481526020019081526020015f20819055508160075f8381526020019081526020015f2081905550505b60075f8481526020019081526020015f205f905560065f8573ffffffffffffffffffffffffffffffffffffffff1673ffffffffffffffffffffffffffffffffffffffff1681526020019081526020015f205f8381526020019081526020015f205f905550505050565b5f6001600880549050612be29190614561565b90505f60095f8481526020019081526020015f205490505f60088381548110612c0e57612c0d613d1f565b5b905f5260205f20015490508060088381548110612c2e57612c2d613d1f565b5b905f5260205f2001819055508160095f8381526020019081526020015f208190555060095f8581526020019081526020015f205f90556008805480612c7657612c7561469f565b5b600190038181905f5260205f20015f9055905550505050565b5f612c9983611009565b90508160065f8573ffffffffffffffffffffffffffffffffffffffff1673ffffffffffffffffffffffffffffffffffffffff1681526020019081526020015f205f8381526020019081526020015f20819055508060075f8481526020019081526020015f2081905550505050565b612d118383612d83565b612d1d5f84848461275c565b612d5c576040517f08c379a0000000000000000000000000000000000000000000000000000000008152600401612d5390614411565b60405180910390fd5b505050565b5f808273ffffffffffffffffffffffffffffffffffffffff163b119050919050565b5f73ffffffffffffffffffffffffffffffffffffffff168273ffffffffffffffffffffffffffffffffffffffff1603612df1576040517f08c379a0000000000000000000000000000000000000000000000000000000008152600401612de890614716565b60405180910390fd5b612dfa81611eb0565b15612e3a576040517f08c379a0000000000000000000000000000000000000000000000000000000008152600401612e319061477e565b60405180910390fd5b612e475f83836001612471565b612e5081611eb0565b15612e90576040517f08c379a0000000000000000000000000000000000000000000000000000000008152600401612e879061477e565b60405180910390fd5b600160035f8473ffffffffffffffffffffffffffffffffffffffff1673ffffffffffffffffffffffffffffffffffffffff1681526020019081526020015f205f82825401925050819055508160025f8381526020019081526020015f205f6101000a81548173ffffffffffffffffffffffffffffffffffffffff021916908373ffffffffffffffffffffffffffffffffffffffff160217905550808273ffffffffffffffffffffffffffffffffffffffff165f73ffffffffffffffffffffffffffffffffffffffff167fddf252ad1be2c89b69c2b068fc378daa952ba7f163c4a11628f55a4df523b3ef60405160405180910390a4612f925f838360016125cc565b5050565b5f604051905090565b5f80fd5b5f80fd5b5f7fffffffff0000000000000000000000000000000000000000000000000000000082169050919050565b612fdb81612fa7565b8114612fe5575f80fd5b50565b5f81359050612ff681612fd2565b92915050565b5f6020828403121561301157613010612f9f565b5b5f61301e84828501612fe8565b91505092915050565b5f8115159050919050565b61303b81613027565b82525050565b5f6020820190506130545f830184613032565b92915050565b5f81519050919050565b5f82825260208201905092915050565b5f5b83811015613091578082015181840152602081019050613076565b5f8484015250505050565b5f601f19601f8301169050919050565b5f6130b68261305a565b6130c08185613064565b93506130d0818560208601613074565b6130d98161309c565b840191505092915050565b5f6020820190508181035f8301526130fc81846130ac565b905092915050565b5f819050919050565b61311681613104565b8114613120575f80fd5b50565b5f813590506131318161310d565b92915050565b5f6020828403121561314c5761314b612f9f565b5b5f61315984828501613123565b91505092915050565b5f73ffffffffffffffffffffffffffffffffffffffff82169050919050565b5f61318b82613162565b9050919050565b61319b81613181565b82525050565b5f6020820190506131b45f830184613192565b92915050565b6131c381613181565b81146131cd575f80fd5b50565b5f813590506131de816131ba565b92915050565b5f80604083850312156131fa576131f9612f9f565b5b5f613207858286016131d0565b925050602061321885828601613123565b9150509250929050565b61322b81613104565b82525050565b5f6020820190506132445f830184613222565b92915050565b5f805f6060848603121561326157613260612f9f565b5b5f61326e868287016131d0565b935050602061327f868287016131d0565b925050604061329086828701613123565b9150509250925092565b5f80fd5b5f80fd5b7f4e487b71000000000000000000000000000000000000000000000000000000005f52604160045260245ffd5b6132d88261309c565b810181811067ffffffffffffffff821117156132f7576132f66132a2565b5b80604052505050565b5f613309612f96565b905061331582826132cf565b919050565b5f67ffffffffffffffff821115613334576133336132a2565b5b61333d8261309c565b9050602081019050919050565b828183375f83830152505050565b5f61336a6133658461331a565b613300565b9050828152602081018484840111156133865761338561329e565b5b61339184828561334a565b509392505050565b5f82601f8301126133ad576133ac61329a565b5b81356133bd848260208601613358565b91505092915050565b5f80604083850312156133dc576133db612f9f565b5b5f6133e985828601613123565b925050602083013567ffffffffffffffff81111561340a57613409612fa3565b5b61341685828601613399565b9150509250929050565b5f6020828403121561343557613434612f9f565b5b5f82013567ffffffffffffffff81111561345257613451612fa3565b5b61345e84828501613399565b91505092915050565b5f805f6060848603121561347e5761347d612f9f565b5b5f84013567ffffffffffffffff81111561349b5761349a612fa3565b5b6134a786828701613399565b93505060206134b886828701613123565b92505060406134c986828701613123565b9150509250925092565b5f602082840312156134e8576134e7612f9f565b5b5f6134f5848285016131d0565b91505092915050565b5f60a0820190508181035f83015261351681886130ac565b90506135256020830187613192565b6135326040830186613222565b818103606083015261354481856130ac565b9050818103608083015261355881846130ac565b90509695505050505050565b61356d81613027565b8114613577575f80fd5b50565b5f8135905061358881613564565b92915050565b5f80604083850312156135a4576135a3612f9f565b5b5f6135b1858286016131d0565b92505060206135c28582860161357a565b9150509250929050565b5f67ffffffffffffffff8211156135e6576135e56132a2565b5b6135ef8261309c565b9050602081019050919050565b5f61360e613609846135cc565b613300565b90508281526020810184848401111561362a5761362961329e565b5b61363584828561334a565b509392505050565b5f82601f8301126136515761365061329a565b5b81356136618482602086016135fc565b91505092915050565b5f805f806080858703121561368257613681612f9f565b5b5f61368f878288016131d0565b94505060206136a0878288016131d0565b93505060406136b187828801613123565b925050606085013567ffffffffffffffff8111156136d2576136d1612fa3565b5b6136de8782880161363d565b91505092959194509250565b5f8060408385031215613700576136ff612f9f565b5b5f61370d858286016131d0565b925050602061371e858286016131d0565b9150509250929050565b7f4e487b71000000000000000000000000000000000000000000000000000000005f52602260045260245ffd5b5f600282049050600182168061376c57607f821691505b60208210810361377f5761377e613728565b5b50919050565b7f4552433732313a20617070726f76616c20746f2063757272656e74206f776e655f8201527f7200000000000000000000000000000000000000000000000000000000000000602082015250565b5f6137df602183613064565b91506137ea82613785565b604082019050919050565b5f6020820190508181035f83015261380c816137d3565b9050919050565b7f4552433732313a20617070726f76652063616c6c6572206973206e6f7420746f5f8201527f6b656e206f776e6572206f7220617070726f76656420666f7220616c6c000000602082015250565b5f61386d603d83613064565b915061387882613813565b604082019050919050565b5f6020820190508181035f83015261389a81613861565b9050919050565b7f4552433732313a2063616c6c6572206973206e6f7420746f6b656e206f776e655f8201527f72206f7220617070726f76656400000000000000000000000000000000000000602082015250565b5f6138fb602d83613064565b9150613906826138a1565b604082019050919050565b5f6020820190508181035f830152613928816138ef565b9050919050565b7f4974656d20646f6573206e6f74206578697374000000000000000000000000005f82015250565b5f613963601383613064565b915061396e8261392f565b602082019050919050565b5f6020820190508181035f83015261399081613957565b9050919050565b5f819050815f5260205f209050919050565b5f6020601f8301049050919050565b5f82821b905092915050565b5f600883026139f37fffffffffffffffffffffffffffffffffffffffffffffffffffffffffffffffff826139b8565b6139fd86836139b8565b95508019841693508086168417925050509392505050565b5f819050919050565b5f613a38613a33613a2e84613104565b613a15565b613104565b9050919050565b5f819050919050565b613a5183613a1e565b613a65613a5d82613a3f565b8484546139c4565b825550505050565b5f90565b613a79613a6d565b613a84818484613a48565b505050565b5b81811015613aa757613a9c5f82613a71565b600181019050613a8a565b5050565b601f821115613aec57613abd81613997565b613ac6846139a9565b81016020851015613ad5578190505b613ae9613ae1856139a9565b830182613a89565b50505b505050565b5f82821c905092915050565b5f613b0c5f1984600802613af1565b1980831691505092915050565b5f613b248383613afd565b9150826002028217905092915050565b613b3d8261305a565b67ffffffffffffffff811115613b5657613b556132a2565b5b613b608254613755565b613b6b828285613aab565b5f60209050601f831160018114613b9c575f8415613b8a578287015190505b613b948582613b19565b865550613bfb565b601f198416613baa86613997565b5f5b82811015613bd157848901518255600182019150602085019450602081019050613bac565b86831015613bee5784890151613bea601f891682613afd565b8355505b6001600288020188555050505b505050505050565b7f455243373231456e756d657261626c653a206f776e657220696e646578206f755f8201527f74206f6620626f756e6473000000000000000000000000000000000000000000602082015250565b5f613c5d602b83613064565b9150613c6882613c03565b604082019050919050565b5f6020820190508181035f830152613c8a81613c51565b9050919050565b7f455243373231456e756d657261626c653a20676c6f62616c20696e646578206f5f8201527f7574206f6620626f756e64730000000000000000000000000000000000000000602082015250565b5f613ceb602c83613064565b9150613cf682613c91565b604082019050919050565b5f6020820190508181035f830152613d1881613cdf565b9050919050565b7f4e487b71000000000000000000000000000000000000000000000000000000005f52603260045260245ffd5b7f4552433732313a20696e76616c696420746f6b656e20494400000000000000005f82015250565b5f613d80601883613064565b9150613d8b82613d4c565b602082019050919050565b5f6020820190508181035f830152613dad81613d74565b9050919050565b7f5468697320636f6c6c656374696f6e20697320736f6c64206f757421000000005f82015250565b5f613de8601c83613064565b9150613df382613db4565b602082019050919050565b5f6020820190508181035f830152613e1581613ddc565b9050919050565b7f4974656d207769746820746869732073657269616c206e756d62657220616c725f8201527f6561647920657869737473000000000000000000000000000000000000000000602082015250565b5f613e76602b83613064565b9150613e8182613e1c565b604082019050919050565b5f6020820190508181035f830152613ea381613e6a565b9050919050565b7f4e6f7420656e6f75676820657468657220746f207075726368617365204e46545f8201527f2e00000000000000000000000000000000000000000000000000000000000000602082015250565b5f613f04602183613064565b9150613f0f82613eaa565b604082019050919050565b5f6020820190508181035f830152613f3181613ef8565b9050919050565b7f4552433732313a2061646472657373207a65726f206973206e6f7420612076615f8201527f6c6964206f776e65720000000000000000000000000000000000000000000000602082015250565b5f613f92602983613064565b9150613f9d82613f38565b604082019050919050565b5f6020820190508181035f830152613fbf81613f86565b9050919050565b7f4f6e6c79206d616e7566616374757265722063616e20636572746966792075735f8201527f6572730000000000000000000000000000000000000000000000000000000000602082015250565b5f614020602383613064565b915061402b82613fc6565b604082019050919050565b5f6020820190508181035f83015261404d81614014565b9050919050565b5f81905092915050565b5f6140688261305a565b6140728185614054565b9350614082818560208601613074565b80840191505092915050565b5f614099828561405e565b91506140a5828461405e565b91508190509392505050565b7f4f776e61626c653a206e6577206f776e657220697320746865207a65726f20615f8201527f6464726573730000000000000000000000000000000000000000000000000000602082015250565b5f61410b602683613064565b9150614116826140b1565b604082019050919050565b5f6020820190508181035f830152614138816140ff565b9050919050565b7f4552433732313a207472616e736665722066726f6d20696e636f7272656374205f8201527f6f776e6572000000000000000000000000000000000000000000000000000000602082015250565b5f614199602583613064565b91506141a48261413f565b604082019050919050565b5f6020820190508181035f8301526141c68161418d565b9050919050565b7f4552433732313a207472616e7366657220746f20746865207a65726f206164645f8201527f7265737300000000000000000000000000000000000000000000000000000000602082015250565b5f614227602483613064565b9150614232826141cd565b604082019050919050565b5f6020820190508181035f8301526142548161421b565b9050919050565b7f4f776e61626c653a2063616c6c6572206973206e6f7420746865206f776e65725f82015250565b5f61428f602083613064565b915061429a8261425b565b602082019050919050565b5f6020820190508181035f8301526142bc81614283565b9050919050565b5f6142ce828461405e565b915081905092915050565b7f4e487b71000000000000000000000000000000000000000000000000000000005f52601160045260245ffd5b5f61431082613104565b915061431b83613104565b9250828201905080821115614333576143326142d9565b5b92915050565b7f4552433732313a20617070726f766520746f2063616c6c6572000000000000005f82015250565b5f61436d601983613064565b915061437882614339565b602082019050919050565b5f6020820190508181035f83015261439a81614361565b9050919050565b7f4552433732313a207472616e7366657220746f206e6f6e2045524337323152655f8201527f63656976657220696d706c656d656e7465720000000000000000000000000000602082015250565b5f6143fb603283613064565b9150614406826143a1565b604082019050919050565b5f6020820190508181035f830152614428816143ef565b9050919050565b7f4e487b71000000000000000000000000000000000000000000000000000000005f52601260045260245ffd5b7f455243373231456e756d657261626c653a20636f6e73656375746976652074725f8201527f616e7366657273206e6f7420737570706f727465640000000000000000000000602082015250565b5f6144b6603583613064565b91506144c18261445c565b604082019050919050565b5f6020820190508181035f8301526144e3816144aa565b9050919050565b5f6144f482613104565b91507fffffffffffffffffffffffffffffffffffffffffffffffffffffffffffffffff8203614526576145256142d9565b5b600182019050919050565b5f61453b82613104565b915061454683613104565b9250826145565761455561442f565b5b828204905092915050565b5f61456b82613104565b915061457683613104565b925082820390508181111561458e5761458d6142d9565b5b92915050565b5f61459e82613104565b91506145a983613104565b9250826145b9576145b861442f565b5b828206905092915050565b5f81519050919050565b5f82825260208201905092915050565b5f6145e8826145c4565b6145f281856145ce565b9350614602818560208601613074565b61460b8161309c565b840191505092915050565b5f6080820190506146295f830187613192565b6146366020830186613192565b6146436040830185613222565b818103606083015261465581846145de565b905095945050505050565b5f8151905061466e81612fd2565b92915050565b5f6020828403121561468957614688612f9f565b5b5f61469684828501614660565b91505092915050565b7f4e487b71000000000000000000000000000000000000000000000000000000005f52603160045260245ffd5b7f4552433732313a206d696e7420746f20746865207a65726f20616464726573735f82015250565b5f614700602083613064565b915061470b826146cc565b602082019050919050565b5f6020820190508181035f83015261472d816146f4565b9050919050565b7f4552433732313a20746f6b656e20616c7265616479206d696e746564000000005f82015250565b5f614768601c83613064565b915061477382614734565b602082019050919050565b5f6020820190508181035f8301526147958161475c565b905091905056fea264697066735822122053d1cef50a1dc60ae2b3c5f7322d55be19b7cc6bc4f06c37f7361cedfcb297ba64736f6c63430008150033",
  "immutableReferences": {},
  "source": "// SPDX-License-Identifier: MIT\npragma solidity ^0.8.13;\n\nimport \"@openzeppelin/contracts/token/ERC721/extensions/ERC721Enumerable.sol\";\nimport \"@openzeppelin/contracts/access/Ownable.sol\";\nimport \"@openzeppelin/contracts/utils/Counters.sol\";\nimport \"@openzeppelin/contracts/utils/math/SafeMath.sol\";\nimport \"./StringUtils.sol\";\n\ncontract LuxuryItemTracking is ERC721Enumerable, Ownable {\n    using SafeMath for uint256;\n    using Counters for Counters.Counter;\n\n    Counters.Counter private _tokenIds;\n    uint public constant MAX_SUPPLY = 10;\n    uint public constant PRICE = 0.00001 ether;\n    uint public constant MAX_PER_MINT = 5;\n\n    struct LuxuryItem {\n        string name;\n        uint256 serialNumber;\n        address manufacturer;\n        uint256 productionDate;\n        string logisticsInfo;\n        string salesRecord;\n        mapping(address => bool) certifiedUsers;\n    }\n\n    mapping(uint256 => LuxuryItem) private luxuryItems;\n    mapping(string => bool) private existingSerialNumbers;\n\n    string public baseTokenURI;\n\n    constructor(string memory baseURI, string memory name, string memory symbol) ERC721(name, symbol) {\n        setBaseURI(baseURI);\n        emit DebugMessage(\"Contract deployed successfully!\");\n    }\nevent DebugMessage(string message);\n    function _baseURI() internal view virtual override returns (string memory) {\n        return baseTokenURI;\n    }\n\n    function setBaseURI(string memory _baseTokenURI) public onlyOwner {\n        baseTokenURI = _baseTokenURI;\n    }\n\n    function mintNFTs(string memory _name, uint256 _serialNumber, uint256 _productionDate) public payable {\n        uint totalMinted = _tokenIds.current();\n\n        require(totalMinted.add(1) <= MAX_SUPPLY, \"This collection is sold out!\");\n        require(_tokenIds.current() < MAX_SUPPLY, \"This collection is sold out!\");\n        require(_tokenIds.current() < MAX_SUPPLY, \"This collection is sold out!\");\n        require(_tokenIds.current() < MAX_SUPPLY, \"This collection is sold out!\");\n        require(_tokenIds.current() < MAX_SUPPLY, \"This collection is sold out!\");\n        require(_tokenIds.current() < MAX_SUPPLY, \"This collection is sold out!\");\n        require(!_exists(_serialNumber), \"Item with this serial number already exists\");\n        require(_tokenIds.current() < MAX_SUPPLY, \"This collection is sold out!\");\n        require(_tokenIds.current() < MAX_SUPPLY, \"This collection is sold out!\");\n        require(_tokenIds.current() < MAX_SUPPLY, \"This collection is sold out!\");\n        require(_tokenIds.current() < MAX_SUPPLY, \"This collection is sold out!\");\n        require(msg.value >= PRICE, \"Not enough ether to purchase NFT.\");\n\n        _mintSingleNFT(_name, _serialNumber, _productionDate);\n    }\n\n    function _mintSingleNFT(string memory _name, uint256 _serialNumber, uint256 _productionDate) private {\n      _tokenIds.increment();\n    LuxuryItem storage newItem = luxuryItems[_tokenIds.current()];\n    newItem.name = _name;\n    newItem.serialNumber = _serialNumber;\n    newItem.manufacturer = msg.sender;\n    newItem.productionDate = _productionDate;\n\n    existingSerialNumbers[StringUtils.uintToString(_serialNumber)] = true;\n\n    _safeMint(msg.sender, _tokenIds.current());\n    }\n\n    function updateLogisticsInfo(uint256 _serialNumber, string memory _logisticsInfo) public onlyOwner {\n        require(_exists(_serialNumber), \"Item does not exist\");\n        luxuryItems[_serialNumber].logisticsInfo = _logisticsInfo;\n    }\n\n    function updateSalesRecord(uint256 _serialNumber, string memory _salesRecord) public onlyOwner {\n        require(_exists(_serialNumber), \"Item does not exist\");\n        luxuryItems[_serialNumber].salesRecord = _salesRecord;\n    }\n\n    function certifyUser(uint256 _serialNumber) public {\n        require(_exists(_serialNumber), \"Item does not exist\");\n        require(luxuryItems[_serialNumber].manufacturer == msg.sender, \"Only manufacturer can certify users\");\n        luxuryItems[_serialNumber].certifiedUsers[msg.sender] = true;\n    }\n\n function getItemDetails(uint256 _serialNumber) public view returns (string memory, address, uint256, string memory, string memory) {\n    require(_exists(_serialNumber), \"Item does not exist\");\n    \n    LuxuryItem storage item = luxuryItems[_serialNumber];\n    return (item.name, item.manufacturer, item.productionDate, item.logisticsInfo, item.salesRecord);\n}\n\n    function isCertifiedUser(uint256 _serialNumber) public view returns (bool) {\n        require(_exists(_serialNumber), \"Item does not exist\");\n        return luxuryItems[_serialNumber].certifiedUsers[msg.sender];\n    }\n\n  function _exists(uint256 _serialNumber) internal view override returns (bool)  {\n       return existingSerialNumbers[StringUtils.uintToString(_serialNumber)];\n    }\n    \n}",
  "sourcePath": "E:\\\\ddn\\contracts\\LuxuryItemTracking.sol",
  "compiler": {
    "name": "solc",
    "version": "0.8.21+commit.d9974bed.Emscripten.clang"
  },
  "schemaVersion": "3.4.16",
  "updatedAt": "2023-11-19T15:39:36.767Z",
  "networkType": "ethereum",
  "devdoc": {
    "events": {
      "Approval(address,address,uint256)": {
        "details": "Emitted when `owner` enables `approved` to manage the `tokenId` token."
      },
      "ApprovalForAll(address,address,bool)": {
        "details": "Emitted when `owner` enables or disables (`approved`) `operator` to manage all of its assets."
      },
      "Transfer(address,address,uint256)": {
        "details": "Emitted when `tokenId` token is transferred from `from` to `to`."
      }
    },
    "kind": "dev",
    "methods": {
      "approve(address,uint256)": {
        "details": "See {IERC721-approve}."
      },
      "balanceOf(address)": {
        "details": "See {IERC721-balanceOf}."
      },
      "getApproved(uint256)": {
        "details": "See {IERC721-getApproved}."
      },
      "isApprovedForAll(address,address)": {
        "details": "See {IERC721-isApprovedForAll}."
      },
      "name()": {
        "details": "See {IERC721Metadata-name}."
      },
      "owner()": {
        "details": "Returns the address of the current owner."
      },
      "ownerOf(uint256)": {
        "details": "See {IERC721-ownerOf}."
      },
      "renounceOwnership()": {
        "details": "Leaves the contract without owner. It will not be possible to call `onlyOwner` functions. Can only be called by the current owner. NOTE: Renouncing ownership will leave the contract without an owner, thereby disabling any functionality that is only available to the owner."
      },
      "safeTransferFrom(address,address,uint256)": {
        "details": "See {IERC721-safeTransferFrom}."
      },
      "safeTransferFrom(address,address,uint256,bytes)": {
        "details": "See {IERC721-safeTransferFrom}."
      },
      "setApprovalForAll(address,bool)": {
        "details": "See {IERC721-setApprovalForAll}."
      },
      "supportsInterface(bytes4)": {
        "details": "See {IERC165-supportsInterface}."
      },
      "symbol()": {
        "details": "See {IERC721Metadata-symbol}."
      },
      "tokenByIndex(uint256)": {
        "details": "See {IERC721Enumerable-tokenByIndex}."
      },
      "tokenOfOwnerByIndex(address,uint256)": {
        "details": "See {IERC721Enumerable-tokenOfOwnerByIndex}."
      },
      "tokenURI(uint256)": {
        "details": "See {IERC721Metadata-tokenURI}."
      },
      "totalSupply()": {
        "details": "See {IERC721Enumerable-totalSupply}."
      },
      "transferFrom(address,address,uint256)": {
        "details": "See {IERC721-transferFrom}."
      },
      "transferOwnership(address)": {
        "details": "Transfers ownership of the contract to a new account (`newOwner`). Can only be called by the current owner."
      }
    },
    "version": 1
  },
  "userdoc": {
    "kind": "user",
    "methods": {},
    "version": 1
  }
}