{
  "contractName": "LuxuryGoodsNFT",
  "abi": [
    {
      "inputs": [
        {
          "internalType": "string",
          "name": "baseURI",
          "type": "string"
        },
        {
          "internalType": "string",
          "name": "name",
          "type": "string"
        },
        {
          "internalType": "string",
          "name": "symbol",
          "type": "string"
        }
      ],
      "stateMutability": "nonpayable",
      "type": "constructor"
    },
    {
      "anonymous": false,
      "inputs": [
        {
          "indexed": true,
          "internalType": "address",
          "name": "owner",
          "type": "address"
        },
        {
          "indexed": true,
          "internalType": "address",
          "name": "approved",
          "type": "address"
        },
        {
          "indexed": true,
          "internalType": "uint256",
          "name": "tokenId",
          "type": "uint256"
        }
      ],
      "name": "Approval",
      "type": "event"
    },
    {
      "anonymous": false,
      "inputs": [
        {
          "indexed": true,
          "internalType": "address",
          "name": "owner",
          "type": "address"
        },
        {
          "indexed": true,
          "internalType": "address",
          "name": "operator",
          "type": "address"
        },
        {
          "indexed": false,
          "internalType": "bool",
          "name": "approved",
          "type": "bool"
        }
      ],
      "name": "ApprovalForAll",
      "type": "event"
    },
    {
      "anonymous": false,
      "inputs": [
        {
          "indexed": true,
          "internalType": "uint256",
          "name": "tokenId",
          "type": "uint256"
        },
        {
          "indexed": false,
          "internalType": "string",
          "name": "brand",
          "type": "string"
        },
        {
          "indexed": false,
          "internalType": "string",
          "name": "model",
          "type": "string"
        }
      ],
      "name": "LuxuryItemRegistered",
      "type": "event"
    },
    {
      "anonymous": false,
      "inputs": [
        {
          "indexed": true,
          "internalType": "address",
          "name": "previousOwner",
          "type": "address"
        },
        {
          "indexed": true,
          "internalType": "address",
          "name": "newOwner",
          "type": "address"
        }
      ],
      "name": "OwnershipTransferred",
      "type": "event"
    },
    {
      "anonymous": false,
      "inputs": [
        {
          "indexed": true,
          "internalType": "address",
          "name": "from",
          "type": "address"
        },
        {
          "indexed": true,
          "internalType": "address",
          "name": "to",
          "type": "address"
        },
        {
          "indexed": true,
          "internalType": "uint256",
          "name": "tokenId",
          "type": "uint256"
        }
      ],
      "name": "Transfer",
      "type": "event"
    },
    {
      "inputs": [
        {
          "internalType": "address",
          "name": "to",
          "type": "address"
        },
        {
          "internalType": "uint256",
          "name": "tokenId",
          "type": "uint256"
        }
      ],
      "name": "approve",
      "outputs": [],
      "stateMutability": "nonpayable",
      "type": "function"
    },
    {
      "inputs": [
        {
          "internalType": "address",
          "name": "owner",
          "type": "address"
        }
      ],
      "name": "balanceOf",
      "outputs": [
        {
          "internalType": "uint256",
          "name": "",
          "type": "uint256"
        }
      ],
      "stateMutability": "view",
      "type": "function",
      "constant": true
    },
    {
      "inputs": [
        {
          "internalType": "uint256",
          "name": "tokenId",
          "type": "uint256"
        }
      ],
      "name": "getApproved",
      "outputs": [
        {
          "internalType": "address",
          "name": "",
          "type": "address"
        }
      ],
      "stateMutability": "view",
      "type": "function",
      "constant": true
    },
    {
      "inputs": [
        {
          "internalType": "address",
          "name": "owner",
          "type": "address"
        },
        {
          "internalType": "address",
          "name": "operator",
          "type": "address"
        }
      ],
      "name": "isApprovedForAll",
      "outputs": [
        {
          "internalType": "bool",
          "name": "",
          "type": "bool"
        }
      ],
      "stateMutability": "view",
      "type": "function",
      "constant": true
    },
    {
      "inputs": [
        {
          "internalType": "uint256",
          "name": "",
          "type": "uint256"
        }
      ],
      "name": "logisticsInfoMap",
      "outputs": [
        {
          "internalType": "string",
          "name": "shippingDate",
          "type": "string"
        },
        {
          "internalType": "string",
          "name": "carrier",
          "type": "string"
        },
        {
          "internalType": "string",
          "name": "trackingNumber",
          "type": "string"
        },
        {
          "internalType": "string",
          "name": "status",
          "type": "string"
        }
      ],
      "stateMutability": "view",
      "type": "function",
      "constant": true
    },
    {
      "inputs": [
        {
          "internalType": "uint256",
          "name": "",
          "type": "uint256"
        }
      ],
      "name": "luxuryItems",
      "outputs": [
        {
          "internalType": "string",
          "name": "brand",
          "type": "string"
        },
        {
          "internalType": "string",
          "name": "model",
          "type": "string"
        },
        {
          "internalType": "string",
          "name": "manufactureDate",
          "type": "string"
        },
        {
          "internalType": "string",
          "name": "serialNumber",
          "type": "string"
        }
      ],
      "stateMutability": "view",
      "type": "function",
      "constant": true
    },
    {
      "inputs": [],
      "name": "name",
      "outputs": [
        {
          "internalType": "string",
          "name": "",
          "type": "string"
        }
      ],
      "stateMutability": "view",
      "type": "function",
      "constant": true
    },
    {
      "inputs": [],
      "name": "owner",
      "outputs": [
        {
          "internalType": "address",
          "name": "",
          "type": "address"
        }
      ],
      "stateMutability": "view",
      "type": "function",
      "constant": true
    },
    {
      "inputs": [
        {
          "internalType": "uint256",
          "name": "tokenId",
          "type": "uint256"
        }
      ],
      "name": "ownerOf",
      "outputs": [
        {
          "internalType": "address",
          "name": "",
          "type": "address"
        }
      ],
      "stateMutability": "view",
      "type": "function",
      "constant": true
    },
    {
      "inputs": [],
      "name": "renounceOwnership",
      "outputs": [],
      "stateMutability": "nonpayable",
      "type": "function"
    },
    {
      "inputs": [
        {
          "internalType": "address",
          "name": "from",
          "type": "address"
        },
        {
          "internalType": "address",
          "name": "to",
          "type": "address"
        },
        {
          "internalType": "uint256",
          "name": "tokenId",
          "type": "uint256"
        }
      ],
      "name": "safeTransferFrom",
      "outputs": [],
      "stateMutability": "nonpayable",
      "type": "function"
    },
    {
      "inputs": [
        {
          "internalType": "address",
          "name": "from",
          "type": "address"
        },
        {
          "internalType": "address",
          "name": "to",
          "type": "address"
        },
        {
          "internalType": "uint256",
          "name": "tokenId",
          "type": "uint256"
        },
        {
          "internalType": "bytes",
          "name": "data",
          "type": "bytes"
        }
      ],
      "name": "safeTransferFrom",
      "outputs": [],
      "stateMutability": "nonpayable",
      "type": "function"
    },
    {
      "inputs": [
        {
          "internalType": "uint256",
          "name": "",
          "type": "uint256"
        }
      ],
      "name": "salesRecords",
      "outputs": [
        {
          "internalType": "string",
          "name": "saleDate",
          "type": "string"
        },
        {
          "internalType": "string",
          "name": "price",
          "type": "string"
        },
        {
          "internalType": "string",
          "name": "buyer",
          "type": "string"
        }
      ],
      "stateMutability": "view",
      "type": "function",
      "constant": true
    },
    {
      "inputs": [
        {
          "internalType": "address",
          "name": "operator",
          "type": "address"
        },
        {
          "internalType": "bool",
          "name": "approved",
          "type": "bool"
        }
      ],
      "name": "setApprovalForAll",
      "outputs": [],
      "stateMutability": "nonpayable",
      "type": "function"
    },
    {
      "inputs": [
        {
          "internalType": "bytes4",
          "name": "interfaceId",
          "type": "bytes4"
        }
      ],
      "name": "supportsInterface",
      "outputs": [
        {
          "internalType": "bool",
          "name": "",
          "type": "bool"
        }
      ],
      "stateMutability": "view",
      "type": "function",
      "constant": true
    },
    {
      "inputs": [],
      "name": "symbol",
      "outputs": [
        {
          "internalType": "string",
          "name": "",
          "type": "string"
        }
      ],
      "stateMutability": "view",
      "type": "function",
      "constant": true
    },
    {
      "inputs": [
        {
          "internalType": "uint256",
          "name": "tokenId",
          "type": "uint256"
        }
      ],
      "name": "tokenURI",
      "outputs": [
        {
          "internalType": "string",
          "name": "",
          "type": "string"
        }
      ],
      "stateMutability": "view",
      "type": "function",
      "constant": true
    },
    {
      "inputs": [
        {
          "internalType": "address",
          "name": "from",
          "type": "address"
        },
        {
          "internalType": "address",
          "name": "to",
          "type": "address"
        },
        {
          "internalType": "uint256",
          "name": "tokenId",
          "type": "uint256"
        }
      ],
      "name": "transferFrom",
      "outputs": [],
      "stateMutability": "nonpayable",
      "type": "function"
    },
    {
      "inputs": [
        {
          "internalType": "address",
          "name": "newOwner",
          "type": "address"
        }
      ],
      "name": "transferOwnership",
      "outputs": [],
      "stateMutability": "nonpayable",
      "type": "function"
    },
    {
      "inputs": [
        {
          "internalType": "uint256",
          "name": "",
          "type": "uint256"
        }
      ],
      "name": "valuations",
      "outputs": [
        {
          "internalType": "uint256",
          "name": "",
          "type": "uint256"
        }
      ],
      "stateMutability": "view",
      "type": "function",
      "constant": true
    },
    {
      "inputs": [
        {
          "internalType": "string",
          "name": "brand",
          "type": "string"
        },
        {
          "internalType": "string",
          "name": "model",
          "type": "string"
        },
        {
          "internalType": "string",
          "name": "manufactureDate",
          "type": "string"
        },
        {
          "internalType": "string",
          "name": "serialNumber",
          "type": "string"
        }
      ],
      "name": "registerLuxuryItem",
      "outputs": [
        {
          "internalType": "uint256",
          "name": "",
          "type": "uint256"
        }
      ],
      "stateMutability": "nonpayable",
      "type": "function"
    },
    {
      "inputs": [
        {
          "internalType": "uint256",
          "name": "tokenId",
          "type": "uint256"
        },
        {
          "internalType": "string",
          "name": "saleDate",
          "type": "string"
        },
        {
          "internalType": "string",
          "name": "price",
          "type": "string"
        },
        {
          "internalType": "string",
          "name": "buyer",
          "type": "string"
        }
      ],
      "name": "setSalesRecord",
      "outputs": [],
      "stateMutability": "nonpayable",
      "type": "function"
    },
    {
      "inputs": [
        {
          "internalType": "uint256",
          "name": "tokenId",
          "type": "uint256"
        },
        {
          "internalType": "string",
          "name": "shippingDate",
          "type": "string"
        },
        {
          "internalType": "string",
          "name": "carrier",
          "type": "string"
        },
        {
          "internalType": "string",
          "name": "trackingNumber",
          "type": "string"
        },
        {
          "internalType": "string",
          "name": "status",
          "type": "string"
        }
      ],
      "name": "setLogisticsInfo",
      "outputs": [],
      "stateMutability": "nonpayable",
      "type": "function"
    },
    {
      "inputs": [
        {
          "internalType": "uint256",
          "name": "tokenId",
          "type": "uint256"
        },
        {
          "internalType": "uint256",
          "name": "valuation",
          "type": "uint256"
        }
      ],
      "name": "setValuation",
      "outputs": [],
      "stateMutability": "nonpayable",
      "type": "function"
    },
    {
      "inputs": [
        {
          "internalType": "uint256",
          "name": "tokenId",
          "type": "uint256"
        }
      ],
      "name": "getLuxuryItemDetails",
      "outputs": [
        {
          "components": [
            {
              "components": [
                {
                  "internalType": "string",
                  "name": "brand",
                  "type": "string"
                },
                {
                  "internalType": "string",
                  "name": "model",
                  "type": "string"
                },
                {
                  "internalType": "string",
                  "name": "manufactureDate",
                  "type": "string"
                },
                {
                  "internalType": "string",
                  "name": "serialNumber",
                  "type": "string"
                }
              ],
              "internalType": "struct LuxuryGoodsNFT.LuxuryItem",
              "name": "item",
              "type": "tuple"
            },
            {
              "components": [
                {
                  "internalType": "string",
                  "name": "saleDate",
                  "type": "string"
                },
                {
                  "internalType": "string",
                  "name": "price",
                  "type": "string"
                },
                {
                  "internalType": "string",
                  "name": "buyer",
                  "type": "string"
                }
              ],
              "internalType": "struct LuxuryGoodsNFT.SalesRecord",
              "name": "sales",
              "type": "tuple"
            },
            {
              "components": [
                {
                  "internalType": "string",
                  "name": "shippingDate",
                  "type": "string"
                },
                {
                  "internalType": "string",
                  "name": "carrier",
                  "type": "string"
                },
                {
                  "internalType": "string",
                  "name": "trackingNumber",
                  "type": "string"
                },
                {
                  "internalType": "string",
                  "name": "status",
                  "type": "string"
                }
              ],
              "internalType": "struct LuxuryGoodsNFT.LogisticsInfo",
              "name": "logistics",
              "type": "tuple"
            },
            {
              "internalType": "uint256",
              "name": "valuation",
              "type": "uint256"
            }
          ],
          "internalType": "struct LuxuryGoodsNFT.LuxuryItemDetails",
          "name": "",
          "type": "tuple"
        }
      ],
      "stateMutability": "view",
      "type": "function",
      "constant": true
    }
  ],
  "bytecode": "0x60806040523480156200001157600080fd5b50604051620049de380380620049de8339818101604052810190620000379190620003ca565b81818160009080519060200190620000519291906200017d565b5080600190805190602001906200006a9291906200017d565b5050506200008d62000081620000af60201b60201c565b620000b760201b60201c565b82600c9080519060200190620000a59291906200017d565b50505050620004e7565b600033905090565b6000600660009054906101000a900473ffffffffffffffffffffffffffffffffffffffff16905081600660006101000a81548173ffffffffffffffffffffffffffffffffffffffff021916908373ffffffffffffffffffffffffffffffffffffffff1602179055508173ffffffffffffffffffffffffffffffffffffffff168173ffffffffffffffffffffffffffffffffffffffff167f8be0079c531659141344cd1fd0a4f28419497f9722a3daafe3b4186f6b6457e060405160405180910390a35050565b8280546200018b90620004b2565b90600052602060002090601f016020900481019282620001af5760008555620001fb565b82601f10620001ca57805160ff1916838001178555620001fb565b82800160010185558215620001fb579182015b82811115620001fa578251825591602001919060010190620001dd565b5b5090506200020a91906200020e565b5090565b5b80821115620002295760008160009055506001016200020f565b5090565b6000604051905090565b600080fd5b600080fd5b600080fd5b600080fd5b6000601f19601f8301169050919050565b7f4e487b7100000000000000000000000000000000000000000000000000000000600052604160045260246000fd5b62000296826200024b565b810181811067ffffffffffffffff82111715620002b857620002b76200025c565b5b80604052505050565b6000620002cd6200022d565b9050620002db82826200028b565b919050565b600067ffffffffffffffff821115620002fe57620002fd6200025c565b5b62000309826200024b565b9050602081019050919050565b60005b838110156200033657808201518184015260208101905062000319565b8381111562000346576000848401525b50505050565b6000620003636200035d84620002e0565b620002c1565b90508281526020810184848401111562000382576200038162000246565b5b6200038f84828562000316565b509392505050565b600082601f830112620003af57620003ae62000241565b5b8151620003c18482602086016200034c565b91505092915050565b600080600060608486031215620003e657620003e562000237565b5b600084015167ffffffffffffffff8111156200040757620004066200023c565b5b620004158682870162000397565b935050602084015167ffffffffffffffff8111156200043957620004386200023c565b5b620004478682870162000397565b925050604084015167ffffffffffffffff8111156200046b576200046a6200023c565b5b620004798682870162000397565b9150509250925092565b7f4e487b7100000000000000000000000000000000000000000000000000000000600052602260045260246000fd5b60006002820490506001821680620004cb57607f821691505b602082108103620004e157620004e062000483565b5b50919050565b6144e780620004f76000396000f3fe608060405234801561001057600080fd5b50600436106101735760003560e01c806366b95627116100de578063a22cb46511610097578063c87b56dd11610071578063c87b56dd14610474578063de2c66e3146104a4578063e985e9c5146104d4578063f2fde38b1461050457610173565b8063a22cb46514610420578063b33d5b541461043c578063b88d4fde1461045857610173565b806366b95627146103485780636df920751461037a57806370a08231146103aa578063715018a6146103da5780638da5cb5b146103e457806395d89b411461040257610173565b806323b872dd1161013057806323b872dd14610261578063279c396f1461027d5780633349c993146102b057806342842e0e146102cc5780635d03d83e146102e85780636352211e1461031857610173565b806301ffc9a71461017857806306fdde03146101a8578063081812fc146101c6578063095ea7b3146101f657806309e22776146102125780631f1cad5914610245575b600080fd5b610192600480360381019061018d9190612ec5565b610520565b60405161019f9190612f0d565b60405180910390f35b6101b0610602565b6040516101bd9190612fc1565b60405180910390f35b6101e060048036038101906101db9190613019565b610694565b6040516101ed9190613087565b60405180910390f35b610210600480360381019061020b91906130ce565b6106da565b005b61022c60048036038101906102279190613019565b6107f1565b60405161023c949392919061310e565b60405180910390f35b61025f600480360381019061025a91906132a4565b610a41565b005b61027b6004803603810190610276919061335f565b610b47565b005b61029760048036038101906102929190613019565b610ba7565b6040516102a7949392919061310e565b60405180910390f35b6102ca60048036038101906102c591906133b2565b610df7565b005b6102e660048036038101906102e1919061335f565b610f21565b005b61030260048036038101906102fd9190613019565b610f41565b60405161030f91906134ac565b60405180910390f35b610332600480360381019061032d9190613019565b610f59565b60405161033f9190613087565b60405180910390f35b610362600480360381019061035d9190613019565b610fdf565b604051610371939291906134c7565b60405180910390f35b610394600480360381019061038f9190613019565b6111a1565b6040516103a1919061372b565b60405180910390f35b6103c460048036038101906103bf919061374d565b6118c9565b6040516103d191906134ac565b60405180910390f35b6103e2611980565b005b6103ec611994565b6040516103f99190613087565b60405180910390f35b61040a6119be565b6040516104179190612fc1565b60405180910390f35b61043a600480360381019061043591906137a6565b611a50565b005b610456600480360381019061045191906137e6565b611a66565b005b610472600480360381019061046d91906138c7565b611afa565b005b61048e60048036038101906104899190613019565b611b5c565b60405161049b9190612fc1565b60405180910390f35b6104be60048036038101906104b9919061394a565b611bc4565b6040516104cb91906134ac565b60405180910390f35b6104ee60048036038101906104e99190613a21565b611ce0565b6040516104fb9190612f0d565b60405180910390f35b61051e6004803603810190610519919061374d565b611d74565b005b60007f80ac58cd000000000000000000000000000000000000000000000000000000007bffffffffffffffffffffffffffffffffffffffffffffffffffffffff1916827bffffffffffffffffffffffffffffffffffffffffffffffffffffffff191614806105eb57507f5b5e139f000000000000000000000000000000000000000000000000000000007bffffffffffffffffffffffffffffffffffffffffffffffffffffffff1916827bffffffffffffffffffffffffffffffffffffffffffffffffffffffff1916145b806105fb57506105fa82611df7565b5b9050919050565b60606000805461061190613a90565b80601f016020809104026020016040519081016040528092919081815260200182805461063d90613a90565b801561068a5780601f1061065f5761010080835404028352916020019161068a565b820191906000526020600020905b81548152906001019060200180831161066d57829003601f168201915b5050505050905090565b600061069f82611e61565b6004600083815260200190815260200160002060009054906101000a900473ffffffffffffffffffffffffffffffffffffffff169050919050565b60006106e582610f59565b90508073ffffffffffffffffffffffffffffffffffffffff168373ffffffffffffffffffffffffffffffffffffffff1603610755576040517f08c379a000000000000000000000000000000000000000000000000000000000815260040161074c90613b33565b60405180910390fd5b8073ffffffffffffffffffffffffffffffffffffffff16610774611eac565b73ffffffffffffffffffffffffffffffffffffffff1614806107a357506107a28161079d611eac565b611ce0565b5b6107e2576040517f08c379a00000000000000000000000000000000000000000000000000000000081526004016107d990613bc5565b60405180910390fd5b6107ec8383611eb4565b505050565b600a60205280600052604060002060009150905080600001805461081490613a90565b80601f016020809104026020016040519081016040528092919081815260200182805461084090613a90565b801561088d5780601f106108625761010080835404028352916020019161088d565b820191906000526020600020905b81548152906001019060200180831161087057829003601f168201915b5050505050908060010180546108a290613a90565b80601f01602080910402602001604051908101604052809291908181526020018280546108ce90613a90565b801561091b5780601f106108f05761010080835404028352916020019161091b565b820191906000526020600020905b8154815290600101906020018083116108fe57829003601f168201915b50505050509080600201805461093090613a90565b80601f016020809104026020016040519081016040528092919081815260200182805461095c90613a90565b80156109a95780601f1061097e576101008083540402835291602001916109a9565b820191906000526020600020905b81548152906001019060200180831161098c57829003601f168201915b5050505050908060030180546109be90613a90565b80601f01602080910402602001604051908101604052809291908181526020018280546109ea90613a90565b8015610a375780601f10610a0c57610100808354040283529160200191610a37565b820191906000526020600020905b815481529060010190602001808311610a1a57829003601f168201915b5050505050905084565b83610a4b81610f59565b73ffffffffffffffffffffffffffffffffffffffff163373ffffffffffffffffffffffffffffffffffffffff1614610ab8576040517f08c379a0000000000000000000000000000000000000000000000000000000008152600401610aaf90613c57565b60405180910390fd5b604051806060016040528085815260200184815260200183815250600960008781526020019081526020016000206000820151816000019080519060200190610b02929190612d0b565b506020820151816001019080519060200190610b1f929190612d0b565b506040820151816002019080519060200190610b3c929190612d0b565b509050505050505050565b610b58610b52611eac565b82611f6d565b610b97576040517f08c379a0000000000000000000000000000000000000000000000000000000008152600401610b8e90613ce9565b60405180910390fd5b610ba2838383612002565b505050565b6008602052806000526040600020600091509050806000018054610bca90613a90565b80601f0160208091040260200160405190810160405280929190818152602001828054610bf690613a90565b8015610c435780601f10610c1857610100808354040283529160200191610c43565b820191906000526020600020905b815481529060010190602001808311610c2657829003601f168201915b505050505090806001018054610c5890613a90565b80601f0160208091040260200160405190810160405280929190818152602001828054610c8490613a90565b8015610cd15780601f10610ca657610100808354040283529160200191610cd1565b820191906000526020600020905b815481529060010190602001808311610cb457829003601f168201915b505050505090806002018054610ce690613a90565b80601f0160208091040260200160405190810160405280929190818152602001828054610d1290613a90565b8015610d5f5780601f10610d3457610100808354040283529160200191610d5f565b820191906000526020600020905b815481529060010190602001808311610d4257829003601f168201915b505050505090806003018054610d7490613a90565b80601f0160208091040260200160405190810160405280929190818152602001828054610da090613a90565b8015610ded5780601f10610dc257610100808354040283529160200191610ded565b820191906000526020600020905b815481529060010190602001808311610dd057829003601f168201915b5050505050905084565b84610e0181610f59565b73ffffffffffffffffffffffffffffffffffffffff163373ffffffffffffffffffffffffffffffffffffffff1614610e6e576040517f08c379a0000000000000000000000000000000000000000000000000000000008152600401610e6590613c57565b60405180910390fd5b604051806080016040528086815260200185815260200184815260200183815250600a60008881526020019081526020016000206000820151816000019080519060200190610ebe929190612d0b565b506020820151816001019080519060200190610edb929190612d0b565b506040820151816002019080519060200190610ef8929190612d0b565b506060820151816003019080519060200190610f15929190612d0b565b50905050505050505050565b610f3c83838360405180602001604052806000815250611afa565b505050565b600b6020528060005260406000206000915090505481565b600080610f65836122fb565b9050600073ffffffffffffffffffffffffffffffffffffffff168173ffffffffffffffffffffffffffffffffffffffff1603610fd6576040517f08c379a0000000000000000000000000000000000000000000000000000000008152600401610fcd90613d55565b60405180910390fd5b80915050919050565b600960205280600052604060002060009150905080600001805461100290613a90565b80601f016020809104026020016040519081016040528092919081815260200182805461102e90613a90565b801561107b5780601f106110505761010080835404028352916020019161107b565b820191906000526020600020905b81548152906001019060200180831161105e57829003601f168201915b50505050509080600101805461109090613a90565b80601f01602080910402602001604051908101604052809291908181526020018280546110bc90613a90565b80156111095780601f106110de57610100808354040283529160200191611109565b820191906000526020600020905b8154815290600101906020018083116110ec57829003601f168201915b50505050509080600201805461111e90613a90565b80601f016020809104026020016040519081016040528092919081815260200182805461114a90613a90565b80156111975780601f1061116c57610100808354040283529160200191611197565b820191906000526020600020905b81548152906001019060200180831161117a57829003601f168201915b5050505050905083565b6111a9612d91565b6111b282612338565b6111f1576040517f08c379a00000000000000000000000000000000000000000000000000000000081526004016111e890613de7565b60405180910390fd5b60405180608001604052806008600085815260200190815260200160002060405180608001604052908160008201805461122a90613a90565b80601f016020809104026020016040519081016040528092919081815260200182805461125690613a90565b80156112a35780601f10611278576101008083540402835291602001916112a3565b820191906000526020600020905b81548152906001019060200180831161128657829003601f168201915b505050505081526020016001820180546112bc90613a90565b80601f01602080910402602001604051908101604052809291908181526020018280546112e890613a90565b80156113355780601f1061130a57610100808354040283529160200191611335565b820191906000526020600020905b81548152906001019060200180831161131857829003601f168201915b5050505050815260200160028201805461134e90613a90565b80601f016020809104026020016040519081016040528092919081815260200182805461137a90613a90565b80156113c75780601f1061139c576101008083540402835291602001916113c7565b820191906000526020600020905b8154815290600101906020018083116113aa57829003601f168201915b505050505081526020016003820180546113e090613a90565b80601f016020809104026020016040519081016040528092919081815260200182805461140c90613a90565b80156114595780601f1061142e57610100808354040283529160200191611459565b820191906000526020600020905b81548152906001019060200180831161143c57829003601f168201915b50505050508152505081526020016009600085815260200190815260200160002060405180606001604052908160008201805461149590613a90565b80601f01602080910402602001604051908101604052809291908181526020018280546114c190613a90565b801561150e5780601f106114e35761010080835404028352916020019161150e565b820191906000526020600020905b8154815290600101906020018083116114f157829003601f168201915b5050505050815260200160018201805461152790613a90565b80601f016020809104026020016040519081016040528092919081815260200182805461155390613a90565b80156115a05780601f10611575576101008083540402835291602001916115a0565b820191906000526020600020905b81548152906001019060200180831161158357829003601f168201915b505050505081526020016002820180546115b990613a90565b80601f01602080910402602001604051908101604052809291908181526020018280546115e590613a90565b80156116325780601f1061160757610100808354040283529160200191611632565b820191906000526020600020905b81548152906001019060200180831161161557829003601f168201915b5050505050815250508152602001600a600085815260200190815260200160002060405180608001604052908160008201805461166e90613a90565b80601f016020809104026020016040519081016040528092919081815260200182805461169a90613a90565b80156116e75780601f106116bc576101008083540402835291602001916116e7565b820191906000526020600020905b8154815290600101906020018083116116ca57829003601f168201915b5050505050815260200160018201805461170090613a90565b80601f016020809104026020016040519081016040528092919081815260200182805461172c90613a90565b80156117795780601f1061174e57610100808354040283529160200191611779565b820191906000526020600020905b81548152906001019060200180831161175c57829003601f168201915b5050505050815260200160028201805461179290613a90565b80601f01602080910402602001604051908101604052809291908181526020018280546117be90613a90565b801561180b5780601f106117e05761010080835404028352916020019161180b565b820191906000526020600020905b8154815290600101906020018083116117ee57829003601f168201915b5050505050815260200160038201805461182490613a90565b80601f016020809104026020016040519081016040528092919081815260200182805461185090613a90565b801561189d5780601f106118725761010080835404028352916020019161189d565b820191906000526020600020905b81548152906001019060200180831161188057829003601f168201915b5050505050815250508152602001600b6000858152602001908152602001600020548152509050919050565b60008073ffffffffffffffffffffffffffffffffffffffff168273ffffffffffffffffffffffffffffffffffffffff1603611939576040517f08c379a000000000000000000000000000000000000000000000000000000000815260040161193090613e79565b60405180910390fd5b600360008373ffffffffffffffffffffffffffffffffffffffff1673ffffffffffffffffffffffffffffffffffffffff168152602001908152602001600020549050919050565b611988612379565b61199260006123f7565b565b6000600660009054906101000a900473ffffffffffffffffffffffffffffffffffffffff16905090565b6060600180546119cd90613a90565b80601f01602080910402602001604051908101604052809291908181526020018280546119f990613a90565b8015611a465780601f10611a1b57610100808354040283529160200191611a46565b820191906000526020600020905b815481529060010190602001808311611a2957829003601f168201915b5050505050905090565b611a62611a5b611eac565b83836124bd565b5050565b81611a7081610f59565b73ffffffffffffffffffffffffffffffffffffffff163373ffffffffffffffffffffffffffffffffffffffff1614611add576040517f08c379a0000000000000000000000000000000000000000000000000000000008152600401611ad490613c57565b60405180910390fd5b81600b600085815260200190815260200160002081905550505050565b611b0b611b05611eac565b83611f6d565b611b4a576040517f08c379a0000000000000000000000000000000000000000000000000000000008152600401611b4190613ce9565b60405180910390fd5b611b5684848484612629565b50505050565b6060611b6782611e61565b6000611b71612685565b90506000815111611b915760405180602001604052806000815250611bbc565b80611b9b84612717565b604051602001611bac929190613ed5565b6040516020818303038152906040525b915050919050565b600060076000815480929190611bd990613f28565b919050555060006007549050611bef33826127e5565b604051806080016040528087815260200186815260200185815260200184815250600860008381526020019081526020016000206000820151816000019080519060200190611c3f929190612d0b565b506020820151816001019080519060200190611c5c929190612d0b565b506040820151816002019080519060200190611c79929190612d0b565b506060820151816003019080519060200190611c96929190612d0b565b50905050807f94e771fbb23a7590b762961027b7802c3dccf96cc8b207b5d18a3960af46ecfe8787604051611ccc929190613f70565b60405180910390a280915050949350505050565b6000600560008473ffffffffffffffffffffffffffffffffffffffff1673ffffffffffffffffffffffffffffffffffffffff16815260200190815260200160002060008373ffffffffffffffffffffffffffffffffffffffff1673ffffffffffffffffffffffffffffffffffffffff16815260200190815260200160002060009054906101000a900460ff16905092915050565b611d7c612379565b600073ffffffffffffffffffffffffffffffffffffffff168173ffffffffffffffffffffffffffffffffffffffff1603611deb576040517f08c379a0000000000000000000000000000000000000000000000000000000008152600401611de290614019565b60405180910390fd5b611df4816123f7565b50565b60007f01ffc9a7000000000000000000000000000000000000000000000000000000007bffffffffffffffffffffffffffffffffffffffffffffffffffffffff1916827bffffffffffffffffffffffffffffffffffffffffffffffffffffffff1916149050919050565b611e6a81612338565b611ea9576040517f08c379a0000000000000000000000000000000000000000000000000000000008152600401611ea090613d55565b60405180910390fd5b50565b600033905090565b816004600083815260200190815260200160002060006101000a81548173ffffffffffffffffffffffffffffffffffffffff021916908373ffffffffffffffffffffffffffffffffffffffff160217905550808273ffffffffffffffffffffffffffffffffffffffff16611f2783610f59565b73ffffffffffffffffffffffffffffffffffffffff167f8c5be1e5ebec7d5bd14f71427d1e84f3dd0314c0f7b2291e5b200ac8c7c3b92560405160405180910390a45050565b600080611f7983610f59565b90508073ffffffffffffffffffffffffffffffffffffffff168473ffffffffffffffffffffffffffffffffffffffff161480611fbb5750611fba8185611ce0565b5b80611ff957508373ffffffffffffffffffffffffffffffffffffffff16611fe184610694565b73ffffffffffffffffffffffffffffffffffffffff16145b91505092915050565b8273ffffffffffffffffffffffffffffffffffffffff1661202282610f59565b73ffffffffffffffffffffffffffffffffffffffff1614612078576040517f08c379a000000000000000000000000000000000000000000000000000000000815260040161206f906140ab565b60405180910390fd5b600073ffffffffffffffffffffffffffffffffffffffff168273ffffffffffffffffffffffffffffffffffffffff16036120e7576040517f08c379a00000000000000000000000000000000000000000000000000000000081526004016120de9061413d565b60405180910390fd5b6120f48383836001612a02565b8273ffffffffffffffffffffffffffffffffffffffff1661211482610f59565b73ffffffffffffffffffffffffffffffffffffffff161461216a576040517f08c379a0000000000000000000000000000000000000000000000000000000008152600401612161906140ab565b60405180910390fd5b6004600082815260200190815260200160002060006101000a81549073ffffffffffffffffffffffffffffffffffffffff02191690556001600360008573ffffffffffffffffffffffffffffffffffffffff1673ffffffffffffffffffffffffffffffffffffffff168152602001908152602001600020600082825403925050819055506001600360008473ffffffffffffffffffffffffffffffffffffffff1673ffffffffffffffffffffffffffffffffffffffff16815260200190815260200160002060008282540192505081905550816002600083815260200190815260200160002060006101000a81548173ffffffffffffffffffffffffffffffffffffffff021916908373ffffffffffffffffffffffffffffffffffffffff160217905550808273ffffffffffffffffffffffffffffffffffffffff168473ffffffffffffffffffffffffffffffffffffffff167fddf252ad1be2c89b69c2b068fc378daa952ba7f163c4a11628f55a4df523b3ef60405160405180910390a46122f68383836001612a08565b505050565b60006002600083815260200190815260200160002060009054906101000a900473ffffffffffffffffffffffffffffffffffffffff169050919050565b60008073ffffffffffffffffffffffffffffffffffffffff1661235a836122fb565b73ffffffffffffffffffffffffffffffffffffffff1614159050919050565b612381611eac565b73ffffffffffffffffffffffffffffffffffffffff1661239f611994565b73ffffffffffffffffffffffffffffffffffffffff16146123f5576040517f08c379a00000000000000000000000000000000000000000000000000000000081526004016123ec906141a9565b60405180910390fd5b565b6000600660009054906101000a900473ffffffffffffffffffffffffffffffffffffffff16905081600660006101000a81548173ffffffffffffffffffffffffffffffffffffffff021916908373ffffffffffffffffffffffffffffffffffffffff1602179055508173ffffffffffffffffffffffffffffffffffffffff168173ffffffffffffffffffffffffffffffffffffffff167f8be0079c531659141344cd1fd0a4f28419497f9722a3daafe3b4186f6b6457e060405160405180910390a35050565b8173ffffffffffffffffffffffffffffffffffffffff168373ffffffffffffffffffffffffffffffffffffffff160361252b576040517f08c379a000000000000000000000000000000000000000000000000000000000815260040161252290614215565b60405180910390fd5b80600560008573ffffffffffffffffffffffffffffffffffffffff1673ffffffffffffffffffffffffffffffffffffffff16815260200190815260200160002060008473ffffffffffffffffffffffffffffffffffffffff1673ffffffffffffffffffffffffffffffffffffffff16815260200190815260200160002060006101000a81548160ff0219169083151502179055508173ffffffffffffffffffffffffffffffffffffffff168373ffffffffffffffffffffffffffffffffffffffff167f17307eab39ab6107e8899845ad3d59bd9653f200f220920489ca2b5937696c318360405161261c9190612f0d565b60405180910390a3505050565b612634848484612002565b61264084848484612a0e565b61267f576040517f08c379a0000000000000000000000000000000000000000000000000000000008152600401612676906142a7565b60405180910390fd5b50505050565b6060600c805461269490613a90565b80601f01602080910402602001604051908101604052809291908181526020018280546126c090613a90565b801561270d5780601f106126e25761010080835404028352916020019161270d565b820191906000526020600020905b8154815290600101906020018083116126f057829003601f168201915b5050505050905090565b60606000600161272684612b95565b01905060008167ffffffffffffffff81111561274557612744613179565b5b6040519080825280601f01601f1916602001820160405280156127775781602001600182028036833780820191505090505b509050600082602001820190505b6001156127da578080600190039150507f3031323334353637383961626364656600000000000000000000000000000000600a86061a8153600a85816127ce576127cd6142c7565b5b04945060008503612785575b819350505050919050565b600073ffffffffffffffffffffffffffffffffffffffff168273ffffffffffffffffffffffffffffffffffffffff1603612854576040517f08c379a000000000000000000000000000000000000000000000000000000000815260040161284b90614342565b60405180910390fd5b61285d81612338565b1561289d576040517f08c379a0000000000000000000000000000000000000000000000000000000008152600401612894906143ae565b60405180910390fd5b6128ab600083836001612a02565b6128b481612338565b156128f4576040517f08c379a00000000000000000000000000000000000000000000000000000000081526004016128eb906143ae565b60405180910390fd5b6001600360008473ffffffffffffffffffffffffffffffffffffffff1673ffffffffffffffffffffffffffffffffffffffff16815260200190815260200160002060008282540192505081905550816002600083815260200190815260200160002060006101000a81548173ffffffffffffffffffffffffffffffffffffffff021916908373ffffffffffffffffffffffffffffffffffffffff160217905550808273ffffffffffffffffffffffffffffffffffffffff16600073ffffffffffffffffffffffffffffffffffffffff167fddf252ad1be2c89b69c2b068fc378daa952ba7f163c4a11628f55a4df523b3ef60405160405180910390a46129fe600083836001612a08565b5050565b50505050565b50505050565b6000612a2f8473ffffffffffffffffffffffffffffffffffffffff16612ce8565b15612b88578373ffffffffffffffffffffffffffffffffffffffff1663150b7a02612a58611eac565b8786866040518563ffffffff1660e01b8152600401612a7a9493929190614423565b6020604051808303816000875af1925050508015612ab657506040513d601f19601f82011682018060405250810190612ab39190614484565b60015b612b38573d8060008114612ae6576040519150601f19603f3d011682016040523d82523d6000602084013e612aeb565b606091505b506000815103612b30576040517f08c379a0000000000000000000000000000000000000000000000000000000008152600401612b27906142a7565b60405180910390fd5b805181602001fd5b63150b7a0260e01b7bffffffffffffffffffffffffffffffffffffffffffffffffffffffff1916817bffffffffffffffffffffffffffffffffffffffffffffffffffffffff191614915050612b8d565b600190505b949350505050565b600080600090507a184f03e93ff9f4daa797ed6e38ed64bf6a1f0100000000000000008310612bf3577a184f03e93ff9f4daa797ed6e38ed64bf6a1f0100000000000000008381612be957612be86142c7565b5b0492506040810190505b6d04ee2d6d415b85acef81000000008310612c30576d04ee2d6d415b85acef81000000008381612c2657612c256142c7565b5b0492506020810190505b662386f26fc100008310612c5f57662386f26fc100008381612c5557612c546142c7565b5b0492506010810190505b6305f5e1008310612c88576305f5e1008381612c7e57612c7d6142c7565b5b0492506008810190505b6127108310612cad576127108381612ca357612ca26142c7565b5b0492506004810190505b60648310612cd05760648381612cc657612cc56142c7565b5b0492506002810190505b600a8310612cdf576001810190505b80915050919050565b6000808273ffffffffffffffffffffffffffffffffffffffff163b119050919050565b828054612d1790613a90565b90600052602060002090601f016020900481019282612d395760008555612d80565b82601f10612d5257805160ff1916838001178555612d80565b82800160010185558215612d80579182015b82811115612d7f578251825591602001919060010190612d64565b5b509050612d8d9190612dcb565b5090565b6040518060800160405280612da4612de8565b8152602001612db1612e10565b8152602001612dbe612e31565b8152602001600081525090565b5b80821115612de4576000816000905550600101612dcc565b5090565b6040518060800160405280606081526020016060815260200160608152602001606081525090565b60405180606001604052806060815260200160608152602001606081525090565b6040518060800160405280606081526020016060815260200160608152602001606081525090565b6000604051905090565b600080fd5b600080fd5b60007fffffffff0000000000000000000000000000000000000000000000000000000082169050919050565b612ea281612e6d565b8114612ead57600080fd5b50565b600081359050612ebf81612e99565b92915050565b600060208284031215612edb57612eda612e63565b5b6000612ee984828501612eb0565b91505092915050565b60008115159050919050565b612f0781612ef2565b82525050565b6000602082019050612f226000830184612efe565b92915050565b600081519050919050565b600082825260208201905092915050565b60005b83811015612f62578082015181840152602081019050612f47565b83811115612f71576000848401525b50505050565b6000601f19601f8301169050919050565b6000612f9382612f28565b612f9d8185612f33565b9350612fad818560208601612f44565b612fb681612f77565b840191505092915050565b60006020820190508181036000830152612fdb8184612f88565b905092915050565b6000819050919050565b612ff681612fe3565b811461300157600080fd5b50565b60008135905061301381612fed565b92915050565b60006020828403121561302f5761302e612e63565b5b600061303d84828501613004565b91505092915050565b600073ffffffffffffffffffffffffffffffffffffffff82169050919050565b600061307182613046565b9050919050565b61308181613066565b82525050565b600060208201905061309c6000830184613078565b92915050565b6130ab81613066565b81146130b657600080fd5b50565b6000813590506130c8816130a2565b92915050565b600080604083850312156130e5576130e4612e63565b5b60006130f3858286016130b9565b925050602061310485828601613004565b9150509250929050565b600060808201905081810360008301526131288187612f88565b9050818103602083015261313c8186612f88565b905081810360408301526131508185612f88565b905081810360608301526131648184612f88565b905095945050505050565b600080fd5b600080fd5b7f4e487b7100000000000000000000000000000000000000000000000000000000600052604160045260246000fd5b6131b182612f77565b810181811067ffffffffffffffff821117156131d0576131cf613179565b5b80604052505050565b60006131e3612e59565b90506131ef82826131a8565b919050565b600067ffffffffffffffff82111561320f5761320e613179565b5b61321882612f77565b9050602081019050919050565b82818337600083830152505050565b6000613247613242846131f4565b6131d9565b90508281526020810184848401111561326357613262613174565b5b61326e848285613225565b509392505050565b600082601f83011261328b5761328a61316f565b5b813561329b848260208601613234565b91505092915050565b600080600080608085870312156132be576132bd612e63565b5b60006132cc87828801613004565b945050602085013567ffffffffffffffff8111156132ed576132ec612e68565b5b6132f987828801613276565b935050604085013567ffffffffffffffff81111561331a57613319612e68565b5b61332687828801613276565b925050606085013567ffffffffffffffff81111561334757613346612e68565b5b61335387828801613276565b91505092959194509250565b60008060006060848603121561337857613377612e63565b5b6000613386868287016130b9565b9350506020613397868287016130b9565b92505060406133a886828701613004565b9150509250925092565b600080600080600060a086880312156133ce576133cd612e63565b5b60006133dc88828901613004565b955050602086013567ffffffffffffffff8111156133fd576133fc612e68565b5b61340988828901613276565b945050604086013567ffffffffffffffff81111561342a57613429612e68565b5b61343688828901613276565b935050606086013567ffffffffffffffff81111561345757613456612e68565b5b61346388828901613276565b925050608086013567ffffffffffffffff81111561348457613483612e68565b5b61349088828901613276565b9150509295509295909350565b6134a681612fe3565b82525050565b60006020820190506134c1600083018461349d565b92915050565b600060608201905081810360008301526134e18186612f88565b905081810360208301526134f58185612f88565b905081810360408301526135098184612f88565b9050949350505050565b600082825260208201905092915050565b600061352f82612f28565b6135398185613513565b9350613549818560208601612f44565b61355281612f77565b840191505092915050565b6000608083016000830151848203600086015261357a8282613524565b915050602083015184820360208601526135948282613524565b915050604083015184820360408601526135ae8282613524565b915050606083015184820360608601526135c88282613524565b9150508091505092915050565b600060608301600083015184820360008601526135f28282613524565b9150506020830151848203602086015261360c8282613524565b915050604083015184820360408601526136268282613524565b9150508091505092915050565b600060808301600083015184820360008601526136508282613524565b9150506020830151848203602086015261366a8282613524565b915050604083015184820360408601526136848282613524565b9150506060830151848203606086015261369e8282613524565b9150508091505092915050565b6136b481612fe3565b82525050565b600060808301600083015184820360008601526136d7828261355d565b915050602083015184820360208601526136f182826135d5565b9150506040830151848203604086015261370b8282613633565b915050606083015161372060608601826136ab565b508091505092915050565b6000602082019050818103600083015261374581846136ba565b905092915050565b60006020828403121561376357613762612e63565b5b6000613771848285016130b9565b91505092915050565b61378381612ef2565b811461378e57600080fd5b50565b6000813590506137a08161377a565b92915050565b600080604083850312156137bd576137bc612e63565b5b60006137cb858286016130b9565b92505060206137dc85828601613791565b9150509250929050565b600080604083850312156137fd576137fc612e63565b5b600061380b85828601613004565b925050602061381c85828601613004565b9150509250929050565b600067ffffffffffffffff82111561384157613840613179565b5b61384a82612f77565b9050602081019050919050565b600061386a61386584613826565b6131d9565b90508281526020810184848401111561388657613885613174565b5b613891848285613225565b509392505050565b600082601f8301126138ae576138ad61316f565b5b81356138be848260208601613857565b91505092915050565b600080600080608085870312156138e1576138e0612e63565b5b60006138ef878288016130b9565b9450506020613900878288016130b9565b935050604061391187828801613004565b925050606085013567ffffffffffffffff81111561393257613931612e68565b5b61393e87828801613899565b91505092959194509250565b6000806000806080858703121561396457613963612e63565b5b600085013567ffffffffffffffff81111561398257613981612e68565b5b61398e87828801613276565b945050602085013567ffffffffffffffff8111156139af576139ae612e68565b5b6139bb87828801613276565b935050604085013567ffffffffffffffff8111156139dc576139db612e68565b5b6139e887828801613276565b925050606085013567ffffffffffffffff811115613a0957613a08612e68565b5b613a1587828801613276565b91505092959194509250565b60008060408385031215613a3857613a37612e63565b5b6000613a46858286016130b9565b9250506020613a57858286016130b9565b9150509250929050565b7f4e487b7100000000000000000000000000000000000000000000000000000000600052602260045260246000fd5b60006002820490506001821680613aa857607f821691505b602082108103613abb57613aba613a61565b5b50919050565b7f4552433732313a20617070726f76616c20746f2063757272656e74206f776e6560008201527f7200000000000000000000000000000000000000000000000000000000000000602082015250565b6000613b1d602183612f33565b9150613b2882613ac1565b604082019050919050565b60006020820190508181036000830152613b4c81613b10565b9050919050565b7f4552433732313a20617070726f76652063616c6c6572206973206e6f7420746f60008201527f6b656e206f776e6572206f7220617070726f76656420666f7220616c6c000000602082015250565b6000613baf603d83612f33565b9150613bba82613b53565b604082019050919050565b60006020820190508181036000830152613bde81613ba2565b9050919050565b7f43616c6c6572206973206e6f7420746865206f776e6572206f6620746865204e60008201527f4654000000000000000000000000000000000000000000000000000000000000602082015250565b6000613c41602283612f33565b9150613c4c82613be5565b604082019050919050565b60006020820190508181036000830152613c7081613c34565b9050919050565b7f4552433732313a2063616c6c6572206973206e6f7420746f6b656e206f776e6560008201527f72206f7220617070726f76656400000000000000000000000000000000000000602082015250565b6000613cd3602d83612f33565b9150613cde82613c77565b604082019050919050565b60006020820190508181036000830152613d0281613cc6565b9050919050565b7f4552433732313a20696e76616c696420746f6b656e2049440000000000000000600082015250565b6000613d3f601883612f33565b9150613d4a82613d09565b602082019050919050565b60006020820190508181036000830152613d6e81613d32565b9050919050565b7f4c7578757279476f6f64734e46543a20717565727920666f72206e6f6e65786960008201527f7374656e7420746f6b656e000000000000000000000000000000000000000000602082015250565b6000613dd1602b83612f33565b9150613ddc82613d75565b604082019050919050565b60006020820190508181036000830152613e0081613dc4565b9050919050565b7f4552433732313a2061646472657373207a65726f206973206e6f74206120766160008201527f6c6964206f776e65720000000000000000000000000000000000000000000000602082015250565b6000613e63602983612f33565b9150613e6e82613e07565b604082019050919050565b60006020820190508181036000830152613e9281613e56565b9050919050565b600081905092915050565b6000613eaf82612f28565b613eb98185613e99565b9350613ec9818560208601612f44565b80840191505092915050565b6000613ee18285613ea4565b9150613eed8284613ea4565b91508190509392505050565b7f4e487b7100000000000000000000000000000000000000000000000000000000600052601160045260246000fd5b6000613f3382612fe3565b91507fffffffffffffffffffffffffffffffffffffffffffffffffffffffffffffffff8203613f6557613f64613ef9565b5b600182019050919050565b60006040820190508181036000830152613f8a8185612f88565b90508181036020830152613f9e8184612f88565b90509392505050565b7f4f776e61626c653a206e6577206f776e657220697320746865207a65726f206160008201527f6464726573730000000000000000000000000000000000000000000000000000602082015250565b6000614003602683612f33565b915061400e82613fa7565b604082019050919050565b6000602082019050818103600083015261403281613ff6565b9050919050565b7f4552433732313a207472616e736665722066726f6d20696e636f72726563742060008201527f6f776e6572000000000000000000000000000000000000000000000000000000602082015250565b6000614095602583612f33565b91506140a082614039565b604082019050919050565b600060208201905081810360008301526140c481614088565b9050919050565b7f4552433732313a207472616e7366657220746f20746865207a65726f2061646460008201527f7265737300000000000000000000000000000000000000000000000000000000602082015250565b6000614127602483612f33565b9150614132826140cb565b604082019050919050565b600060208201905081810360008301526141568161411a565b9050919050565b7f4f776e61626c653a2063616c6c6572206973206e6f7420746865206f776e6572600082015250565b6000614193602083612f33565b915061419e8261415d565b602082019050919050565b600060208201905081810360008301526141c281614186565b9050919050565b7f4552433732313a20617070726f766520746f2063616c6c657200000000000000600082015250565b60006141ff601983612f33565b915061420a826141c9565b602082019050919050565b6000602082019050818103600083015261422e816141f2565b9050919050565b7f4552433732313a207472616e7366657220746f206e6f6e20455243373231526560008201527f63656976657220696d706c656d656e7465720000000000000000000000000000602082015250565b6000614291603283612f33565b915061429c82614235565b604082019050919050565b600060208201905081810360008301526142c081614284565b9050919050565b7f4e487b7100000000000000000000000000000000000000000000000000000000600052601260045260246000fd5b7f4552433732313a206d696e7420746f20746865207a65726f2061646472657373600082015250565b600061432c602083612f33565b9150614337826142f6565b602082019050919050565b6000602082019050818103600083015261435b8161431f565b9050919050565b7f4552433732313a20746f6b656e20616c7265616479206d696e74656400000000600082015250565b6000614398601c83612f33565b91506143a382614362565b602082019050919050565b600060208201905081810360008301526143c78161438b565b9050919050565b600081519050919050565b600082825260208201905092915050565b60006143f5826143ce565b6143ff81856143d9565b935061440f818560208601612f44565b61441881612f77565b840191505092915050565b60006080820190506144386000830187613078565b6144456020830186613078565b614452604083018561349d565b818103606083015261446481846143ea565b905095945050505050565b60008151905061447e81612e99565b92915050565b60006020828403121561449a57614499612e63565b5b60006144a88482850161446f565b9150509291505056fea2646970667358221220445e1aef4180ef736f178cbeda0cc589db36c2e6c8dc69e738c2ba36636c93da64736f6c634300080d0033",
  "immutableReferences": {},
  "source": "// SPDX-License-Identifier: MIT\r\npragma solidity ^0.8.13;\r\n\r\nimport \"@openzeppelin/contracts/token/ERC721/ERC721.sol\";\r\nimport \"@openzeppelin/contracts/access/Ownable.sol\";\r\n\r\ncontract LuxuryGoodsNFT is ERC721, Ownable {\r\n    uint256 private _tokenIds;\r\n\r\n    // \r\n    struct LuxuryItem {\r\n        string brand;\r\n        string model;\r\n        string manufactureDate;\r\n        string serialNumber;\r\n    }\r\n\r\n    // \r\n    struct SalesRecord {\r\n        string saleDate;\r\n        string price;\r\n        string buyer;\r\n    }\r\n\r\n    // \r\n    struct LogisticsInfo {\r\n        string shippingDate;\r\n        string carrier;\r\n        string trackingNumber;\r\n        string status;\r\n    }\r\n\r\n    // \r\n    struct LuxuryItemDetails {\r\n        LuxuryItem item;\r\n        SalesRecord sales;\r\n        LogisticsInfo logistics;\r\n        uint256 valuation;\r\n    }\r\n\r\n    // tokenId\r\n    mapping(uint256 => LuxuryItem) public luxuryItems;\r\n\r\n    // tokenId\r\n    mapping(uint256 => SalesRecord) public salesRecords;\r\n\r\n    // tokenId\r\n    mapping(uint256 => LogisticsInfo) public logisticsInfoMap;\r\n\r\n    // tokenId\r\n    mapping(uint256 => uint256) public valuations;\r\n\r\n    string private _baseURIextended;\r\n\r\n    constructor(string memory baseURI, string memory name, string memory symbol) ERC721(name, symbol) {\r\n        _baseURIextended = baseURI;\r\n    }\r\n\r\n    function _baseURI() internal view override returns (string memory) {\r\n        return _baseURIextended;\r\n    }\r\n event LuxuryItemRegistered(uint256 indexed tokenId, string brand, string model);\r\n\r\n    // NFT\r\n    function registerLuxuryItem(string memory brand, string memory model, string memory manufactureDate, string memory serialNumber) public returns (uint256) {\r\n        _tokenIds++;\r\n        uint256 newItemId = _tokenIds;\r\n        _mint(msg.sender, newItemId);\r\n        luxuryItems[newItemId] = LuxuryItem(brand, model, manufactureDate, serialNumber);\r\n       emit LuxuryItemRegistered(newItemId, brand, model);\r\n        return newItemId;\r\n    }\r\n\r\n    // NFT\r\n    modifier onlyNFTOwner(uint256 tokenId) {\r\n        require(msg.sender == ownerOf(tokenId), \"Caller is not the owner of the NFT\");\r\n        _;\r\n    }\r\n\r\n    // \r\n    function setSalesRecord(uint256 tokenId, string memory  saleDate, string memory  price, string memory buyer) public onlyNFTOwner(tokenId) {\r\n        salesRecords[tokenId] = SalesRecord(saleDate, price, buyer);\r\n    }\r\n\r\n    // \r\n    function setLogisticsInfo(uint256 tokenId, string memory shippingDate, string memory carrier, string memory trackingNumber, string memory status) public onlyNFTOwner(tokenId) {\r\n        logisticsInfoMap[tokenId] = LogisticsInfo(shippingDate, carrier, trackingNumber, status);\r\n    }\r\n\r\n    // \r\n    function setValuation(uint256 tokenId, uint256 valuation) public onlyNFTOwner(tokenId) {\r\n        valuations[tokenId] = valuation;\r\n    }\r\n\r\n    // \r\n    function getLuxuryItemDetails(uint256 tokenId) public view returns (LuxuryItemDetails memory) {\r\n        require(_exists(tokenId), \"LuxuryGoodsNFT: query for nonexistent token\");\r\n        return LuxuryItemDetails(\r\n            luxuryItems[tokenId],\r\n            salesRecords[tokenId],\r\n            logisticsInfoMap[tokenId],\r\n            valuations[tokenId]\r\n        );\r\n    }\r\n}\r\n",
  "sourcePath": "E:\\\\ddn\\contracts\\LuxuryItemTracking.sol",
  "compiler": {
    "name": "solc",
    "version": "0.8.13+commit.abaa5c0e.Emscripten.clang"
  },
  "schemaVersion": "3.4.16",
  "updatedAt": "2024-04-12T16:16:37.335Z",
  "networkType": "ethereum",
  "devdoc": {
    "kind": "dev",
    "methods": {
      "approve(address,uint256)": {
        "details": "See {IERC721-approve}."
      },
      "balanceOf(address)": {
        "details": "See {IERC721-balanceOf}."
      },
      "getApproved(uint256)": {
        "details": "See {IERC721-getApproved}."
      },
      "isApprovedForAll(address,address)": {
        "details": "See {IERC721-isApprovedForAll}."
      },
      "name()": {
        "details": "See {IERC721Metadata-name}."
      },
      "owner()": {
        "details": "Returns the address of the current owner."
      },
      "ownerOf(uint256)": {
        "details": "See {IERC721-ownerOf}."
      },
      "renounceOwnership()": {
        "details": "Leaves the contract without owner. It will not be possible to call `onlyOwner` functions. Can only be called by the current owner. NOTE: Renouncing ownership will leave the contract without an owner, thereby disabling any functionality that is only available to the owner."
      },
      "safeTransferFrom(address,address,uint256)": {
        "details": "See {IERC721-safeTransferFrom}."
      },
      "safeTransferFrom(address,address,uint256,bytes)": {
        "details": "See {IERC721-safeTransferFrom}."
      },
      "setApprovalForAll(address,bool)": {
        "details": "See {IERC721-setApprovalForAll}."
      },
      "supportsInterface(bytes4)": {
        "details": "See {IERC165-supportsInterface}."
      },
      "symbol()": {
        "details": "See {IERC721Metadata-symbol}."
      },
      "tokenURI(uint256)": {
        "details": "See {IERC721Metadata-tokenURI}."
      },
      "transferFrom(address,address,uint256)": {
        "details": "See {IERC721-transferFrom}."
      },
      "transferOwnership(address)": {
        "details": "Transfers ownership of the contract to a new account (`newOwner`). Can only be called by the current owner."
      }
    },
    "version": 1
  },
  "userdoc": {
    "kind": "user",
    "methods": {},
    "version": 1
  }
}