{
  "contractName": "LuxuryItemTracking",
  "abi": [
    {
      "inputs": [
        {
          "internalType": "string",
          "name": "_baseURI",
          "type": "string"
        },
        {
          "internalType": "string",
          "name": "name",
          "type": "string"
        },
        {
          "internalType": "string",
          "name": "symbol",
          "type": "string"
        }
      ],
      "stateMutability": "nonpayable",
      "type": "constructor"
    },
    {
      "anonymous": false,
      "inputs": [
        {
          "indexed": true,
          "internalType": "address",
          "name": "owner",
          "type": "address"
        },
        {
          "indexed": true,
          "internalType": "address",
          "name": "approved",
          "type": "address"
        },
        {
          "indexed": true,
          "internalType": "uint256",
          "name": "tokenId",
          "type": "uint256"
        }
      ],
      "name": "Approval",
      "type": "event"
    },
    {
      "anonymous": false,
      "inputs": [
        {
          "indexed": true,
          "internalType": "address",
          "name": "owner",
          "type": "address"
        },
        {
          "indexed": true,
          "internalType": "address",
          "name": "operator",
          "type": "address"
        },
        {
          "indexed": false,
          "internalType": "bool",
          "name": "approved",
          "type": "bool"
        }
      ],
      "name": "ApprovalForAll",
      "type": "event"
    },
    {
      "anonymous": false,
      "inputs": [
        {
          "indexed": true,
          "internalType": "uint256",
          "name": "serialNumber",
          "type": "uint256"
        },
        {
          "indexed": false,
          "internalType": "string",
          "name": "certification",
          "type": "string"
        }
      ],
      "name": "CertificationSet",
      "type": "event"
    },
    {
      "anonymous": false,
      "inputs": [
        {
          "indexed": true,
          "internalType": "uint256",
          "name": "serialNumber",
          "type": "uint256"
        },
        {
          "indexed": false,
          "internalType": "bool",
          "name": "isCertified",
          "type": "bool"
        }
      ],
      "name": "LuxuryItemCertificationUpdated",
      "type": "event"
    },
    {
      "anonymous": false,
      "inputs": [
        {
          "indexed": true,
          "internalType": "uint256",
          "name": "serialNumber",
          "type": "uint256"
        },
        {
          "indexed": false,
          "internalType": "uint256",
          "name": "valuation",
          "type": "uint256"
        }
      ],
      "name": "LuxuryItemValuationUpdated",
      "type": "event"
    },
    {
      "anonymous": false,
      "inputs": [
        {
          "indexed": true,
          "internalType": "address",
          "name": "previousOwner",
          "type": "address"
        },
        {
          "indexed": true,
          "internalType": "address",
          "name": "newOwner",
          "type": "address"
        }
      ],
      "name": "OwnershipTransferred",
      "type": "event"
    },
    {
      "anonymous": false,
      "inputs": [
        {
          "indexed": true,
          "internalType": "address",
          "name": "from",
          "type": "address"
        },
        {
          "indexed": true,
          "internalType": "address",
          "name": "to",
          "type": "address"
        },
        {
          "indexed": true,
          "internalType": "uint256",
          "name": "tokenId",
          "type": "uint256"
        }
      ],
      "name": "Transfer",
      "type": "event"
    },
    {
      "anonymous": false,
      "inputs": [
        {
          "indexed": true,
          "internalType": "uint256",
          "name": "serialNumber",
          "type": "uint256"
        },
        {
          "indexed": false,
          "internalType": "uint256",
          "name": "valuation",
          "type": "uint256"
        }
      ],
      "name": "ValuationSet",
      "type": "event"
    },
    {
      "inputs": [],
      "name": "MAX_SUPPLY",
      "outputs": [
        {
          "internalType": "uint256",
          "name": "",
          "type": "uint256"
        }
      ],
      "stateMutability": "view",
      "type": "function",
      "constant": true
    },
    {
      "inputs": [],
      "name": "PRICE",
      "outputs": [
        {
          "internalType": "uint256",
          "name": "",
          "type": "uint256"
        }
      ],
      "stateMutability": "view",
      "type": "function",
      "constant": true
    },
    {
      "inputs": [
        {
          "internalType": "address",
          "name": "to",
          "type": "address"
        },
        {
          "internalType": "uint256",
          "name": "tokenId",
          "type": "uint256"
        }
      ],
      "name": "approve",
      "outputs": [],
      "stateMutability": "nonpayable",
      "type": "function"
    },
    {
      "inputs": [
        {
          "internalType": "address",
          "name": "owner",
          "type": "address"
        }
      ],
      "name": "balanceOf",
      "outputs": [
        {
          "internalType": "uint256",
          "name": "",
          "type": "uint256"
        }
      ],
      "stateMutability": "view",
      "type": "function",
      "constant": true
    },
    {
      "inputs": [],
      "name": "baseURI",
      "outputs": [
        {
          "internalType": "string",
          "name": "",
          "type": "string"
        }
      ],
      "stateMutability": "view",
      "type": "function",
      "constant": true
    },
    {
      "inputs": [
        {
          "internalType": "uint256",
          "name": "tokenId",
          "type": "uint256"
        }
      ],
      "name": "getApproved",
      "outputs": [
        {
          "internalType": "address",
          "name": "",
          "type": "address"
        }
      ],
      "stateMutability": "view",
      "type": "function",
      "constant": true
    },
    {
      "inputs": [
        {
          "internalType": "address",
          "name": "owner",
          "type": "address"
        },
        {
          "internalType": "address",
          "name": "operator",
          "type": "address"
        }
      ],
      "name": "isApprovedForAll",
      "outputs": [
        {
          "internalType": "bool",
          "name": "",
          "type": "bool"
        }
      ],
      "stateMutability": "view",
      "type": "function",
      "constant": true
    },
    {
      "inputs": [],
      "name": "name",
      "outputs": [
        {
          "internalType": "string",
          "name": "",
          "type": "string"
        }
      ],
      "stateMutability": "view",
      "type": "function",
      "constant": true
    },
    {
      "inputs": [],
      "name": "owner",
      "outputs": [
        {
          "internalType": "address",
          "name": "",
          "type": "address"
        }
      ],
      "stateMutability": "view",
      "type": "function",
      "constant": true
    },
    {
      "inputs": [
        {
          "internalType": "uint256",
          "name": "tokenId",
          "type": "uint256"
        }
      ],
      "name": "ownerOf",
      "outputs": [
        {
          "internalType": "address",
          "name": "",
          "type": "address"
        }
      ],
      "stateMutability": "view",
      "type": "function",
      "constant": true
    },
    {
      "inputs": [],
      "name": "renounceOwnership",
      "outputs": [],
      "stateMutability": "nonpayable",
      "type": "function"
    },
    {
      "inputs": [
        {
          "internalType": "address",
          "name": "from",
          "type": "address"
        },
        {
          "internalType": "address",
          "name": "to",
          "type": "address"
        },
        {
          "internalType": "uint256",
          "name": "tokenId",
          "type": "uint256"
        }
      ],
      "name": "safeTransferFrom",
      "outputs": [],
      "stateMutability": "nonpayable",
      "type": "function"
    },
    {
      "inputs": [
        {
          "internalType": "address",
          "name": "from",
          "type": "address"
        },
        {
          "internalType": "address",
          "name": "to",
          "type": "address"
        },
        {
          "internalType": "uint256",
          "name": "tokenId",
          "type": "uint256"
        },
        {
          "internalType": "bytes",
          "name": "data",
          "type": "bytes"
        }
      ],
      "name": "safeTransferFrom",
      "outputs": [],
      "stateMutability": "nonpayable",
      "type": "function"
    },
    {
      "inputs": [
        {
          "internalType": "address",
          "name": "operator",
          "type": "address"
        },
        {
          "internalType": "bool",
          "name": "approved",
          "type": "bool"
        }
      ],
      "name": "setApprovalForAll",
      "outputs": [],
      "stateMutability": "nonpayable",
      "type": "function"
    },
    {
      "inputs": [
        {
          "internalType": "bytes4",
          "name": "interfaceId",
          "type": "bytes4"
        }
      ],
      "name": "supportsInterface",
      "outputs": [
        {
          "internalType": "bool",
          "name": "",
          "type": "bool"
        }
      ],
      "stateMutability": "view",
      "type": "function",
      "constant": true
    },
    {
      "inputs": [],
      "name": "symbol",
      "outputs": [
        {
          "internalType": "string",
          "name": "",
          "type": "string"
        }
      ],
      "stateMutability": "view",
      "type": "function",
      "constant": true
    },
    {
      "inputs": [
        {
          "internalType": "uint256",
          "name": "index",
          "type": "uint256"
        }
      ],
      "name": "tokenByIndex",
      "outputs": [
        {
          "internalType": "uint256",
          "name": "",
          "type": "uint256"
        }
      ],
      "stateMutability": "view",
      "type": "function",
      "constant": true
    },
    {
      "inputs": [
        {
          "internalType": "address",
          "name": "owner",
          "type": "address"
        },
        {
          "internalType": "uint256",
          "name": "index",
          "type": "uint256"
        }
      ],
      "name": "tokenOfOwnerByIndex",
      "outputs": [
        {
          "internalType": "uint256",
          "name": "",
          "type": "uint256"
        }
      ],
      "stateMutability": "view",
      "type": "function",
      "constant": true
    },
    {
      "inputs": [
        {
          "internalType": "uint256",
          "name": "tokenId",
          "type": "uint256"
        }
      ],
      "name": "tokenURI",
      "outputs": [
        {
          "internalType": "string",
          "name": "",
          "type": "string"
        }
      ],
      "stateMutability": "view",
      "type": "function",
      "constant": true
    },
    {
      "inputs": [],
      "name": "totalSupply",
      "outputs": [
        {
          "internalType": "uint256",
          "name": "",
          "type": "uint256"
        }
      ],
      "stateMutability": "view",
      "type": "function",
      "constant": true
    },
    {
      "inputs": [
        {
          "internalType": "address",
          "name": "from",
          "type": "address"
        },
        {
          "internalType": "address",
          "name": "to",
          "type": "address"
        },
        {
          "internalType": "uint256",
          "name": "tokenId",
          "type": "uint256"
        }
      ],
      "name": "transferFrom",
      "outputs": [],
      "stateMutability": "nonpayable",
      "type": "function"
    },
    {
      "inputs": [
        {
          "internalType": "address",
          "name": "newOwner",
          "type": "address"
        }
      ],
      "name": "transferOwnership",
      "outputs": [],
      "stateMutability": "nonpayable",
      "type": "function"
    },
    {
      "inputs": [
        {
          "internalType": "string",
          "name": "_baseURI",
          "type": "string"
        }
      ],
      "name": "setBaseURI",
      "outputs": [],
      "stateMutability": "nonpayable",
      "type": "function"
    },
    {
      "inputs": [
        {
          "internalType": "string",
          "name": "name",
          "type": "string"
        },
        {
          "internalType": "uint256",
          "name": "serialNumber",
          "type": "uint256"
        },
        {
          "internalType": "uint256",
          "name": "productionDate",
          "type": "uint256"
        }
      ],
      "name": "mintNFT",
      "outputs": [],
      "stateMutability": "payable",
      "type": "function",
      "payable": true
    },
    {
      "inputs": [
        {
          "internalType": "uint256",
          "name": "serialNumber",
          "type": "uint256"
        },
        {
          "internalType": "string",
          "name": "logisticsInfo",
          "type": "string"
        }
      ],
      "name": "updateLogisticsInfo",
      "outputs": [],
      "stateMutability": "nonpayable",
      "type": "function"
    },
    {
      "inputs": [
        {
          "internalType": "uint256",
          "name": "serialNumber",
          "type": "uint256"
        },
        {
          "internalType": "string",
          "name": "salesRecord",
          "type": "string"
        }
      ],
      "name": "updateSalesRecord",
      "outputs": [],
      "stateMutability": "nonpayable",
      "type": "function"
    },
    {
      "inputs": [
        {
          "internalType": "uint256",
          "name": "serialNumber",
          "type": "uint256"
        },
        {
          "internalType": "bool",
          "name": "isCertified",
          "type": "bool"
        }
      ],
      "name": "certifyUser",
      "outputs": [],
      "stateMutability": "nonpayable",
      "type": "function"
    },
    {
      "inputs": [
        {
          "internalType": "uint256",
          "name": "serialNumber",
          "type": "uint256"
        }
      ],
      "name": "getItemDetails",
      "outputs": [
        {
          "internalType": "string",
          "name": "name",
          "type": "string"
        },
        {
          "internalType": "address",
          "name": "manufacturer",
          "type": "address"
        },
        {
          "internalType": "uint256",
          "name": "productionDate",
          "type": "uint256"
        },
        {
          "internalType": "string",
          "name": "logisticsInfo",
          "type": "string"
        },
        {
          "internalType": "string",
          "name": "salesRecord",
          "type": "string"
        }
      ],
      "stateMutability": "view",
      "type": "function",
      "constant": true
    },
    {
      "inputs": [
        {
          "internalType": "uint256",
          "name": "serialNumber",
          "type": "uint256"
        },
        {
          "internalType": "string",
          "name": "certification",
          "type": "string"
        }
      ],
      "name": "setLuxuryItemCertification",
      "outputs": [],
      "stateMutability": "nonpayable",
      "type": "function"
    },
    {
      "inputs": [
        {
          "internalType": "uint256",
          "name": "serialNumber",
          "type": "uint256"
        }
      ],
      "name": "isCertifiedUser",
      "outputs": [
        {
          "internalType": "bool",
          "name": "",
          "type": "bool"
        }
      ],
      "stateMutability": "view",
      "type": "function",
      "constant": true
    }
  ],
  "bytecode": "0x60806040523480156200001157600080fd5b50604051620047f1380380620047f18339818101604052810190620000379190620003ca565b81818160009080519060200190620000519291906200017d565b5080600190805190602001906200006a9291906200017d565b5050506200008d62000081620000af60201b60201c565b620000b760201b60201c565b82600e9080519060200190620000a59291906200017d565b50505050620004e7565b600033905090565b6000600a60009054906101000a900473ffffffffffffffffffffffffffffffffffffffff16905081600a60006101000a81548173ffffffffffffffffffffffffffffffffffffffff021916908373ffffffffffffffffffffffffffffffffffffffff1602179055508173ffffffffffffffffffffffffffffffffffffffff168173ffffffffffffffffffffffffffffffffffffffff167f8be0079c531659141344cd1fd0a4f28419497f9722a3daafe3b4186f6b6457e060405160405180910390a35050565b8280546200018b90620004b2565b90600052602060002090601f016020900481019282620001af5760008555620001fb565b82601f10620001ca57805160ff1916838001178555620001fb565b82800160010185558215620001fb579182015b82811115620001fa578251825591602001919060010190620001dd565b5b5090506200020a91906200020e565b5090565b5b80821115620002295760008160009055506001016200020f565b5090565b6000604051905090565b600080fd5b600080fd5b600080fd5b600080fd5b6000601f19601f8301169050919050565b7f4e487b7100000000000000000000000000000000000000000000000000000000600052604160045260246000fd5b62000296826200024b565b810181811067ffffffffffffffff82111715620002b857620002b76200025c565b5b80604052505050565b6000620002cd6200022d565b9050620002db82826200028b565b919050565b600067ffffffffffffffff821115620002fe57620002fd6200025c565b5b62000309826200024b565b9050602081019050919050565b60005b838110156200033657808201518184015260208101905062000319565b8381111562000346576000848401525b50505050565b6000620003636200035d84620002e0565b620002c1565b90508281526020810184848401111562000382576200038162000246565b5b6200038f84828562000316565b509392505050565b600082601f830112620003af57620003ae62000241565b5b8151620003c18482602086016200034c565b91505092915050565b600080600060608486031215620003e657620003e562000237565b5b600084015167ffffffffffffffff8111156200040757620004066200023c565b5b620004158682870162000397565b935050602084015167ffffffffffffffff8111156200043957620004386200023c565b5b620004478682870162000397565b925050604084015167ffffffffffffffff8111156200046b576200046a6200023c565b5b620004798682870162000397565b9150509250925092565b7f4e487b7100000000000000000000000000000000000000000000000000000000600052602260045260246000fd5b60006002820490506001821680620004cb57607f821691505b602082108103620004e157620004e062000483565b5b50919050565b6142fa80620004f76000396000f3fe6080604052600436106101cd5760003560e01c806370a08231116100f7578063977922d211610095578063b88d4fde11610064578063b88d4fde1461068f578063c87b56dd146106b8578063e985e9c5146106f5578063f2fde38b14610732576101cd565b8063977922d2146105e4578063a22cb46514610600578063a8b83a3d14610629578063b0a5430d14610666576101cd565b806389cf0217116100d157806389cf02171461053a5780638d859f3e146105635780638da5cb5b1461058e57806395d89b41146105b9576101cd565b806370a08231146104a5578063715018a6146104e257806373004ca0146104f9576101cd565b80632d58e6ce1161016f5780634f6ccce71161013e5780634f6ccce7146103d757806355f804b3146104145780636352211e1461043d5780636c0360eb1461047a576101cd565b80632d58e6ce1461031d5780632f745c591461034657806332cb6b0c1461038357806342842e0e146103ae576101cd565b8063095ea7b3116101ab578063095ea7b31461027757806318160ddd146102a05780631869b206146102cb57806323b872dd146102f4576101cd565b806301ffc9a7146101d257806306fdde031461020f578063081812fc1461023a575b600080fd5b3480156101de57600080fd5b506101f960048036038101906101f49190612dd9565b61075b565b6040516102069190612e21565b60405180910390f35b34801561021b57600080fd5b506102246107d5565b6040516102319190612ed5565b60405180910390f35b34801561024657600080fd5b50610261600480360381019061025c9190612f2d565b610867565b60405161026e9190612f9b565b60405180910390f35b34801561028357600080fd5b5061029e60048036038101906102999190612fe2565b6108ad565b005b3480156102ac57600080fd5b506102b56109c4565b6040516102c29190613031565b60405180910390f35b3480156102d757600080fd5b506102f260048036038101906102ed9190613078565b6109d1565b005b34801561030057600080fd5b5061031b600480360381019061031691906130b8565b610b27565b005b34801561032957600080fd5b50610344600480360381019061033f9190613240565b610b87565b005b34801561035257600080fd5b5061036d60048036038101906103689190612fe2565b610c06565b60405161037a9190613031565b60405180910390f35b34801561038f57600080fd5b50610398610cab565b6040516103a59190613031565b60405180910390f35b3480156103ba57600080fd5b506103d560048036038101906103d091906130b8565b610cb0565b005b3480156103e357600080fd5b506103fe60048036038101906103f99190612f2d565b610cd0565b60405161040b9190613031565b60405180910390f35b34801561042057600080fd5b5061043b6004803603810190610436919061329c565b610d41565b005b34801561044957600080fd5b50610464600480360381019061045f9190612f2d565b610d63565b6040516104719190612f9b565b60405180910390f35b34801561048657600080fd5b5061048f610de9565b60405161049c9190612ed5565b60405180910390f35b3480156104b157600080fd5b506104cc60048036038101906104c791906132e5565b610e77565b6040516104d99190613031565b60405180910390f35b3480156104ee57600080fd5b506104f7610f2e565b005b34801561050557600080fd5b50610520600480360381019061051b9190612f2d565b610f42565b604051610531959493929190613312565b60405180910390f35b34801561054657600080fd5b50610561600480360381019061055c9190613240565b611197565b005b34801561056f57600080fd5b5061057861124e565b6040516105859190613031565b60405180910390f35b34801561059a57600080fd5b506105a3611258565b6040516105b09190612f9b565b60405180910390f35b3480156105c557600080fd5b506105ce611282565b6040516105db9190612ed5565b60405180910390f35b6105fe60048036038101906105f9919061337a565b611314565b005b34801561060c57600080fd5b50610627600480360381019061062291906133e9565b61157a565b005b34801561063557600080fd5b50610650600480360381019061064b9190612f2d565b611590565b60405161065d9190612e21565b60405180910390f35b34801561067257600080fd5b5061068d60048036038101906106889190613240565b611605565b005b34801561069b57600080fd5b506106b660048036038101906106b191906134ca565b611684565b005b3480156106c457600080fd5b506106df60048036038101906106da9190612f2d565b6116e6565b6040516106ec9190612ed5565b60405180910390f35b34801561070157600080fd5b5061071c6004803603810190610717919061354d565b61174e565b6040516107299190612e21565b60405180910390f35b34801561073e57600080fd5b50610759600480360381019061075491906132e5565b6117e2565b005b60007f780e9d63000000000000000000000000000000000000000000000000000000007bffffffffffffffffffffffffffffffffffffffffffffffffffffffff1916827bffffffffffffffffffffffffffffffffffffffffffffffffffffffff191614806107ce57506107cd82611865565b5b9050919050565b6060600080546107e4906135bc565b80601f0160208091040260200160405190810160405280929190818152602001828054610810906135bc565b801561085d5780601f106108325761010080835404028352916020019161085d565b820191906000526020600020905b81548152906001019060200180831161084057829003601f168201915b5050505050905090565b600061087282611947565b6004600083815260200190815260200160002060009054906101000a900473ffffffffffffffffffffffffffffffffffffffff169050919050565b60006108b882610d63565b90508073ffffffffffffffffffffffffffffffffffffffff168373ffffffffffffffffffffffffffffffffffffffff1603610928576040517f08c379a000000000000000000000000000000000000000000000000000000000815260040161091f9061365f565b60405180910390fd5b8073ffffffffffffffffffffffffffffffffffffffff16610947611992565b73ffffffffffffffffffffffffffffffffffffffff161480610976575061097581610970611992565b61174e565b5b6109b5576040517f08c379a00000000000000000000000000000000000000000000000000000000081526004016109ac906136f1565b60405180910390fd5b6109bf838361199a565b505050565b6000600880549050905090565b6109da82611a53565b610a19576040517f08c379a0000000000000000000000000000000000000000000000000000000008152600401610a109061375d565b60405180910390fd5b3373ffffffffffffffffffffffffffffffffffffffff16600c600084815260200190815260200160002060020160009054906101000a900473ffffffffffffffffffffffffffffffffffffffff1673ffffffffffffffffffffffffffffffffffffffff1614610abd576040517f08c379a0000000000000000000000000000000000000000000000000000000008152600401610ab4906137ef565b60405180910390fd5b80600c600084815260200190815260200160002060060160006101000a81548160ff021916908315150217905550817f22bc4ea421fbd5b6f95757c180adaa8cb0f11ab8a1075d66995663e82711c91682604051610b1b9190612e21565b60405180910390a25050565b610b38610b32611992565b82611a7d565b610b77576040517f08c379a0000000000000000000000000000000000000000000000000000000008152600401610b6e90613881565b60405180910390fd5b610b82838383611b12565b505050565b610b8f611e0b565b610b9882611a53565b610bd7576040517f08c379a0000000000000000000000000000000000000000000000000000000008152600401610bce9061375d565b60405180910390fd5b80600c60008481526020019081526020016000206005019080519060200190610c01929190612cca565b505050565b6000610c1183610e77565b8210610c52576040517f08c379a0000000000000000000000000000000000000000000000000000000008152600401610c4990613913565b60405180910390fd5b600660008473ffffffffffffffffffffffffffffffffffffffff1673ffffffffffffffffffffffffffffffffffffffff168152602001908152602001600020600083815260200190815260200160002054905092915050565b600a81565b610ccb83838360405180602001604052806000815250611684565b505050565b6000610cda6109c4565b8210610d1b576040517f08c379a0000000000000000000000000000000000000000000000000000000008152600401610d12906139a5565b60405180910390fd5b60088281548110610d2f57610d2e6139c5565b5b90600052602060002001549050919050565b610d49611e0b565b80600e9080519060200190610d5f929190612cca565b5050565b600080610d6f83611e89565b9050600073ffffffffffffffffffffffffffffffffffffffff168173ffffffffffffffffffffffffffffffffffffffff1603610de0576040517f08c379a0000000000000000000000000000000000000000000000000000000008152600401610dd790613a40565b60405180910390fd5b80915050919050565b600e8054610df6906135bc565b80601f0160208091040260200160405190810160405280929190818152602001828054610e22906135bc565b8015610e6f5780601f10610e4457610100808354040283529160200191610e6f565b820191906000526020600020905b815481529060010190602001808311610e5257829003601f168201915b505050505081565b60008073ffffffffffffffffffffffffffffffffffffffff168273ffffffffffffffffffffffffffffffffffffffff1603610ee7576040517f08c379a0000000000000000000000000000000000000000000000000000000008152600401610ede90613ad2565b60405180910390fd5b600360008373ffffffffffffffffffffffffffffffffffffffff1673ffffffffffffffffffffffffffffffffffffffff168152602001908152602001600020549050919050565b610f36611e0b565b610f406000611ec6565b565b6060600080606080610f5386611a53565b610f92576040517f08c379a0000000000000000000000000000000000000000000000000000000008152600401610f899061375d565b60405180910390fd5b6000600c60008881526020019081526020016000209050806000018160020160009054906101000a900473ffffffffffffffffffffffffffffffffffffffff1682600301548360040184600501848054610feb906135bc565b80601f0160208091040260200160405190810160405280929190818152602001828054611017906135bc565b80156110645780601f1061103957610100808354040283529160200191611064565b820191906000526020600020905b81548152906001019060200180831161104757829003601f168201915b50505050509450818054611077906135bc565b80601f01602080910402602001604051908101604052809291908181526020018280546110a3906135bc565b80156110f05780601f106110c5576101008083540402835291602001916110f0565b820191906000526020600020905b8154815290600101906020018083116110d357829003601f168201915b50505050509150808054611103906135bc565b80601f016020809104026020016040519081016040528092919081815260200182805461112f906135bc565b801561117c5780601f106111515761010080835404028352916020019161117c565b820191906000526020600020905b81548152906001019060200180831161115f57829003601f168201915b50505050509050955095509550955095505091939590929450565b61119f611e0b565b6111a882611a53565b6111e7576040517f08c379a00000000000000000000000000000000000000000000000000000000081526004016111de9061375d565b60405180910390fd5b80600c60008481526020019081526020016000206008019080519060200190611211929190612cca565b50817fed2482489691c0116dbce5a79d91599d001f8e029676b3759720dab25fba7b2d826040516112429190612ed5565b60405180910390a25050565b6509184e72a00081565b6000600a60009054906101000a900473ffffffffffffffffffffffffffffffffffffffff16905090565b606060018054611291906135bc565b80601f01602080910402602001604051908101604052809291908181526020018280546112bd906135bc565b801561130a5780601f106112df5761010080835404028352916020019161130a565b820191906000526020600020905b8154815290600101906020018083116112ed57829003601f168201915b5050505050905090565b600a611320600b611f8c565b10611360576040517f08c379a000000000000000000000000000000000000000000000000000000000815260040161135790613b3e565b60405180910390fd5b6509184e72a0003410156113a9576040517f08c379a00000000000000000000000000000000000000000000000000000000081526004016113a090613baa565b60405180910390fd5b600d600083815260200190815260200160002060009054906101000a900460ff161561140a576040517f08c379a000000000000000000000000000000000000000000000000000000000815260040161140190613c16565b60405180910390fd5b611414600b611f9a565b6000611420600b611f8c565b90506000600c6000858152602001908152602001600020905084816000019080519060200190611451929190612cca565b50338160020160006101000a81548173ffffffffffffffffffffffffffffffffffffffff021916908373ffffffffffffffffffffffffffffffffffffffff160217905550828160030181905550604051806020016040528060008152508160040190805190602001906114c5929190612cca565b50604051806020016040528060008152508160050190805190602001906114ed929190612cca565b5060008160060160006101000a81548160ff021916908315150217905550600081600701819055506040518060200160405280600081525081600801908051906020019061153c929190612cca565b506001600d600086815260200190815260200160002060006101000a81548160ff0219169083151502179055506115733383611fb0565b5050505050565b61158c611585611992565b8383611fce565b5050565b600061159b82611a53565b6115da576040517f08c379a00000000000000000000000000000000000000000000000000000000081526004016115d19061375d565b60405180910390fd5b600c600083815260200190815260200160002060060160009054906101000a900460ff169050919050565b61160d611e0b565b61161682611a53565b611655576040517f08c379a000000000000000000000000000000000000000000000000000000000815260040161164c9061375d565b60405180910390fd5b80600c6000848152602001908152602001600020600401908051906020019061167f929190612cca565b505050565b61169561168f611992565b83611a7d565b6116d4576040517f08c379a00000000000000000000000000000000000000000000000000000000081526004016116cb90613881565b60405180910390fd5b6116e08484848461213a565b50505050565b60606116f182611947565b60006116fb612196565b9050600081511161171b5760405180602001604052806000815250611746565b80611725846121ad565b604051602001611736929190613c72565b6040516020818303038152906040525b915050919050565b6000600560008473ffffffffffffffffffffffffffffffffffffffff1673ffffffffffffffffffffffffffffffffffffffff16815260200190815260200160002060008373ffffffffffffffffffffffffffffffffffffffff1673ffffffffffffffffffffffffffffffffffffffff16815260200190815260200160002060009054906101000a900460ff16905092915050565b6117ea611e0b565b600073ffffffffffffffffffffffffffffffffffffffff168173ffffffffffffffffffffffffffffffffffffffff1603611859576040517f08c379a000000000000000000000000000000000000000000000000000000000815260040161185090613d08565b60405180910390fd5b61186281611ec6565b50565b60007f80ac58cd000000000000000000000000000000000000000000000000000000007bffffffffffffffffffffffffffffffffffffffffffffffffffffffff1916827bffffffffffffffffffffffffffffffffffffffffffffffffffffffff1916148061193057507f5b5e139f000000000000000000000000000000000000000000000000000000007bffffffffffffffffffffffffffffffffffffffffffffffffffffffff1916827bffffffffffffffffffffffffffffffffffffffffffffffffffffffff1916145b80611940575061193f8261227b565b5b9050919050565b61195081611a53565b61198f576040517f08c379a000000000000000000000000000000000000000000000000000000000815260040161198690613a40565b60405180910390fd5b50565b600033905090565b816004600083815260200190815260200160002060006101000a81548173ffffffffffffffffffffffffffffffffffffffff021916908373ffffffffffffffffffffffffffffffffffffffff160217905550808273ffffffffffffffffffffffffffffffffffffffff16611a0d83610d63565b73ffffffffffffffffffffffffffffffffffffffff167f8c5be1e5ebec7d5bd14f71427d1e84f3dd0314c0f7b2291e5b200ac8c7c3b92560405160405180910390a45050565b6000600d600083815260200190815260200160002060009054906101000a900460ff169050919050565b600080611a8983610d63565b90508073ffffffffffffffffffffffffffffffffffffffff168473ffffffffffffffffffffffffffffffffffffffff161480611acb5750611aca818561174e565b5b80611b0957508373ffffffffffffffffffffffffffffffffffffffff16611af184610867565b73ffffffffffffffffffffffffffffffffffffffff16145b91505092915050565b8273ffffffffffffffffffffffffffffffffffffffff16611b3282610d63565b73ffffffffffffffffffffffffffffffffffffffff1614611b88576040517f08c379a0000000000000000000000000000000000000000000000000000000008152600401611b7f90613d9a565b60405180910390fd5b600073ffffffffffffffffffffffffffffffffffffffff168273ffffffffffffffffffffffffffffffffffffffff1603611bf7576040517f08c379a0000000000000000000000000000000000000000000000000000000008152600401611bee90613e2c565b60405180910390fd5b611c0483838360016122e5565b8273ffffffffffffffffffffffffffffffffffffffff16611c2482610d63565b73ffffffffffffffffffffffffffffffffffffffff1614611c7a576040517f08c379a0000000000000000000000000000000000000000000000000000000008152600401611c7190613d9a565b60405180910390fd5b6004600082815260200190815260200160002060006101000a81549073ffffffffffffffffffffffffffffffffffffffff02191690556001600360008573ffffffffffffffffffffffffffffffffffffffff1673ffffffffffffffffffffffffffffffffffffffff168152602001908152602001600020600082825403925050819055506001600360008473ffffffffffffffffffffffffffffffffffffffff1673ffffffffffffffffffffffffffffffffffffffff16815260200190815260200160002060008282540192505081905550816002600083815260200190815260200160002060006101000a81548173ffffffffffffffffffffffffffffffffffffffff021916908373ffffffffffffffffffffffffffffffffffffffff160217905550808273ffffffffffffffffffffffffffffffffffffffff168473ffffffffffffffffffffffffffffffffffffffff167fddf252ad1be2c89b69c2b068fc378daa952ba7f163c4a11628f55a4df523b3ef60405160405180910390a4611e068383836001612443565b505050565b611e13611992565b73ffffffffffffffffffffffffffffffffffffffff16611e31611258565b73ffffffffffffffffffffffffffffffffffffffff1614611e87576040517f08c379a0000000000000000000000000000000000000000000000000000000008152600401611e7e90613e98565b60405180910390fd5b565b60006002600083815260200190815260200160002060009054906101000a900473ffffffffffffffffffffffffffffffffffffffff169050919050565b6000600a60009054906101000a900473ffffffffffffffffffffffffffffffffffffffff16905081600a60006101000a81548173ffffffffffffffffffffffffffffffffffffffff021916908373ffffffffffffffffffffffffffffffffffffffff1602179055508173ffffffffffffffffffffffffffffffffffffffff168173ffffffffffffffffffffffffffffffffffffffff167f8be0079c531659141344cd1fd0a4f28419497f9722a3daafe3b4186f6b6457e060405160405180910390a35050565b600081600001549050919050565b6001816000016000828254019250508190555050565b611fca828260405180602001604052806000815250612449565b5050565b8173ffffffffffffffffffffffffffffffffffffffff168373ffffffffffffffffffffffffffffffffffffffff160361203c576040517f08c379a000000000000000000000000000000000000000000000000000000000815260040161203390613f04565b60405180910390fd5b80600560008573ffffffffffffffffffffffffffffffffffffffff1673ffffffffffffffffffffffffffffffffffffffff16815260200190815260200160002060008473ffffffffffffffffffffffffffffffffffffffff1673ffffffffffffffffffffffffffffffffffffffff16815260200190815260200160002060006101000a81548160ff0219169083151502179055508173ffffffffffffffffffffffffffffffffffffffff168373ffffffffffffffffffffffffffffffffffffffff167f17307eab39ab6107e8899845ad3d59bd9653f200f220920489ca2b5937696c318360405161212d9190612e21565b60405180910390a3505050565b612145848484611b12565b612151848484846124a4565b612190576040517f08c379a000000000000000000000000000000000000000000000000000000000815260040161218790613f96565b60405180910390fd5b50505050565b606060405180602001604052806000815250905090565b6060600060016121bc8461262b565b01905060008167ffffffffffffffff8111156121db576121da613115565b5b6040519080825280601f01601f19166020018201604052801561220d5781602001600182028036833780820191505090505b509050600082602001820190505b600115612270578080600190039150507f3031323334353637383961626364656600000000000000000000000000000000600a86061a8153600a858161226457612263613fb6565b5b0494506000850361221b575b819350505050919050565b60007f01ffc9a7000000000000000000000000000000000000000000000000000000007bffffffffffffffffffffffffffffffffffffffffffffffffffffffff1916827bffffffffffffffffffffffffffffffffffffffffffffffffffffffff1916149050919050565b6122f18484848461277e565b6001811115612335576040517f08c379a000000000000000000000000000000000000000000000000000000000815260040161232c90614057565b60405180910390fd5b6000829050600073ffffffffffffffffffffffffffffffffffffffff168573ffffffffffffffffffffffffffffffffffffffff160361237c5761237781612784565b6123bb565b8373ffffffffffffffffffffffffffffffffffffffff168573ffffffffffffffffffffffffffffffffffffffff16146123ba576123b985826127cd565b5b5b600073ffffffffffffffffffffffffffffffffffffffff168473ffffffffffffffffffffffffffffffffffffffff16036123fd576123f88161293a565b61243c565b8473ffffffffffffffffffffffffffffffffffffffff168473ffffffffffffffffffffffffffffffffffffffff161461243b5761243a8482612a0b565b5b5b5050505050565b50505050565b6124538383612a8a565b61246060008484846124a4565b61249f576040517f08c379a000000000000000000000000000000000000000000000000000000000815260040161249690613f96565b60405180910390fd5b505050565b60006124c58473ffffffffffffffffffffffffffffffffffffffff16612ca7565b1561261e578373ffffffffffffffffffffffffffffffffffffffff1663150b7a026124ee611992565b8786866040518563ffffffff1660e01b815260040161251094939291906140cc565b6020604051808303816000875af192505050801561254c57506040513d601f19601f82011682018060405250810190612549919061412d565b60015b6125ce573d806000811461257c576040519150601f19603f3d011682016040523d82523d6000602084013e612581565b606091505b5060008151036125c6576040517f08c379a00000000000000000000000000000000000000000000000000000000081526004016125bd90613f96565b60405180910390fd5b805181602001fd5b63150b7a0260e01b7bffffffffffffffffffffffffffffffffffffffffffffffffffffffff1916817bffffffffffffffffffffffffffffffffffffffffffffffffffffffff191614915050612623565b600190505b949350505050565b600080600090507a184f03e93ff9f4daa797ed6e38ed64bf6a1f0100000000000000008310612689577a184f03e93ff9f4daa797ed6e38ed64bf6a1f010000000000000000838161267f5761267e613fb6565b5b0492506040810190505b6d04ee2d6d415b85acef810000000083106126c6576d04ee2d6d415b85acef810000000083816126bc576126bb613fb6565b5b0492506020810190505b662386f26fc1000083106126f557662386f26fc1000083816126eb576126ea613fb6565b5b0492506010810190505b6305f5e100831061271e576305f5e100838161271457612713613fb6565b5b0492506008810190505b612710831061274357612710838161273957612738613fb6565b5b0492506004810190505b60648310612766576064838161275c5761275b613fb6565b5b0492506002810190505b600a8310612775576001810190505b80915050919050565b50505050565b6008805490506009600083815260200190815260200160002081905550600881908060018154018082558091505060019003906000526020600020016000909190919091505550565b600060016127da84610e77565b6127e49190614189565b90506000600760008481526020019081526020016000205490508181146128c9576000600660008673ffffffffffffffffffffffffffffffffffffffff1673ffffffffffffffffffffffffffffffffffffffff168152602001908152602001600020600084815260200190815260200160002054905080600660008773ffffffffffffffffffffffffffffffffffffffff1673ffffffffffffffffffffffffffffffffffffffff168152602001908152602001600020600084815260200190815260200160002081905550816007600083815260200190815260200160002081905550505b6007600084815260200190815260200160002060009055600660008573ffffffffffffffffffffffffffffffffffffffff1673ffffffffffffffffffffffffffffffffffffffff16815260200190815260200160002060008381526020019081526020016000206000905550505050565b6000600160088054905061294e9190614189565b905060006009600084815260200190815260200160002054905060006008838154811061297e5761297d6139c5565b5b9060005260206000200154905080600883815481106129a05761299f6139c5565b5b9060005260206000200181905550816009600083815260200190815260200160002081905550600960008581526020019081526020016000206000905560088054806129ef576129ee6141bd565b5b6001900381819060005260206000200160009055905550505050565b6000612a1683610e77565b905081600660008573ffffffffffffffffffffffffffffffffffffffff1673ffffffffffffffffffffffffffffffffffffffff168152602001908152602001600020600083815260200190815260200160002081905550806007600084815260200190815260200160002081905550505050565b600073ffffffffffffffffffffffffffffffffffffffff168273ffffffffffffffffffffffffffffffffffffffff1603612af9576040517f08c379a0000000000000000000000000000000000000000000000000000000008152600401612af090614238565b60405180910390fd5b612b0281611a53565b15612b42576040517f08c379a0000000000000000000000000000000000000000000000000000000008152600401612b39906142a4565b60405180910390fd5b612b506000838360016122e5565b612b5981611a53565b15612b99576040517f08c379a0000000000000000000000000000000000000000000000000000000008152600401612b90906142a4565b60405180910390fd5b6001600360008473ffffffffffffffffffffffffffffffffffffffff1673ffffffffffffffffffffffffffffffffffffffff16815260200190815260200160002060008282540192505081905550816002600083815260200190815260200160002060006101000a81548173ffffffffffffffffffffffffffffffffffffffff021916908373ffffffffffffffffffffffffffffffffffffffff160217905550808273ffffffffffffffffffffffffffffffffffffffff16600073ffffffffffffffffffffffffffffffffffffffff167fddf252ad1be2c89b69c2b068fc378daa952ba7f163c4a11628f55a4df523b3ef60405160405180910390a4612ca3600083836001612443565b5050565b6000808273ffffffffffffffffffffffffffffffffffffffff163b119050919050565b828054612cd6906135bc565b90600052602060002090601f016020900481019282612cf85760008555612d3f565b82601f10612d1157805160ff1916838001178555612d3f565b82800160010185558215612d3f579182015b82811115612d3e578251825591602001919060010190612d23565b5b509050612d4c9190612d50565b5090565b5b80821115612d69576000816000905550600101612d51565b5090565b6000604051905090565b600080fd5b600080fd5b60007fffffffff0000000000000000000000000000000000000000000000000000000082169050919050565b612db681612d81565b8114612dc157600080fd5b50565b600081359050612dd381612dad565b92915050565b600060208284031215612def57612dee612d77565b5b6000612dfd84828501612dc4565b91505092915050565b60008115159050919050565b612e1b81612e06565b82525050565b6000602082019050612e366000830184612e12565b92915050565b600081519050919050565b600082825260208201905092915050565b60005b83811015612e76578082015181840152602081019050612e5b565b83811115612e85576000848401525b50505050565b6000601f19601f8301169050919050565b6000612ea782612e3c565b612eb18185612e47565b9350612ec1818560208601612e58565b612eca81612e8b565b840191505092915050565b60006020820190508181036000830152612eef8184612e9c565b905092915050565b6000819050919050565b612f0a81612ef7565b8114612f1557600080fd5b50565b600081359050612f2781612f01565b92915050565b600060208284031215612f4357612f42612d77565b5b6000612f5184828501612f18565b91505092915050565b600073ffffffffffffffffffffffffffffffffffffffff82169050919050565b6000612f8582612f5a565b9050919050565b612f9581612f7a565b82525050565b6000602082019050612fb06000830184612f8c565b92915050565b612fbf81612f7a565b8114612fca57600080fd5b50565b600081359050612fdc81612fb6565b92915050565b60008060408385031215612ff957612ff8612d77565b5b600061300785828601612fcd565b925050602061301885828601612f18565b9150509250929050565b61302b81612ef7565b82525050565b60006020820190506130466000830184613022565b92915050565b61305581612e06565b811461306057600080fd5b50565b6000813590506130728161304c565b92915050565b6000806040838503121561308f5761308e612d77565b5b600061309d85828601612f18565b92505060206130ae85828601613063565b9150509250929050565b6000806000606084860312156130d1576130d0612d77565b5b60006130df86828701612fcd565b93505060206130f086828701612fcd565b925050604061310186828701612f18565b9150509250925092565b600080fd5b600080fd5b7f4e487b7100000000000000000000000000000000000000000000000000000000600052604160045260246000fd5b61314d82612e8b565b810181811067ffffffffffffffff8211171561316c5761316b613115565b5b80604052505050565b600061317f612d6d565b905061318b8282613144565b919050565b600067ffffffffffffffff8211156131ab576131aa613115565b5b6131b482612e8b565b9050602081019050919050565b82818337600083830152505050565b60006131e36131de84613190565b613175565b9050828152602081018484840111156131ff576131fe613110565b5b61320a8482856131c1565b509392505050565b600082601f8301126132275761322661310b565b5b81356132378482602086016131d0565b91505092915050565b6000806040838503121561325757613256612d77565b5b600061326585828601612f18565b925050602083013567ffffffffffffffff81111561328657613285612d7c565b5b61329285828601613212565b9150509250929050565b6000602082840312156132b2576132b1612d77565b5b600082013567ffffffffffffffff8111156132d0576132cf612d7c565b5b6132dc84828501613212565b91505092915050565b6000602082840312156132fb576132fa612d77565b5b600061330984828501612fcd565b91505092915050565b600060a082019050818103600083015261332c8188612e9c565b905061333b6020830187612f8c565b6133486040830186613022565b818103606083015261335a8185612e9c565b9050818103608083015261336e8184612e9c565b90509695505050505050565b60008060006060848603121561339357613392612d77565b5b600084013567ffffffffffffffff8111156133b1576133b0612d7c565b5b6133bd86828701613212565b93505060206133ce86828701612f18565b92505060406133df86828701612f18565b9150509250925092565b60008060408385031215613400576133ff612d77565b5b600061340e85828601612fcd565b925050602061341f85828601613063565b9150509250929050565b600067ffffffffffffffff82111561344457613443613115565b5b61344d82612e8b565b9050602081019050919050565b600061346d61346884613429565b613175565b90508281526020810184848401111561348957613488613110565b5b6134948482856131c1565b509392505050565b600082601f8301126134b1576134b061310b565b5b81356134c184826020860161345a565b91505092915050565b600080600080608085870312156134e4576134e3612d77565b5b60006134f287828801612fcd565b945050602061350387828801612fcd565b935050604061351487828801612f18565b925050606085013567ffffffffffffffff81111561353557613534612d7c565b5b6135418782880161349c565b91505092959194509250565b6000806040838503121561356457613563612d77565b5b600061357285828601612fcd565b925050602061358385828601612fcd565b9150509250929050565b7f4e487b7100000000000000000000000000000000000000000000000000000000600052602260045260246000fd5b600060028204905060018216806135d457607f821691505b6020821081036135e7576135e661358d565b5b50919050565b7f4552433732313a20617070726f76616c20746f2063757272656e74206f776e6560008201527f7200000000000000000000000000000000000000000000000000000000000000602082015250565b6000613649602183612e47565b9150613654826135ed565b604082019050919050565b600060208201905081810360008301526136788161363c565b9050919050565b7f4552433732313a20617070726f76652063616c6c6572206973206e6f7420746f60008201527f6b656e206f776e6572206f7220617070726f76656420666f7220616c6c000000602082015250565b60006136db603d83612e47565b91506136e68261367f565b604082019050919050565b6000602082019050818103600083015261370a816136ce565b9050919050565b7f4974656d20646f6573206e6f7420657869737400000000000000000000000000600082015250565b6000613747601383612e47565b915061375282613711565b602082019050919050565b600060208201905081810360008301526137768161373a565b9050919050565b7f4f6e6c79206d616e7566616374757265722063616e206365727469667920757360008201527f6572730000000000000000000000000000000000000000000000000000000000602082015250565b60006137d9602383612e47565b91506137e48261377d565b604082019050919050565b60006020820190508181036000830152613808816137cc565b9050919050565b7f4552433732313a2063616c6c6572206973206e6f7420746f6b656e206f776e6560008201527f72206f7220617070726f76656400000000000000000000000000000000000000602082015250565b600061386b602d83612e47565b91506138768261380f565b604082019050919050565b6000602082019050818103600083015261389a8161385e565b9050919050565b7f455243373231456e756d657261626c653a206f776e657220696e646578206f7560008201527f74206f6620626f756e6473000000000000000000000000000000000000000000602082015250565b60006138fd602b83612e47565b9150613908826138a1565b604082019050919050565b6000602082019050818103600083015261392c816138f0565b9050919050565b7f455243373231456e756d657261626c653a20676c6f62616c20696e646578206f60008201527f7574206f6620626f756e64730000000000000000000000000000000000000000602082015250565b600061398f602c83612e47565b915061399a82613933565b604082019050919050565b600060208201905081810360008301526139be81613982565b9050919050565b7f4e487b7100000000000000000000000000000000000000000000000000000000600052603260045260246000fd5b7f4552433732313a20696e76616c696420746f6b656e2049440000000000000000600082015250565b6000613a2a601883612e47565b9150613a35826139f4565b602082019050919050565b60006020820190508181036000830152613a5981613a1d565b9050919050565b7f4552433732313a2061646472657373207a65726f206973206e6f74206120766160008201527f6c6964206f776e65720000000000000000000000000000000000000000000000602082015250565b6000613abc602983612e47565b9150613ac782613a60565b604082019050919050565b60006020820190508181036000830152613aeb81613aaf565b9050919050565b7f436f6c6c656374696f6e20697320736f6c64206f757421000000000000000000600082015250565b6000613b28601783612e47565b9150613b3382613af2565b602082019050919050565b60006020820190508181036000830152613b5781613b1b565b9050919050565b7f4e6f7420656e6f7567682065746865722073656e742e00000000000000000000600082015250565b6000613b94601683612e47565b9150613b9f82613b5e565b602082019050919050565b60006020820190508181036000830152613bc381613b87565b9050919050565b7f53657269616c206e756d62657220616c72656164792075736564000000000000600082015250565b6000613c00601a83612e47565b9150613c0b82613bca565b602082019050919050565b60006020820190508181036000830152613c2f81613bf3565b9050919050565b600081905092915050565b6000613c4c82612e3c565b613c568185613c36565b9350613c66818560208601612e58565b80840191505092915050565b6000613c7e8285613c41565b9150613c8a8284613c41565b91508190509392505050565b7f4f776e61626c653a206e6577206f776e657220697320746865207a65726f206160008201527f6464726573730000000000000000000000000000000000000000000000000000602082015250565b6000613cf2602683612e47565b9150613cfd82613c96565b604082019050919050565b60006020820190508181036000830152613d2181613ce5565b9050919050565b7f4552433732313a207472616e736665722066726f6d20696e636f72726563742060008201527f6f776e6572000000000000000000000000000000000000000000000000000000602082015250565b6000613d84602583612e47565b9150613d8f82613d28565b604082019050919050565b60006020820190508181036000830152613db381613d77565b9050919050565b7f4552433732313a207472616e7366657220746f20746865207a65726f2061646460008201527f7265737300000000000000000000000000000000000000000000000000000000602082015250565b6000613e16602483612e47565b9150613e2182613dba565b604082019050919050565b60006020820190508181036000830152613e4581613e09565b9050919050565b7f4f776e61626c653a2063616c6c6572206973206e6f7420746865206f776e6572600082015250565b6000613e82602083612e47565b9150613e8d82613e4c565b602082019050919050565b60006020820190508181036000830152613eb181613e75565b9050919050565b7f4552433732313a20617070726f766520746f2063616c6c657200000000000000600082015250565b6000613eee601983612e47565b9150613ef982613eb8565b602082019050919050565b60006020820190508181036000830152613f1d81613ee1565b9050919050565b7f4552433732313a207472616e7366657220746f206e6f6e20455243373231526560008201527f63656976657220696d706c656d656e7465720000000000000000000000000000602082015250565b6000613f80603283612e47565b9150613f8b82613f24565b604082019050919050565b60006020820190508181036000830152613faf81613f73565b9050919050565b7f4e487b7100000000000000000000000000000000000000000000000000000000600052601260045260246000fd5b7f455243373231456e756d657261626c653a20636f6e736563757469766520747260008201527f616e7366657273206e6f7420737570706f727465640000000000000000000000602082015250565b6000614041603583612e47565b915061404c82613fe5565b604082019050919050565b6000602082019050818103600083015261407081614034565b9050919050565b600081519050919050565b600082825260208201905092915050565b600061409e82614077565b6140a88185614082565b93506140b8818560208601612e58565b6140c181612e8b565b840191505092915050565b60006080820190506140e16000830187612f8c565b6140ee6020830186612f8c565b6140fb6040830185613022565b818103606083015261410d8184614093565b905095945050505050565b60008151905061412781612dad565b92915050565b60006020828403121561414357614142612d77565b5b600061415184828501614118565b91505092915050565b7f4e487b7100000000000000000000000000000000000000000000000000000000600052601160045260246000fd5b600061419482612ef7565b915061419f83612ef7565b9250828210156141b2576141b161415a565b5b828203905092915050565b7f4e487b7100000000000000000000000000000000000000000000000000000000600052603160045260246000fd5b7f4552433732313a206d696e7420746f20746865207a65726f2061646472657373600082015250565b6000614222602083612e47565b915061422d826141ec565b602082019050919050565b6000602082019050818103600083015261425181614215565b9050919050565b7f4552433732313a20746f6b656e20616c7265616479206d696e74656400000000600082015250565b600061428e601c83612e47565b915061429982614258565b602082019050919050565b600060208201905081810360008301526142bd81614281565b905091905056fea2646970667358221220eab537189d31bb99cbb7207f0b154e35cad54dbcd550d7eca4b6ddfbca925bfa64736f6c634300080d0033",
  "immutableReferences": {},
  "source": "// SPDX-License-Identifier: MIT\r\npragma solidity ^0.8.13;\r\n\r\nimport \"@openzeppelin/contracts/token/ERC721/extensions/ERC721Enumerable.sol\";\r\nimport \"@openzeppelin/contracts/access/Ownable.sol\";\r\nimport \"@openzeppelin/contracts/utils/Counters.sol\";\r\nimport \"@openzeppelin/contracts/utils/math/SafeMath.sol\";\r\n\r\ncontract LuxuryItemTracking is ERC721Enumerable, Ownable {\r\n    using Counters for Counters.Counter;\r\n    using SafeMath for uint256;\r\n\r\n    Counters.Counter private _tokenIds;\r\n    uint public constant MAX_SUPPLY = 10;\r\n    uint public constant PRICE = 0.00001 ether;\r\n\r\n    struct LuxuryItem {\r\n        string name;\r\n        uint256 serialNumber;\r\n        address manufacturer;\r\n        uint256 productionDate;\r\n        string logisticsInfo;\r\n        string salesRecord;\r\n        bool isCertified;\r\n        uint256 valuation;\r\n        string certification;\r\n    }\r\n\r\n    mapping(uint256 => LuxuryItem) private luxuryItems;\r\n    mapping(uint256 => bool) private serialNumberExists;\r\n\r\n    string public baseURI;\r\n\r\n    event LuxuryItemCertificationUpdated(uint256 indexed serialNumber, bool isCertified);\r\n    event LuxuryItemValuationUpdated(uint256 indexed serialNumber, uint256 valuation);\r\n    event CertificationSet(uint256 indexed serialNumber, string certification);\r\n    event ValuationSet(uint256 indexed serialNumber, uint256 valuation);\r\n\r\n    constructor(string memory _baseURI, string memory name, string memory symbol) ERC721(name, symbol) {\r\n        baseURI = _baseURI;\r\n    }\r\n\r\n    function setBaseURI(string memory _baseURI) public onlyOwner {\r\n        baseURI = _baseURI;\r\n    }\r\n\r\n    function mintNFT(string memory name, uint256 serialNumber, uint256 productionDate) public payable {\r\n        require(_tokenIds.current() < MAX_SUPPLY, \"Collection is sold out!\");\r\n        require(msg.value >= PRICE, \"Not enough ether sent.\");\r\n        require(!serialNumberExists[serialNumber], \"Serial number already used\");\r\n\r\n        _tokenIds.increment();\r\n        uint256 newTokenId = _tokenIds.current();\r\n\r\n        LuxuryItem storage item = luxuryItems[serialNumber];\r\n        item.name = name;\r\n        item.manufacturer = msg.sender;\r\n        item.productionDate = productionDate;\r\n        item.logisticsInfo = \"\";\r\n        item.salesRecord = \"\";\r\n        item.isCertified = false;\r\n        item.valuation = 0;\r\n        item.certification = \"\";\r\n\r\n        serialNumberExists[serialNumber] = true;\r\n\r\n        _safeMint(msg.sender, newTokenId);\r\n    }\r\n\r\n    function _exists(uint256 serialNumber) internal view override returns (bool) {\r\n        return serialNumberExists[serialNumber];\r\n    }\r\n\r\n    function updateLogisticsInfo(uint256 serialNumber, string memory logisticsInfo) public onlyOwner {\r\n        require(_exists(serialNumber), \"Item does not exist\");\r\n        luxuryItems[serialNumber].logisticsInfo = logisticsInfo;\r\n    }\r\n\r\n    function updateSalesRecord(uint256 serialNumber, string memory salesRecord) public onlyOwner {\r\n        require(_exists(serialNumber), \"Item does not exist\");\r\n        luxuryItems[serialNumber].salesRecord = salesRecord;\r\n    }\r\n\r\n    function certifyUser(uint256 serialNumber, bool isCertified) public {\r\n        require(_exists(serialNumber), \"Item does not exist\");\r\n        require(luxuryItems[serialNumber].manufacturer == msg.sender, \"Only manufacturer can certify users\");\r\n        luxuryItems[serialNumber].isCertified = isCertified;\r\n        emit LuxuryItemCertificationUpdated(serialNumber, isCertified);\r\n    }\r\n\r\n    function getItemDetails(uint256 serialNumber) public view returns (\r\n        string memory name,\r\n        address manufacturer,\r\n        uint256 productionDate,\r\n        string memory logisticsInfo,\r\n        string memory salesRecord\r\n    ) {\r\n        require(_exists(serialNumber), \"Item does not exist\");\r\n        LuxuryItem storage item = luxuryItems[serialNumber];\r\n        return (\r\n            item.name,\r\n            item.manufacturer,\r\n            item.productionDate,\r\n            item.logisticsInfo,\r\n            item.salesRecord\r\n        );\r\n    }\r\n\r\n    function setLuxuryItemCertification(uint256 serialNumber, string memory certification) public onlyOwner {\r\n        require(_exists(serialNumber), \"Item does not exist\");\r\n        luxuryItems[serialNumber].certification = certification;\r\n        emit CertificationSet(serialNumber, certification);\r\n    }\r\n\r\n    function isCertifiedUser(uint256 serialNumber) public view returns (bool) {\r\n        require(_exists(serialNumber), \"Item does not exist\");\r\n        return luxuryItems[serialNumber].isCertified;\r\n    }\r\n}\r\n",
  "sourcePath": "E:\\\\ddn\\contracts\\LuxuryItemTracking.sol",
  "compiler": {
    "name": "solc",
    "version": "0.8.13+commit.abaa5c0e.Emscripten.clang"
  },
  "schemaVersion": "3.4.16",
  "updatedAt": "2024-04-11T13:03:24.873Z",
  "networkType": "ethereum",
  "devdoc": {
    "kind": "dev",
    "methods": {
      "approve(address,uint256)": {
        "details": "See {IERC721-approve}."
      },
      "balanceOf(address)": {
        "details": "See {IERC721-balanceOf}."
      },
      "getApproved(uint256)": {
        "details": "See {IERC721-getApproved}."
      },
      "isApprovedForAll(address,address)": {
        "details": "See {IERC721-isApprovedForAll}."
      },
      "name()": {
        "details": "See {IERC721Metadata-name}."
      },
      "owner()": {
        "details": "Returns the address of the current owner."
      },
      "ownerOf(uint256)": {
        "details": "See {IERC721-ownerOf}."
      },
      "renounceOwnership()": {
        "details": "Leaves the contract without owner. It will not be possible to call `onlyOwner` functions. Can only be called by the current owner. NOTE: Renouncing ownership will leave the contract without an owner, thereby disabling any functionality that is only available to the owner."
      },
      "safeTransferFrom(address,address,uint256)": {
        "details": "See {IERC721-safeTransferFrom}."
      },
      "safeTransferFrom(address,address,uint256,bytes)": {
        "details": "See {IERC721-safeTransferFrom}."
      },
      "setApprovalForAll(address,bool)": {
        "details": "See {IERC721-setApprovalForAll}."
      },
      "supportsInterface(bytes4)": {
        "details": "See {IERC165-supportsInterface}."
      },
      "symbol()": {
        "details": "See {IERC721Metadata-symbol}."
      },
      "tokenByIndex(uint256)": {
        "details": "See {IERC721Enumerable-tokenByIndex}."
      },
      "tokenOfOwnerByIndex(address,uint256)": {
        "details": "See {IERC721Enumerable-tokenOfOwnerByIndex}."
      },
      "tokenURI(uint256)": {
        "details": "See {IERC721Metadata-tokenURI}."
      },
      "totalSupply()": {
        "details": "See {IERC721Enumerable-totalSupply}."
      },
      "transferFrom(address,address,uint256)": {
        "details": "See {IERC721-transferFrom}."
      },
      "transferOwnership(address)": {
        "details": "Transfers ownership of the contract to a new account (`newOwner`). Can only be called by the current owner."
      }
    },
    "version": 1
  },
  "userdoc": {
    "kind": "user",
    "methods": {},
    "version": 1
  }
}