{
  "contractName": "LuxuryItemTracking",
  "abi": [
    {
      "inputs": [
        {
          "internalType": "string",
          "name": "baseURI",
          "type": "string"
        },
        {
          "internalType": "string",
          "name": "name",
          "type": "string"
        },
        {
          "internalType": "string",
          "name": "symbol",
          "type": "string"
        }
      ],
      "stateMutability": "nonpayable",
      "type": "constructor"
    },
    {
      "anonymous": false,
      "inputs": [
        {
          "indexed": true,
          "internalType": "address",
          "name": "owner",
          "type": "address"
        },
        {
          "indexed": true,
          "internalType": "address",
          "name": "approved",
          "type": "address"
        },
        {
          "indexed": true,
          "internalType": "uint256",
          "name": "tokenId",
          "type": "uint256"
        }
      ],
      "name": "Approval",
      "type": "event"
    },
    {
      "anonymous": false,
      "inputs": [
        {
          "indexed": true,
          "internalType": "address",
          "name": "owner",
          "type": "address"
        },
        {
          "indexed": true,
          "internalType": "address",
          "name": "operator",
          "type": "address"
        },
        {
          "indexed": false,
          "internalType": "bool",
          "name": "approved",
          "type": "bool"
        }
      ],
      "name": "ApprovalForAll",
      "type": "event"
    },
    {
      "anonymous": false,
      "inputs": [
        {
          "indexed": true,
          "internalType": "uint256",
          "name": "serialNumber",
          "type": "uint256"
        },
        {
          "indexed": false,
          "internalType": "string",
          "name": "certification",
          "type": "string"
        }
      ],
      "name": "CertificationSet",
      "type": "event"
    },
    {
      "anonymous": false,
      "inputs": [
        {
          "indexed": true,
          "internalType": "uint256",
          "name": "serialNumber",
          "type": "uint256"
        },
        {
          "indexed": false,
          "internalType": "bool",
          "name": "isCertified",
          "type": "bool"
        }
      ],
      "name": "LuxuryItemCertificationUpdated",
      "type": "event"
    },
    {
      "anonymous": false,
      "inputs": [
        {
          "indexed": true,
          "internalType": "uint256",
          "name": "serialNumber",
          "type": "uint256"
        },
        {
          "indexed": false,
          "internalType": "uint256",
          "name": "valuation",
          "type": "uint256"
        }
      ],
      "name": "LuxuryItemValuationUpdated",
      "type": "event"
    },
    {
      "anonymous": false,
      "inputs": [
        {
          "indexed": true,
          "internalType": "address",
          "name": "previousOwner",
          "type": "address"
        },
        {
          "indexed": true,
          "internalType": "address",
          "name": "newOwner",
          "type": "address"
        }
      ],
      "name": "OwnershipTransferred",
      "type": "event"
    },
    {
      "anonymous": false,
      "inputs": [
        {
          "indexed": true,
          "internalType": "address",
          "name": "from",
          "type": "address"
        },
        {
          "indexed": true,
          "internalType": "address",
          "name": "to",
          "type": "address"
        },
        {
          "indexed": true,
          "internalType": "uint256",
          "name": "tokenId",
          "type": "uint256"
        }
      ],
      "name": "Transfer",
      "type": "event"
    },
    {
      "anonymous": false,
      "inputs": [
        {
          "indexed": true,
          "internalType": "uint256",
          "name": "serialNumber",
          "type": "uint256"
        },
        {
          "indexed": false,
          "internalType": "uint256",
          "name": "valuation",
          "type": "uint256"
        }
      ],
      "name": "ValuationSet",
      "type": "event"
    },
    {
      "inputs": [],
      "name": "MAX_SUPPLY",
      "outputs": [
        {
          "internalType": "uint256",
          "name": "",
          "type": "uint256"
        }
      ],
      "stateMutability": "view",
      "type": "function",
      "constant": true
    },
    {
      "inputs": [],
      "name": "PRICE",
      "outputs": [
        {
          "internalType": "uint256",
          "name": "",
          "type": "uint256"
        }
      ],
      "stateMutability": "view",
      "type": "function",
      "constant": true
    },
    {
      "inputs": [
        {
          "internalType": "address",
          "name": "to",
          "type": "address"
        },
        {
          "internalType": "uint256",
          "name": "tokenId",
          "type": "uint256"
        }
      ],
      "name": "approve",
      "outputs": [],
      "stateMutability": "nonpayable",
      "type": "function"
    },
    {
      "inputs": [
        {
          "internalType": "address",
          "name": "owner",
          "type": "address"
        }
      ],
      "name": "balanceOf",
      "outputs": [
        {
          "internalType": "uint256",
          "name": "",
          "type": "uint256"
        }
      ],
      "stateMutability": "view",
      "type": "function",
      "constant": true
    },
    {
      "inputs": [],
      "name": "baseTokenURI",
      "outputs": [
        {
          "internalType": "string",
          "name": "",
          "type": "string"
        }
      ],
      "stateMutability": "view",
      "type": "function",
      "constant": true
    },
    {
      "inputs": [
        {
          "internalType": "uint256",
          "name": "tokenId",
          "type": "uint256"
        }
      ],
      "name": "getApproved",
      "outputs": [
        {
          "internalType": "address",
          "name": "",
          "type": "address"
        }
      ],
      "stateMutability": "view",
      "type": "function",
      "constant": true
    },
    {
      "inputs": [
        {
          "internalType": "address",
          "name": "owner",
          "type": "address"
        },
        {
          "internalType": "address",
          "name": "operator",
          "type": "address"
        }
      ],
      "name": "isApprovedForAll",
      "outputs": [
        {
          "internalType": "bool",
          "name": "",
          "type": "bool"
        }
      ],
      "stateMutability": "view",
      "type": "function",
      "constant": true
    },
    {
      "inputs": [],
      "name": "name",
      "outputs": [
        {
          "internalType": "string",
          "name": "",
          "type": "string"
        }
      ],
      "stateMutability": "view",
      "type": "function",
      "constant": true
    },
    {
      "inputs": [],
      "name": "owner",
      "outputs": [
        {
          "internalType": "address",
          "name": "",
          "type": "address"
        }
      ],
      "stateMutability": "view",
      "type": "function",
      "constant": true
    },
    {
      "inputs": [
        {
          "internalType": "uint256",
          "name": "tokenId",
          "type": "uint256"
        }
      ],
      "name": "ownerOf",
      "outputs": [
        {
          "internalType": "address",
          "name": "",
          "type": "address"
        }
      ],
      "stateMutability": "view",
      "type": "function",
      "constant": true
    },
    {
      "inputs": [],
      "name": "renounceOwnership",
      "outputs": [],
      "stateMutability": "nonpayable",
      "type": "function"
    },
    {
      "inputs": [
        {
          "internalType": "address",
          "name": "from",
          "type": "address"
        },
        {
          "internalType": "address",
          "name": "to",
          "type": "address"
        },
        {
          "internalType": "uint256",
          "name": "tokenId",
          "type": "uint256"
        }
      ],
      "name": "safeTransferFrom",
      "outputs": [],
      "stateMutability": "nonpayable",
      "type": "function"
    },
    {
      "inputs": [
        {
          "internalType": "address",
          "name": "from",
          "type": "address"
        },
        {
          "internalType": "address",
          "name": "to",
          "type": "address"
        },
        {
          "internalType": "uint256",
          "name": "tokenId",
          "type": "uint256"
        },
        {
          "internalType": "bytes",
          "name": "data",
          "type": "bytes"
        }
      ],
      "name": "safeTransferFrom",
      "outputs": [],
      "stateMutability": "nonpayable",
      "type": "function"
    },
    {
      "inputs": [
        {
          "internalType": "address",
          "name": "operator",
          "type": "address"
        },
        {
          "internalType": "bool",
          "name": "approved",
          "type": "bool"
        }
      ],
      "name": "setApprovalForAll",
      "outputs": [],
      "stateMutability": "nonpayable",
      "type": "function"
    },
    {
      "inputs": [
        {
          "internalType": "bytes4",
          "name": "interfaceId",
          "type": "bytes4"
        }
      ],
      "name": "supportsInterface",
      "outputs": [
        {
          "internalType": "bool",
          "name": "",
          "type": "bool"
        }
      ],
      "stateMutability": "view",
      "type": "function",
      "constant": true
    },
    {
      "inputs": [],
      "name": "symbol",
      "outputs": [
        {
          "internalType": "string",
          "name": "",
          "type": "string"
        }
      ],
      "stateMutability": "view",
      "type": "function",
      "constant": true
    },
    {
      "inputs": [
        {
          "internalType": "uint256",
          "name": "index",
          "type": "uint256"
        }
      ],
      "name": "tokenByIndex",
      "outputs": [
        {
          "internalType": "uint256",
          "name": "",
          "type": "uint256"
        }
      ],
      "stateMutability": "view",
      "type": "function",
      "constant": true
    },
    {
      "inputs": [
        {
          "internalType": "address",
          "name": "owner",
          "type": "address"
        },
        {
          "internalType": "uint256",
          "name": "index",
          "type": "uint256"
        }
      ],
      "name": "tokenOfOwnerByIndex",
      "outputs": [
        {
          "internalType": "uint256",
          "name": "",
          "type": "uint256"
        }
      ],
      "stateMutability": "view",
      "type": "function",
      "constant": true
    },
    {
      "inputs": [
        {
          "internalType": "uint256",
          "name": "tokenId",
          "type": "uint256"
        }
      ],
      "name": "tokenURI",
      "outputs": [
        {
          "internalType": "string",
          "name": "",
          "type": "string"
        }
      ],
      "stateMutability": "view",
      "type": "function",
      "constant": true
    },
    {
      "inputs": [],
      "name": "totalSupply",
      "outputs": [
        {
          "internalType": "uint256",
          "name": "",
          "type": "uint256"
        }
      ],
      "stateMutability": "view",
      "type": "function",
      "constant": true
    },
    {
      "inputs": [
        {
          "internalType": "address",
          "name": "from",
          "type": "address"
        },
        {
          "internalType": "address",
          "name": "to",
          "type": "address"
        },
        {
          "internalType": "uint256",
          "name": "tokenId",
          "type": "uint256"
        }
      ],
      "name": "transferFrom",
      "outputs": [],
      "stateMutability": "nonpayable",
      "type": "function"
    },
    {
      "inputs": [
        {
          "internalType": "address",
          "name": "newOwner",
          "type": "address"
        }
      ],
      "name": "transferOwnership",
      "outputs": [],
      "stateMutability": "nonpayable",
      "type": "function"
    },
    {
      "inputs": [
        {
          "internalType": "uint256",
          "name": "_serialNumber",
          "type": "uint256"
        },
        {
          "internalType": "uint256",
          "name": "_valuation",
          "type": "uint256"
        }
      ],
      "name": "setLuxuryItemValuation",
      "outputs": [],
      "stateMutability": "nonpayable",
      "type": "function"
    },
    {
      "inputs": [
        {
          "internalType": "string",
          "name": "_baseTokenURI",
          "type": "string"
        }
      ],
      "name": "setBaseURI",
      "outputs": [],
      "stateMutability": "nonpayable",
      "type": "function"
    },
    {
      "inputs": [
        {
          "internalType": "string",
          "name": "_name",
          "type": "string"
        },
        {
          "internalType": "uint256",
          "name": "_serialNumber",
          "type": "uint256"
        },
        {
          "internalType": "uint256",
          "name": "_productionDate",
          "type": "uint256"
        }
      ],
      "name": "mintNFT",
      "outputs": [],
      "stateMutability": "payable",
      "type": "function",
      "payable": true
    },
    {
      "inputs": [
        {
          "internalType": "uint256",
          "name": "_serialNumber",
          "type": "uint256"
        },
        {
          "internalType": "string",
          "name": "_logisticsInfo",
          "type": "string"
        }
      ],
      "name": "updateLogisticsInfo",
      "outputs": [],
      "stateMutability": "nonpayable",
      "type": "function"
    },
    {
      "inputs": [
        {
          "internalType": "uint256",
          "name": "_serialNumber",
          "type": "uint256"
        },
        {
          "internalType": "string",
          "name": "_salesRecord",
          "type": "string"
        }
      ],
      "name": "updateSalesRecord",
      "outputs": [],
      "stateMutability": "nonpayable",
      "type": "function"
    },
    {
      "inputs": [
        {
          "internalType": "uint256",
          "name": "_serialNumber",
          "type": "uint256"
        },
        {
          "internalType": "bool",
          "name": "_isCertified",
          "type": "bool"
        }
      ],
      "name": "certifyUser",
      "outputs": [],
      "stateMutability": "nonpayable",
      "type": "function"
    },
    {
      "inputs": [
        {
          "internalType": "uint256",
          "name": "_serialNumber",
          "type": "uint256"
        }
      ],
      "name": "getItemDetails",
      "outputs": [
        {
          "internalType": "string",
          "name": "",
          "type": "string"
        },
        {
          "internalType": "address",
          "name": "",
          "type": "address"
        },
        {
          "internalType": "uint256",
          "name": "",
          "type": "uint256"
        },
        {
          "internalType": "string",
          "name": "",
          "type": "string"
        },
        {
          "internalType": "string",
          "name": "",
          "type": "string"
        }
      ],
      "stateMutability": "view",
      "type": "function",
      "constant": true
    },
    {
      "inputs": [
        {
          "internalType": "uint256",
          "name": "_serialNumber",
          "type": "uint256"
        },
        {
          "internalType": "string",
          "name": "_certification",
          "type": "string"
        }
      ],
      "name": "setLuxuryItemCertification",
      "outputs": [],
      "stateMutability": "nonpayable",
      "type": "function"
    },
    {
      "inputs": [
        {
          "internalType": "uint256",
          "name": "_serialNumber",
          "type": "uint256"
        }
      ],
      "name": "isCertifiedUser",
      "outputs": [
        {
          "internalType": "bool",
          "name": "",
          "type": "bool"
        }
      ],
      "stateMutability": "view",
      "type": "function",
      "constant": true
    },
    {
      "inputs": [
        {
          "internalType": "uint256",
          "name": "_serialNumber",
          "type": "uint256"
        }
      ],
      "name": "itemExists",
      "outputs": [
        {
          "internalType": "bool",
          "name": "",
          "type": "bool"
        }
      ],
      "stateMutability": "view",
      "type": "function",
      "constant": true
    }
  ],
  "bytecode": "0x60806040523480156200001157600080fd5b5060405162004baf38038062004baf8339818101604052810190620000379190620004a9565b81818160009080519060200190620000519291906200025c565b5080600190805190602001906200006a9291906200025c565b5050506200008d62000081620000a760201b60201c565b620000af60201b60201c565b6200009e836200017560201b60201c565b50505062000649565b600033905090565b6000600a60009054906101000a900473ffffffffffffffffffffffffffffffffffffffff16905081600a60006101000a81548173ffffffffffffffffffffffffffffffffffffffff021916908373ffffffffffffffffffffffffffffffffffffffff1602179055508173ffffffffffffffffffffffffffffffffffffffff168173ffffffffffffffffffffffffffffffffffffffff167f8be0079c531659141344cd1fd0a4f28419497f9722a3daafe3b4186f6b6457e060405160405180910390a35050565b62000185620001a160201b60201c565b80600d90805190602001906200019d9291906200025c565b5050565b620001b1620000a760201b60201c565b73ffffffffffffffffffffffffffffffffffffffff16620001d76200023260201b60201c565b73ffffffffffffffffffffffffffffffffffffffff161462000230576040517f08c379a00000000000000000000000000000000000000000000000000000000081526004016200022790620005c3565b60405180910390fd5b565b6000600a60009054906101000a900473ffffffffffffffffffffffffffffffffffffffff16905090565b8280546200026a9062000614565b90600052602060002090601f0160209004810192826200028e5760008555620002da565b82601f10620002a957805160ff1916838001178555620002da565b82800160010185558215620002da579182015b82811115620002d9578251825591602001919060010190620002bc565b5b509050620002e99190620002ed565b5090565b5b8082111562000308576000816000905550600101620002ee565b5090565b6000604051905090565b600080fd5b600080fd5b600080fd5b600080fd5b6000601f19601f8301169050919050565b7f4e487b7100000000000000000000000000000000000000000000000000000000600052604160045260246000fd5b62000375826200032a565b810181811067ffffffffffffffff821117156200039757620003966200033b565b5b80604052505050565b6000620003ac6200030c565b9050620003ba82826200036a565b919050565b600067ffffffffffffffff821115620003dd57620003dc6200033b565b5b620003e8826200032a565b9050602081019050919050565b60005b8381101562000415578082015181840152602081019050620003f8565b8381111562000425576000848401525b50505050565b6000620004426200043c84620003bf565b620003a0565b90508281526020810184848401111562000461576200046062000325565b5b6200046e848285620003f5565b509392505050565b600082601f8301126200048e576200048d62000320565b5b8151620004a08482602086016200042b565b91505092915050565b600080600060608486031215620004c557620004c462000316565b5b600084015167ffffffffffffffff811115620004e657620004e56200031b565b5b620004f48682870162000476565b935050602084015167ffffffffffffffff8111156200051857620005176200031b565b5b620005268682870162000476565b925050604084015167ffffffffffffffff8111156200054a57620005496200031b565b5b620005588682870162000476565b9150509250925092565b600082825260208201905092915050565b7f4f776e61626c653a2063616c6c6572206973206e6f7420746865206f776e6572600082015250565b6000620005ab60208362000562565b9150620005b88262000573565b602082019050919050565b60006020820190508181036000830152620005de816200059c565b9050919050565b7f4e487b7100000000000000000000000000000000000000000000000000000000600052602260045260246000fd5b600060028204905060018216806200062d57607f821691505b602082108103620006435762000642620005e5565b5b50919050565b61455680620006596000396000f3fe6080604052600436106101e35760003560e01c8063715018a611610102578063a22cb46511610095578063c87b56dd11610064578063c87b56dd14610709578063d547cfb714610746578063e985e9c514610771578063f2fde38b146107ae576101e3565b8063a22cb46514610651578063a8b83a3d1461067a578063b0a5430d146106b7578063b88d4fde146106e0576101e3565b80638d859f3e116100d15780638d859f3e146105b45780638da5cb5b146105df57806395d89b411461060a578063977922d214610635576101e3565b8063715018a6146104f657806373004ca01461050d578063843bd6411461054e57806389cf02171461058b576101e3565b80632f745c591161017a5780634f6ccce7116101495780634f6ccce71461041657806355f804b3146104535780636352211e1461047c57806370a08231146104b9576101e3565b80632f745c591461035c57806332cb6b0c1461039957806342842e0e146103c45780634a1a2312146103ed576101e3565b806318160ddd116101b657806318160ddd146102b65780631869b206146102e157806323b872dd1461030a5780632d58e6ce14610333576101e3565b806301ffc9a7146101e857806306fdde0314610225578063081812fc14610250578063095ea7b31461028d575b600080fd5b3480156101f457600080fd5b5061020f600480360381019061020a9190612fa9565b6107d7565b60405161021c9190612ff1565b60405180910390f35b34801561023157600080fd5b5061023a610851565b60405161024791906130a5565b60405180910390f35b34801561025c57600080fd5b50610277600480360381019061027291906130fd565b6108e3565b604051610284919061316b565b60405180910390f35b34801561029957600080fd5b506102b460048036038101906102af91906131b2565b610929565b005b3480156102c257600080fd5b506102cb610a40565b6040516102d89190613201565b60405180910390f35b3480156102ed57600080fd5b5061030860048036038101906103039190613248565b610a4d565b005b34801561031657600080fd5b50610331600480360381019061032c9190613288565b610be1565b005b34801561033f57600080fd5b5061035a60048036038101906103559190613410565b610c41565b005b34801561036857600080fd5b50610383600480360381019061037e91906131b2565b610cc0565b6040516103909190613201565b60405180910390f35b3480156103a557600080fd5b506103ae610d65565b6040516103bb9190613201565b60405180910390f35b3480156103d057600080fd5b506103eb60048036038101906103e69190613288565b610d6a565b005b3480156103f957600080fd5b50610414600480360381019061040f919061346c565b610d8a565b005b34801561042257600080fd5b5061043d600480360381019061043891906130fd565b610e69565b60405161044a9190613201565b60405180910390f35b34801561045f57600080fd5b5061047a600480360381019061047591906134ac565b610eda565b005b34801561048857600080fd5b506104a3600480360381019061049e91906130fd565b610efc565b6040516104b0919061316b565b60405180910390f35b3480156104c557600080fd5b506104e060048036038101906104db91906134f5565b610f82565b6040516104ed9190613201565b60405180910390f35b34801561050257600080fd5b5061050b611039565b005b34801561051957600080fd5b50610534600480360381019061052f91906130fd565b61104d565b604051610545959493929190613522565b60405180910390f35b34801561055a57600080fd5b50610575600480360381019061057091906130fd565b61134e565b6040516105829190612ff1565b60405180910390f35b34801561059757600080fd5b506105b260048036038101906105ad9190613410565b611360565b005b3480156105c057600080fd5b506105c9611417565b6040516105d69190613201565b60405180910390f35b3480156105eb57600080fd5b506105f4611421565b604051610601919061316b565b60405180910390f35b34801561061657600080fd5b5061061f61144b565b60405161062c91906130a5565b60405180910390f35b61064f600480360381019061064a919061358a565b6114dd565b005b34801561065d57600080fd5b50610678600480360381019061067391906135f9565b6115cb565b005b34801561068657600080fd5b506106a1600480360381019061069c91906130fd565b6115e1565b6040516106ae9190612ff1565b60405180910390f35b3480156106c357600080fd5b506106de60048036038101906106d99190613410565b611693565b005b3480156106ec57600080fd5b50610707600480360381019061070291906136da565b611712565b005b34801561071557600080fd5b50610730600480360381019061072b91906130fd565b611774565b60405161073d91906130a5565b60405180910390f35b34801561075257600080fd5b5061075b6117dc565b60405161076891906130a5565b60405180910390f35b34801561077d57600080fd5b506107986004803603810190610793919061375d565b61186a565b6040516107a59190612ff1565b60405180910390f35b3480156107ba57600080fd5b506107d560048036038101906107d091906134f5565b6118fe565b005b60007f780e9d63000000000000000000000000000000000000000000000000000000007bffffffffffffffffffffffffffffffffffffffffffffffffffffffff1916827bffffffffffffffffffffffffffffffffffffffffffffffffffffffff1916148061084a575061084982611981565b5b9050919050565b606060008054610860906137cc565b80601f016020809104026020016040519081016040528092919081815260200182805461088c906137cc565b80156108d95780601f106108ae576101008083540402835291602001916108d9565b820191906000526020600020905b8154815290600101906020018083116108bc57829003601f168201915b5050505050905090565b60006108ee82611a63565b6004600083815260200190815260200160002060009054906101000a900473ffffffffffffffffffffffffffffffffffffffff169050919050565b600061093482610efc565b90508073ffffffffffffffffffffffffffffffffffffffff168373ffffffffffffffffffffffffffffffffffffffff16036109a4576040517f08c379a000000000000000000000000000000000000000000000000000000000815260040161099b9061386f565b60405180910390fd5b8073ffffffffffffffffffffffffffffffffffffffff166109c3611aae565b73ffffffffffffffffffffffffffffffffffffffff1614806109f257506109f1816109ec611aae565b61186a565b5b610a31576040517f08c379a0000000000000000000000000000000000000000000000000000000008152600401610a2890613901565b60405180910390fd5b610a3b8383611ab6565b505050565b6000600880549050905090565b610a5682611b6f565b610a95576040517f08c379a0000000000000000000000000000000000000000000000000000000008152600401610a8c9061396d565b60405180910390fd5b3373ffffffffffffffffffffffffffffffffffffffff16600c600084815260200190815260200160002060020160009054906101000a900473ffffffffffffffffffffffffffffffffffffffff1673ffffffffffffffffffffffffffffffffffffffff1614610b39576040517f08c379a0000000000000000000000000000000000000000000000000000000008152600401610b30906139ff565b60405180910390fd5b6001600c600084815260200190815260200160002060090160003373ffffffffffffffffffffffffffffffffffffffff1673ffffffffffffffffffffffffffffffffffffffff16815260200190815260200160002060006101000a81548160ff021916908315150217905550817f22bc4ea421fbd5b6f95757c180adaa8cb0f11ab8a1075d66995663e82711c91682604051610bd59190612ff1565b60405180910390a25050565b610bf2610bec611aae565b82611b91565b610c31576040517f08c379a0000000000000000000000000000000000000000000000000000000008152600401610c2890613a91565b60405180910390fd5b610c3c838383611c26565b505050565b610c49611f1f565b610c5282611b6f565b610c91576040517f08c379a0000000000000000000000000000000000000000000000000000000008152600401610c889061396d565b60405180910390fd5b80600c60008481526020019081526020016000206005019080519060200190610cbb929190612e9a565b505050565b6000610ccb83610f82565b8210610d0c576040517f08c379a0000000000000000000000000000000000000000000000000000000008152600401610d0390613b23565b60405180910390fd5b600660008473ffffffffffffffffffffffffffffffffffffffff1673ffffffffffffffffffffffffffffffffffffffff168152602001908152602001600020600083815260200190815260200160002054905092915050565b600a81565b610d8583838360405180602001604052806000815250611712565b505050565b610d92611f1f565b610d9b82611b6f565b610dda576040517f08c379a0000000000000000000000000000000000000000000000000000000008152600401610dd19061396d565b60405180910390fd5b80600c600084815260200190815260200160002060070181905550817fb607f618d42004a68651337cff412752d042354c4fd3a56fe8ae01e34fa969c882604051610e259190613201565b60405180910390a2817ff53f69ac7365862a2efc8646aa895f72a1f3c9f34c719034c29a40aafe491f0e82604051610e5d9190613201565b60405180910390a25050565b6000610e73610a40565b8210610eb4576040517f08c379a0000000000000000000000000000000000000000000000000000000008152600401610eab90613bb5565b60405180910390fd5b60088281548110610ec857610ec7613bd5565b5b90600052602060002001549050919050565b610ee2611f1f565b80600d9080519060200190610ef8929190612e9a565b5050565b600080610f0883611f9d565b9050600073ffffffffffffffffffffffffffffffffffffffff168173ffffffffffffffffffffffffffffffffffffffff1603610f79576040517f08c379a0000000000000000000000000000000000000000000000000000000008152600401610f7090613c50565b60405180910390fd5b80915050919050565b60008073ffffffffffffffffffffffffffffffffffffffff168273ffffffffffffffffffffffffffffffffffffffff1603610ff2576040517f08c379a0000000000000000000000000000000000000000000000000000000008152600401610fe990613ce2565b60405180910390fd5b600360008373ffffffffffffffffffffffffffffffffffffffff1673ffffffffffffffffffffffffffffffffffffffff168152602001908152602001600020549050919050565b611041611f1f565b61104b6000611fda565b565b606060008060608061105e86611b6f565b61109d576040517f08c379a00000000000000000000000000000000000000000000000000000000081526004016110949061396d565b60405180910390fd5b6000600c600088815260200190815260200160002090506000808260040180546110c6906137cc565b905011611108576040518060400160405280601b81526020017f4e6f206c6f6769737469637320696e666f20617661696c61626c650000000000815250611196565b816004018054611117906137cc565b80601f0160208091040260200160405190810160405280929190818152602001828054611143906137cc565b80156111905780601f1061116557610100808354040283529160200191611190565b820191906000526020600020905b81548152906001019060200180831161117357829003601f168201915b50505050505b90506000808360050180546111aa906137cc565b9050116111ec576040518060400160405280601981526020017f4e6f2073616c6573207265636f726420617661696c61626c650000000000000081525061127a565b8260050180546111fb906137cc565b80601f0160208091040260200160405190810160405280929190818152602001828054611227906137cc565b80156112745780601f1061124957610100808354040283529160200191611274565b820191906000526020600020905b81548152906001019060200180831161125757829003601f168201915b50505050505b9050826000018360020160009054906101000a900473ffffffffffffffffffffffffffffffffffffffff16846003015484848480546112b8906137cc565b80601f01602080910402602001604051908101604052809291908181526020018280546112e4906137cc565b80156113315780601f1061130657610100808354040283529160200191611331565b820191906000526020600020905b81548152906001019060200180831161131457829003601f168201915b505050505094509750975097509750975050505091939590929450565b600061135982611b6f565b9050919050565b611368611f1f565b61137182611b6f565b6113b0576040517f08c379a00000000000000000000000000000000000000000000000000000000081526004016113a79061396d565b60405180910390fd5b80600c600084815260200190815260200160002060080190805190602001906113da929190612e9a565b50817fed2482489691c0116dbce5a79d91599d001f8e029676b3759720dab25fba7b2d8260405161140b91906130a5565b60405180910390a25050565b6509184e72a00081565b6000600a60009054906101000a900473ffffffffffffffffffffffffffffffffffffffff16905090565b60606001805461145a906137cc565b80601f0160208091040260200160405190810160405280929190818152602001828054611486906137cc565b80156114d35780601f106114a8576101008083540402835291602001916114d3565b820191906000526020600020905b8154815290600101906020018083116114b657829003601f168201915b5050505050905090565b600a6114e9600b6120a0565b10611529576040517f08c379a000000000000000000000000000000000000000000000000000000000815260040161152090613d4e565b60405180910390fd5b6509184e72a000341015611572576040517f08c379a000000000000000000000000000000000000000000000000000000000815260040161156990613de0565b60405180910390fd5b61157b82611b6f565b156115bb576040517f08c379a00000000000000000000000000000000000000000000000000000000081526004016115b290613e72565b60405180910390fd5b6115c68383836120ae565b505050565b6115dd6115d6611aae565b838361216a565b5050565b60006115ec82611b6f565b61162b576040517f08c379a00000000000000000000000000000000000000000000000000000000081526004016116229061396d565b60405180910390fd5b600c600083815260200190815260200160002060090160003373ffffffffffffffffffffffffffffffffffffffff1673ffffffffffffffffffffffffffffffffffffffff16815260200190815260200160002060009054906101000a900460ff169050919050565b61169b611f1f565b6116a482611b6f565b6116e3576040517f08c379a00000000000000000000000000000000000000000000000000000000081526004016116da9061396d565b60405180910390fd5b80600c6000848152602001908152602001600020600401908051906020019061170d929190612e9a565b505050565b61172361171d611aae565b83611b91565b611762576040517f08c379a000000000000000000000000000000000000000000000000000000000815260040161175990613a91565b60405180910390fd5b61176e848484846122d6565b50505050565b606061177f82611a63565b6000611789612332565b905060008151116117a957604051806020016040528060008152506117d4565b806117b384612349565b6040516020016117c4929190613ece565b6040516020818303038152906040525b915050919050565b600d80546117e9906137cc565b80601f0160208091040260200160405190810160405280929190818152602001828054611815906137cc565b80156118625780601f1061183757610100808354040283529160200191611862565b820191906000526020600020905b81548152906001019060200180831161184557829003601f168201915b505050505081565b6000600560008473ffffffffffffffffffffffffffffffffffffffff1673ffffffffffffffffffffffffffffffffffffffff16815260200190815260200160002060008373ffffffffffffffffffffffffffffffffffffffff1673ffffffffffffffffffffffffffffffffffffffff16815260200190815260200160002060009054906101000a900460ff16905092915050565b611906611f1f565b600073ffffffffffffffffffffffffffffffffffffffff168173ffffffffffffffffffffffffffffffffffffffff1603611975576040517f08c379a000000000000000000000000000000000000000000000000000000000815260040161196c90613f64565b60405180910390fd5b61197e81611fda565b50565b60007f80ac58cd000000000000000000000000000000000000000000000000000000007bffffffffffffffffffffffffffffffffffffffffffffffffffffffff1916827bffffffffffffffffffffffffffffffffffffffffffffffffffffffff19161480611a4c57507f5b5e139f000000000000000000000000000000000000000000000000000000007bffffffffffffffffffffffffffffffffffffffffffffffffffffffff1916827bffffffffffffffffffffffffffffffffffffffffffffffffffffffff1916145b80611a5c5750611a5b82612417565b5b9050919050565b611a6c81611b6f565b611aab576040517f08c379a0000000000000000000000000000000000000000000000000000000008152600401611aa290613c50565b60405180910390fd5b50565b600033905090565b816004600083815260200190815260200160002060006101000a81548173ffffffffffffffffffffffffffffffffffffffff021916908373ffffffffffffffffffffffffffffffffffffffff160217905550808273ffffffffffffffffffffffffffffffffffffffff16611b2983610efc565b73ffffffffffffffffffffffffffffffffffffffff167f8c5be1e5ebec7d5bd14f71427d1e84f3dd0314c0f7b2291e5b200ac8c7c3b92560405160405180910390a45050565b600081600c600084815260200190815260200160002060010154149050919050565b600080611b9d83610efc565b90508073ffffffffffffffffffffffffffffffffffffffff168473ffffffffffffffffffffffffffffffffffffffff161480611bdf5750611bde818561186a565b5b80611c1d57508373ffffffffffffffffffffffffffffffffffffffff16611c05846108e3565b73ffffffffffffffffffffffffffffffffffffffff16145b91505092915050565b8273ffffffffffffffffffffffffffffffffffffffff16611c4682610efc565b73ffffffffffffffffffffffffffffffffffffffff1614611c9c576040517f08c379a0000000000000000000000000000000000000000000000000000000008152600401611c9390613ff6565b60405180910390fd5b600073ffffffffffffffffffffffffffffffffffffffff168273ffffffffffffffffffffffffffffffffffffffff1603611d0b576040517f08c379a0000000000000000000000000000000000000000000000000000000008152600401611d0290614088565b60405180910390fd5b611d188383836001612481565b8273ffffffffffffffffffffffffffffffffffffffff16611d3882610efc565b73ffffffffffffffffffffffffffffffffffffffff1614611d8e576040517f08c379a0000000000000000000000000000000000000000000000000000000008152600401611d8590613ff6565b60405180910390fd5b6004600082815260200190815260200160002060006101000a81549073ffffffffffffffffffffffffffffffffffffffff02191690556001600360008573ffffffffffffffffffffffffffffffffffffffff1673ffffffffffffffffffffffffffffffffffffffff168152602001908152602001600020600082825403925050819055506001600360008473ffffffffffffffffffffffffffffffffffffffff1673ffffffffffffffffffffffffffffffffffffffff16815260200190815260200160002060008282540192505081905550816002600083815260200190815260200160002060006101000a81548173ffffffffffffffffffffffffffffffffffffffff021916908373ffffffffffffffffffffffffffffffffffffffff160217905550808273ffffffffffffffffffffffffffffffffffffffff168473ffffffffffffffffffffffffffffffffffffffff167fddf252ad1be2c89b69c2b068fc378daa952ba7f163c4a11628f55a4df523b3ef60405160405180910390a4611f1a83838360016125df565b505050565b611f27611aae565b73ffffffffffffffffffffffffffffffffffffffff16611f45611421565b73ffffffffffffffffffffffffffffffffffffffff1614611f9b576040517f08c379a0000000000000000000000000000000000000000000000000000000008152600401611f92906140f4565b60405180910390fd5b565b60006002600083815260200190815260200160002060009054906101000a900473ffffffffffffffffffffffffffffffffffffffff169050919050565b6000600a60009054906101000a900473ffffffffffffffffffffffffffffffffffffffff16905081600a60006101000a81548173ffffffffffffffffffffffffffffffffffffffff021916908373ffffffffffffffffffffffffffffffffffffffff1602179055508173ffffffffffffffffffffffffffffffffffffffff168173ffffffffffffffffffffffffffffffffffffffff167f8be0079c531659141344cd1fd0a4f28419497f9722a3daafe3b4186f6b6457e060405160405180910390a35050565b600081600001549050919050565b6120b8600b6125e5565b6000600c60008481526020019081526020016000209050838160000190805190602001906120e7929190612e9a565b50828160010181905550338160020160006101000a81548173ffffffffffffffffffffffffffffffffffffffff021916908373ffffffffffffffffffffffffffffffffffffffff16021790555081816003018190555060008160060160006101000a81548160ff02191690831515021790555061216433846125fb565b50505050565b8173ffffffffffffffffffffffffffffffffffffffff168373ffffffffffffffffffffffffffffffffffffffff16036121d8576040517f08c379a00000000000000000000000000000000000000000000000000000000081526004016121cf90614160565b60405180910390fd5b80600560008573ffffffffffffffffffffffffffffffffffffffff1673ffffffffffffffffffffffffffffffffffffffff16815260200190815260200160002060008473ffffffffffffffffffffffffffffffffffffffff1673ffffffffffffffffffffffffffffffffffffffff16815260200190815260200160002060006101000a81548160ff0219169083151502179055508173ffffffffffffffffffffffffffffffffffffffff168373ffffffffffffffffffffffffffffffffffffffff167f17307eab39ab6107e8899845ad3d59bd9653f200f220920489ca2b5937696c31836040516122c99190612ff1565b60405180910390a3505050565b6122e1848484611c26565b6122ed84848484612619565b61232c576040517f08c379a0000000000000000000000000000000000000000000000000000000008152600401612323906141f2565b60405180910390fd5b50505050565b606060405180602001604052806000815250905090565b606060006001612358846127a0565b01905060008167ffffffffffffffff811115612377576123766132e5565b5b6040519080825280601f01601f1916602001820160405280156123a95781602001600182028036833780820191505090505b509050600082602001820190505b60011561240c578080600190039150507f3031323334353637383961626364656600000000000000000000000000000000600a86061a8153600a8581612400576123ff614212565b5b049450600085036123b7575b819350505050919050565b60007f01ffc9a7000000000000000000000000000000000000000000000000000000007bffffffffffffffffffffffffffffffffffffffffffffffffffffffff1916827bffffffffffffffffffffffffffffffffffffffffffffffffffffffff1916149050919050565b61248d848484846128f3565b60018111156124d1576040517f08c379a00000000000000000000000000000000000000000000000000000000081526004016124c8906142b3565b60405180910390fd5b6000829050600073ffffffffffffffffffffffffffffffffffffffff168573ffffffffffffffffffffffffffffffffffffffff160361251857612513816128f9565b612557565b8373ffffffffffffffffffffffffffffffffffffffff168573ffffffffffffffffffffffffffffffffffffffff1614612556576125558582612942565b5b5b600073ffffffffffffffffffffffffffffffffffffffff168473ffffffffffffffffffffffffffffffffffffffff16036125995761259481612aaf565b6125d8565b8473ffffffffffffffffffffffffffffffffffffffff168473ffffffffffffffffffffffffffffffffffffffff16146125d7576125d68482612b80565b5b5b5050505050565b50505050565b6001816000016000828254019250508190555050565b612615828260405180602001604052806000815250612bff565b5050565b600061263a8473ffffffffffffffffffffffffffffffffffffffff16612c5a565b15612793578373ffffffffffffffffffffffffffffffffffffffff1663150b7a02612663611aae565b8786866040518563ffffffff1660e01b81526004016126859493929190614328565b6020604051808303816000875af19250505080156126c157506040513d601f19601f820116820180604052508101906126be9190614389565b60015b612743573d80600081146126f1576040519150601f19603f3d011682016040523d82523d6000602084013e6126f6565b606091505b50600081510361273b576040517f08c379a0000000000000000000000000000000000000000000000000000000008152600401612732906141f2565b60405180910390fd5b805181602001fd5b63150b7a0260e01b7bffffffffffffffffffffffffffffffffffffffffffffffffffffffff1916817bffffffffffffffffffffffffffffffffffffffffffffffffffffffff191614915050612798565b600190505b949350505050565b600080600090507a184f03e93ff9f4daa797ed6e38ed64bf6a1f01000000000000000083106127fe577a184f03e93ff9f4daa797ed6e38ed64bf6a1f01000000000000000083816127f4576127f3614212565b5b0492506040810190505b6d04ee2d6d415b85acef8100000000831061283b576d04ee2d6d415b85acef8100000000838161283157612830614212565b5b0492506020810190505b662386f26fc10000831061286a57662386f26fc1000083816128605761285f614212565b5b0492506010810190505b6305f5e1008310612893576305f5e100838161288957612888614212565b5b0492506008810190505b61271083106128b85761271083816128ae576128ad614212565b5b0492506004810190505b606483106128db57606483816128d1576128d0614212565b5b0492506002810190505b600a83106128ea576001810190505b80915050919050565b50505050565b6008805490506009600083815260200190815260200160002081905550600881908060018154018082558091505060019003906000526020600020016000909190919091505550565b6000600161294f84610f82565b61295991906143e5565b9050600060076000848152602001908152602001600020549050818114612a3e576000600660008673ffffffffffffffffffffffffffffffffffffffff1673ffffffffffffffffffffffffffffffffffffffff168152602001908152602001600020600084815260200190815260200160002054905080600660008773ffffffffffffffffffffffffffffffffffffffff1673ffffffffffffffffffffffffffffffffffffffff168152602001908152602001600020600084815260200190815260200160002081905550816007600083815260200190815260200160002081905550505b6007600084815260200190815260200160002060009055600660008573ffffffffffffffffffffffffffffffffffffffff1673ffffffffffffffffffffffffffffffffffffffff16815260200190815260200160002060008381526020019081526020016000206000905550505050565b60006001600880549050612ac391906143e5565b9050600060096000848152602001908152602001600020549050600060088381548110612af357612af2613bd5565b5b906000526020600020015490508060088381548110612b1557612b14613bd5565b5b906000526020600020018190555081600960008381526020019081526020016000208190555060096000858152602001908152602001600020600090556008805480612b6457612b63614419565b5b6001900381819060005260206000200160009055905550505050565b6000612b8b83610f82565b905081600660008573ffffffffffffffffffffffffffffffffffffffff1673ffffffffffffffffffffffffffffffffffffffff168152602001908152602001600020600083815260200190815260200160002081905550806007600084815260200190815260200160002081905550505050565b612c098383612c7d565b612c166000848484612619565b612c55576040517f08c379a0000000000000000000000000000000000000000000000000000000008152600401612c4c906141f2565b60405180910390fd5b505050565b6000808273ffffffffffffffffffffffffffffffffffffffff163b119050919050565b600073ffffffffffffffffffffffffffffffffffffffff168273ffffffffffffffffffffffffffffffffffffffff1603612cec576040517f08c379a0000000000000000000000000000000000000000000000000000000008152600401612ce390614494565b60405180910390fd5b612cf581611b6f565b15612d35576040517f08c379a0000000000000000000000000000000000000000000000000000000008152600401612d2c90614500565b60405180910390fd5b612d43600083836001612481565b612d4c81611b6f565b15612d8c576040517f08c379a0000000000000000000000000000000000000000000000000000000008152600401612d8390614500565b60405180910390fd5b6001600360008473ffffffffffffffffffffffffffffffffffffffff1673ffffffffffffffffffffffffffffffffffffffff16815260200190815260200160002060008282540192505081905550816002600083815260200190815260200160002060006101000a81548173ffffffffffffffffffffffffffffffffffffffff021916908373ffffffffffffffffffffffffffffffffffffffff160217905550808273ffffffffffffffffffffffffffffffffffffffff16600073ffffffffffffffffffffffffffffffffffffffff167fddf252ad1be2c89b69c2b068fc378daa952ba7f163c4a11628f55a4df523b3ef60405160405180910390a4612e966000838360016125df565b5050565b828054612ea6906137cc565b90600052602060002090601f016020900481019282612ec85760008555612f0f565b82601f10612ee157805160ff1916838001178555612f0f565b82800160010185558215612f0f579182015b82811115612f0e578251825591602001919060010190612ef3565b5b509050612f1c9190612f20565b5090565b5b80821115612f39576000816000905550600101612f21565b5090565b6000604051905090565b600080fd5b600080fd5b60007fffffffff0000000000000000000000000000000000000000000000000000000082169050919050565b612f8681612f51565b8114612f9157600080fd5b50565b600081359050612fa381612f7d565b92915050565b600060208284031215612fbf57612fbe612f47565b5b6000612fcd84828501612f94565b91505092915050565b60008115159050919050565b612feb81612fd6565b82525050565b60006020820190506130066000830184612fe2565b92915050565b600081519050919050565b600082825260208201905092915050565b60005b8381101561304657808201518184015260208101905061302b565b83811115613055576000848401525b50505050565b6000601f19601f8301169050919050565b60006130778261300c565b6130818185613017565b9350613091818560208601613028565b61309a8161305b565b840191505092915050565b600060208201905081810360008301526130bf818461306c565b905092915050565b6000819050919050565b6130da816130c7565b81146130e557600080fd5b50565b6000813590506130f7816130d1565b92915050565b60006020828403121561311357613112612f47565b5b6000613121848285016130e8565b91505092915050565b600073ffffffffffffffffffffffffffffffffffffffff82169050919050565b60006131558261312a565b9050919050565b6131658161314a565b82525050565b6000602082019050613180600083018461315c565b92915050565b61318f8161314a565b811461319a57600080fd5b50565b6000813590506131ac81613186565b92915050565b600080604083850312156131c9576131c8612f47565b5b60006131d78582860161319d565b92505060206131e8858286016130e8565b9150509250929050565b6131fb816130c7565b82525050565b600060208201905061321660008301846131f2565b92915050565b61322581612fd6565b811461323057600080fd5b50565b6000813590506132428161321c565b92915050565b6000806040838503121561325f5761325e612f47565b5b600061326d858286016130e8565b925050602061327e85828601613233565b9150509250929050565b6000806000606084860312156132a1576132a0612f47565b5b60006132af8682870161319d565b93505060206132c08682870161319d565b92505060406132d1868287016130e8565b9150509250925092565b600080fd5b600080fd5b7f4e487b7100000000000000000000000000000000000000000000000000000000600052604160045260246000fd5b61331d8261305b565b810181811067ffffffffffffffff8211171561333c5761333b6132e5565b5b80604052505050565b600061334f612f3d565b905061335b8282613314565b919050565b600067ffffffffffffffff82111561337b5761337a6132e5565b5b6133848261305b565b9050602081019050919050565b82818337600083830152505050565b60006133b36133ae84613360565b613345565b9050828152602081018484840111156133cf576133ce6132e0565b5b6133da848285613391565b509392505050565b600082601f8301126133f7576133f66132db565b5b81356134078482602086016133a0565b91505092915050565b6000806040838503121561342757613426612f47565b5b6000613435858286016130e8565b925050602083013567ffffffffffffffff81111561345657613455612f4c565b5b613462858286016133e2565b9150509250929050565b6000806040838503121561348357613482612f47565b5b6000613491858286016130e8565b92505060206134a2858286016130e8565b9150509250929050565b6000602082840312156134c2576134c1612f47565b5b600082013567ffffffffffffffff8111156134e0576134df612f4c565b5b6134ec848285016133e2565b91505092915050565b60006020828403121561350b5761350a612f47565b5b60006135198482850161319d565b91505092915050565b600060a082019050818103600083015261353c818861306c565b905061354b602083018761315c565b61355860408301866131f2565b818103606083015261356a818561306c565b9050818103608083015261357e818461306c565b90509695505050505050565b6000806000606084860312156135a3576135a2612f47565b5b600084013567ffffffffffffffff8111156135c1576135c0612f4c565b5b6135cd868287016133e2565b93505060206135de868287016130e8565b92505060406135ef868287016130e8565b9150509250925092565b600080604083850312156136105761360f612f47565b5b600061361e8582860161319d565b925050602061362f85828601613233565b9150509250929050565b600067ffffffffffffffff821115613654576136536132e5565b5b61365d8261305b565b9050602081019050919050565b600061367d61367884613639565b613345565b905082815260208101848484011115613699576136986132e0565b5b6136a4848285613391565b509392505050565b600082601f8301126136c1576136c06132db565b5b81356136d184826020860161366a565b91505092915050565b600080600080608085870312156136f4576136f3612f47565b5b60006137028782880161319d565b94505060206137138782880161319d565b9350506040613724878288016130e8565b925050606085013567ffffffffffffffff81111561374557613744612f4c565b5b613751878288016136ac565b91505092959194509250565b6000806040838503121561377457613773612f47565b5b60006137828582860161319d565b92505060206137938582860161319d565b9150509250929050565b7f4e487b7100000000000000000000000000000000000000000000000000000000600052602260045260246000fd5b600060028204905060018216806137e457607f821691505b6020821081036137f7576137f661379d565b5b50919050565b7f4552433732313a20617070726f76616c20746f2063757272656e74206f776e6560008201527f7200000000000000000000000000000000000000000000000000000000000000602082015250565b6000613859602183613017565b9150613864826137fd565b604082019050919050565b600060208201905081810360008301526138888161384c565b9050919050565b7f4552433732313a20617070726f76652063616c6c6572206973206e6f7420746f60008201527f6b656e206f776e6572206f7220617070726f76656420666f7220616c6c000000602082015250565b60006138eb603d83613017565b91506138f68261388f565b604082019050919050565b6000602082019050818103600083015261391a816138de565b9050919050565b7f4974656d20646f6573206e6f7420657869737400000000000000000000000000600082015250565b6000613957601383613017565b915061396282613921565b602082019050919050565b600060208201905081810360008301526139868161394a565b9050919050565b7f4f6e6c79206d616e7566616374757265722063616e206365727469667920757360008201527f6572730000000000000000000000000000000000000000000000000000000000602082015250565b60006139e9602383613017565b91506139f48261398d565b604082019050919050565b60006020820190508181036000830152613a18816139dc565b9050919050565b7f4552433732313a2063616c6c6572206973206e6f7420746f6b656e206f776e6560008201527f72206f7220617070726f76656400000000000000000000000000000000000000602082015250565b6000613a7b602d83613017565b9150613a8682613a1f565b604082019050919050565b60006020820190508181036000830152613aaa81613a6e565b9050919050565b7f455243373231456e756d657261626c653a206f776e657220696e646578206f7560008201527f74206f6620626f756e6473000000000000000000000000000000000000000000602082015250565b6000613b0d602b83613017565b9150613b1882613ab1565b604082019050919050565b60006020820190508181036000830152613b3c81613b00565b9050919050565b7f455243373231456e756d657261626c653a20676c6f62616c20696e646578206f60008201527f7574206f6620626f756e64730000000000000000000000000000000000000000602082015250565b6000613b9f602c83613017565b9150613baa82613b43565b604082019050919050565b60006020820190508181036000830152613bce81613b92565b9050919050565b7f4e487b7100000000000000000000000000000000000000000000000000000000600052603260045260246000fd5b7f4552433732313a20696e76616c696420746f6b656e2049440000000000000000600082015250565b6000613c3a601883613017565b9150613c4582613c04565b602082019050919050565b60006020820190508181036000830152613c6981613c2d565b9050919050565b7f4552433732313a2061646472657373207a65726f206973206e6f74206120766160008201527f6c6964206f776e65720000000000000000000000000000000000000000000000602082015250565b6000613ccc602983613017565b9150613cd782613c70565b604082019050919050565b60006020820190508181036000830152613cfb81613cbf565b9050919050565b7f5468697320636f6c6c656374696f6e20697320736f6c64206f75742100000000600082015250565b6000613d38601c83613017565b9150613d4382613d02565b602082019050919050565b60006020820190508181036000830152613d6781613d2b565b9050919050565b7f4e6f7420656e6f75676820657468657220746f207075726368617365204e465460008201527f2e00000000000000000000000000000000000000000000000000000000000000602082015250565b6000613dca602183613017565b9150613dd582613d6e565b604082019050919050565b60006020820190508181036000830152613df981613dbd565b9050919050565b7f4974656d207769746820746869732073657269616c206e756d62657220616c7260008201527f6561647920657869737473000000000000000000000000000000000000000000602082015250565b6000613e5c602b83613017565b9150613e6782613e00565b604082019050919050565b60006020820190508181036000830152613e8b81613e4f565b9050919050565b600081905092915050565b6000613ea88261300c565b613eb28185613e92565b9350613ec2818560208601613028565b80840191505092915050565b6000613eda8285613e9d565b9150613ee68284613e9d565b91508190509392505050565b7f4f776e61626c653a206e6577206f776e657220697320746865207a65726f206160008201527f6464726573730000000000000000000000000000000000000000000000000000602082015250565b6000613f4e602683613017565b9150613f5982613ef2565b604082019050919050565b60006020820190508181036000830152613f7d81613f41565b9050919050565b7f4552433732313a207472616e736665722066726f6d20696e636f72726563742060008201527f6f776e6572000000000000000000000000000000000000000000000000000000602082015250565b6000613fe0602583613017565b9150613feb82613f84565b604082019050919050565b6000602082019050818103600083015261400f81613fd3565b9050919050565b7f4552433732313a207472616e7366657220746f20746865207a65726f2061646460008201527f7265737300000000000000000000000000000000000000000000000000000000602082015250565b6000614072602483613017565b915061407d82614016565b604082019050919050565b600060208201905081810360008301526140a181614065565b9050919050565b7f4f776e61626c653a2063616c6c6572206973206e6f7420746865206f776e6572600082015250565b60006140de602083613017565b91506140e9826140a8565b602082019050919050565b6000602082019050818103600083015261410d816140d1565b9050919050565b7f4552433732313a20617070726f766520746f2063616c6c657200000000000000600082015250565b600061414a601983613017565b915061415582614114565b602082019050919050565b600060208201905081810360008301526141798161413d565b9050919050565b7f4552433732313a207472616e7366657220746f206e6f6e20455243373231526560008201527f63656976657220696d706c656d656e7465720000000000000000000000000000602082015250565b60006141dc603283613017565b91506141e782614180565b604082019050919050565b6000602082019050818103600083015261420b816141cf565b9050919050565b7f4e487b7100000000000000000000000000000000000000000000000000000000600052601260045260246000fd5b7f455243373231456e756d657261626c653a20636f6e736563757469766520747260008201527f616e7366657273206e6f7420737570706f727465640000000000000000000000602082015250565b600061429d603583613017565b91506142a882614241565b604082019050919050565b600060208201905081810360008301526142cc81614290565b9050919050565b600081519050919050565b600082825260208201905092915050565b60006142fa826142d3565b61430481856142de565b9350614314818560208601613028565b61431d8161305b565b840191505092915050565b600060808201905061433d600083018761315c565b61434a602083018661315c565b61435760408301856131f2565b818103606083015261436981846142ef565b905095945050505050565b60008151905061438381612f7d565b92915050565b60006020828403121561439f5761439e612f47565b5b60006143ad84828501614374565b91505092915050565b7f4e487b7100000000000000000000000000000000000000000000000000000000600052601160045260246000fd5b60006143f0826130c7565b91506143fb836130c7565b92508282101561440e5761440d6143b6565b5b828203905092915050565b7f4e487b7100000000000000000000000000000000000000000000000000000000600052603160045260246000fd5b7f4552433732313a206d696e7420746f20746865207a65726f2061646472657373600082015250565b600061447e602083613017565b915061448982614448565b602082019050919050565b600060208201905081810360008301526144ad81614471565b9050919050565b7f4552433732313a20746f6b656e20616c7265616479206d696e74656400000000600082015250565b60006144ea601c83613017565b91506144f5826144b4565b602082019050919050565b60006020820190508181036000830152614519816144dd565b905091905056fea2646970667358221220eab3866e3ddf239dadc6c771b4bcf5019be0f6b76c9917c12bb4c19008ac648764736f6c634300080d0033",
  "immutableReferences": {},
  "source": "// SPDX-License-Identifier: MIT\r\npragma solidity ^0.8.13;\r\n\r\nimport \"@openzeppelin/contracts/token/ERC721/extensions/ERC721Enumerable.sol\";\r\nimport \"@openzeppelin/contracts/access/Ownable.sol\";\r\nimport \"@openzeppelin/contracts/utils/Counters.sol\";\r\nimport \"@openzeppelin/contracts/utils/math/SafeMath.sol\";\r\nimport \"./StringUtils.sol\";\r\n\r\ncontract LuxuryItemTracking is ERC721Enumerable, Ownable {\r\n    using Counters for Counters.Counter;\r\n    event LuxuryItemCertificationUpdated(\r\n        uint256 indexed serialNumber,\r\n        bool isCertified\r\n    );\r\n    event LuxuryItemValuationUpdated(\r\n        uint256 indexed serialNumber,\r\n        uint256 valuation\r\n    );\r\n    Counters.Counter private _tokenIds;\r\n    uint public constant MAX_SUPPLY = 10;\r\n    uint public constant PRICE = 0.00001 ether;\r\n\r\n    struct LuxuryItem {\r\n        string name;\r\n        uint256 serialNumber;\r\n        address manufacturer;\r\n        uint256 productionDate;\r\n        string logisticsInfo;\r\n        string salesRecord;\r\n        bool isCertified; // \r\n        uint256 valuation;\r\n        string certification;\r\n        mapping(address => bool) certifiedUsers;\r\n    }\r\n\r\n    mapping(uint256 => LuxuryItem) private luxuryItems;\r\n\r\n    string public baseTokenURI;\r\n\r\n    event ValuationSet(uint256 indexed serialNumber, uint256 valuation);\r\n    event CertificationSet(uint256 indexed serialNumber, string certification);\r\n\r\n    constructor(\r\n        string memory baseURI,\r\n        string memory name,\r\n        string memory symbol\r\n    ) ERC721(name, symbol) {\r\n        setBaseURI(baseURI);\r\n    }\r\n\r\n    function setLuxuryItemValuation(\r\n        uint256 _serialNumber,\r\n        uint256 _valuation\r\n    ) public onlyOwner {\r\n        require(_exists(_serialNumber), \"Item does not exist\");\r\n        luxuryItems[_serialNumber].valuation = _valuation;\r\n        emit ValuationSet(_serialNumber, _valuation);\r\n        emit LuxuryItemValuationUpdated(_serialNumber, _valuation);\r\n    }\r\n\r\n    function setBaseURI(string memory _baseTokenURI) public onlyOwner {\r\n        baseTokenURI = _baseTokenURI;\r\n    }\r\n\r\n    function mintNFT(\r\n        string memory _name,\r\n        uint256 _serialNumber,\r\n        uint256 _productionDate\r\n    ) public payable {\r\n        require(\r\n            _tokenIds.current() < MAX_SUPPLY,\r\n            \"This collection is sold out!\"\r\n        );\r\n        require(msg.value >= PRICE, \"Not enough ether to purchase NFT.\");\r\n        require(\r\n            !_exists(_serialNumber),\r\n            \"Item with this serial number already exists\"\r\n        );\r\n\r\n        _mintSingleNFT(_name, _serialNumber, _productionDate);\r\n    }\r\n\r\n    function _mintSingleNFT(\r\n        string memory _name,\r\n        uint256 _serialNumber,\r\n        uint256 _productionDate\r\n    ) private {\r\n        _tokenIds.increment();\r\n        LuxuryItem storage newItem = luxuryItems[_serialNumber];\r\n        newItem.name = _name;\r\n        newItem.serialNumber = _serialNumber;\r\n        newItem.manufacturer = msg.sender;\r\n        newItem.productionDate = _productionDate;\r\n        newItem.isCertified = false; // \r\n\r\n        _safeMint(msg.sender, _serialNumber);\r\n    }\r\n\r\n    function _exists(\r\n        uint256 _serialNumber\r\n    ) internal view override returns (bool) {\r\n        return luxuryItems[_serialNumber].serialNumber == _serialNumber;\r\n    }\r\n\r\n    function updateLogisticsInfo(\r\n        uint256 _serialNumber,\r\n        string memory _logisticsInfo\r\n    ) public onlyOwner {\r\n        require(_exists(_serialNumber), \"Item does not exist\");\r\n        luxuryItems[_serialNumber].logisticsInfo = _logisticsInfo;\r\n    }\r\n\r\n    function updateSalesRecord(\r\n        uint256 _serialNumber,\r\n        string memory _salesRecord\r\n    ) public onlyOwner {\r\n        require(_exists(_serialNumber), \"Item does not exist\");\r\n        luxuryItems[_serialNumber].salesRecord = _salesRecord;\r\n    }\r\n\r\n    function certifyUser(uint256 _serialNumber, bool _isCertified) public {\r\n        require(_exists(_serialNumber), \"Item does not exist\");\r\n        require(\r\n            luxuryItems[_serialNumber].manufacturer == msg.sender,\r\n            \"Only manufacturer can certify users\"\r\n        );\r\n        luxuryItems[_serialNumber].certifiedUsers[msg.sender] = true;\r\n        emit LuxuryItemCertificationUpdated(_serialNumber, _isCertified);\r\n    }\r\n\r\n  function getItemDetails(uint256 _serialNumber)\r\n    public\r\n    view\r\n    returns (\r\n        string memory,\r\n        address,\r\n        uint256,\r\n        string memory,\r\n        string memory\r\n    )\r\n{\r\n    require(_exists(_serialNumber), \"Item does not exist\");\r\n\r\n    LuxuryItem storage item = luxuryItems[_serialNumber];\r\n    //  logisticsInfo \r\n    string memory logisticsInfo = bytes(item.logisticsInfo).length > 0 ? item.logisticsInfo : \"No logistics info available\";\r\n    //  salesRecord \r\n    string memory salesRecord = bytes(item.salesRecord).length > 0 ? item.salesRecord : \"No sales record available\";\r\n\r\n    return (\r\n        item.name,\r\n        item.manufacturer,\r\n        item.productionDate,\r\n        logisticsInfo,\r\n        salesRecord\r\n    );\r\n}\r\n\r\n\r\n    function setLuxuryItemCertification(\r\n        uint256 _serialNumber,\r\n        string memory _certification\r\n    ) public onlyOwner {\r\n        require(_exists(_serialNumber), \"Item does not exist\");\r\n        luxuryItems[_serialNumber].certification = _certification;\r\n        emit CertificationSet(_serialNumber, _certification);\r\n    }\r\n\r\n    function isCertifiedUser(uint256 _serialNumber) public view returns (bool) {\r\n        require(_exists(_serialNumber), \"Item does not exist\");\r\n        return luxuryItems[_serialNumber].certifiedUsers[msg.sender];\r\n    }\r\n    function itemExists(uint256 _serialNumber) public view returns (bool) {\r\n        return _exists(_serialNumber);\r\n    }\r\n}\r\n",
  "sourcePath": "E:\\\\ddn\\contracts\\LuxuryItemTracking.sol",
  "compiler": {
    "name": "solc",
    "version": "0.8.13+commit.abaa5c0e.Emscripten.clang"
  },
  "schemaVersion": "3.4.16",
  "updatedAt": "2024-04-10T14:37:50.629Z",
  "networkType": "ethereum",
  "devdoc": {
    "kind": "dev",
    "methods": {
      "approve(address,uint256)": {
        "details": "See {IERC721-approve}."
      },
      "balanceOf(address)": {
        "details": "See {IERC721-balanceOf}."
      },
      "getApproved(uint256)": {
        "details": "See {IERC721-getApproved}."
      },
      "isApprovedForAll(address,address)": {
        "details": "See {IERC721-isApprovedForAll}."
      },
      "name()": {
        "details": "See {IERC721Metadata-name}."
      },
      "owner()": {
        "details": "Returns the address of the current owner."
      },
      "ownerOf(uint256)": {
        "details": "See {IERC721-ownerOf}."
      },
      "renounceOwnership()": {
        "details": "Leaves the contract without owner. It will not be possible to call `onlyOwner` functions. Can only be called by the current owner. NOTE: Renouncing ownership will leave the contract without an owner, thereby disabling any functionality that is only available to the owner."
      },
      "safeTransferFrom(address,address,uint256)": {
        "details": "See {IERC721-safeTransferFrom}."
      },
      "safeTransferFrom(address,address,uint256,bytes)": {
        "details": "See {IERC721-safeTransferFrom}."
      },
      "setApprovalForAll(address,bool)": {
        "details": "See {IERC721-setApprovalForAll}."
      },
      "supportsInterface(bytes4)": {
        "details": "See {IERC165-supportsInterface}."
      },
      "symbol()": {
        "details": "See {IERC721Metadata-symbol}."
      },
      "tokenByIndex(uint256)": {
        "details": "See {IERC721Enumerable-tokenByIndex}."
      },
      "tokenOfOwnerByIndex(address,uint256)": {
        "details": "See {IERC721Enumerable-tokenOfOwnerByIndex}."
      },
      "tokenURI(uint256)": {
        "details": "See {IERC721Metadata-tokenURI}."
      },
      "totalSupply()": {
        "details": "See {IERC721Enumerable-totalSupply}."
      },
      "transferFrom(address,address,uint256)": {
        "details": "See {IERC721-transferFrom}."
      },
      "transferOwnership(address)": {
        "details": "Transfers ownership of the contract to a new account (`newOwner`). Can only be called by the current owner."
      }
    },
    "version": 1
  },
  "userdoc": {
    "kind": "user",
    "methods": {},
    "version": 1
  }
}