{
  "contractName": "LuxuryItemTracking",
  "abi": [
    {
      "inputs": [
        {
          "internalType": "string",
          "name": "baseURI",
          "type": "string"
        },
        {
          "internalType": "string",
          "name": "name",
          "type": "string"
        },
        {
          "internalType": "string",
          "name": "symbol",
          "type": "string"
        }
      ],
      "stateMutability": "nonpayable",
      "type": "constructor"
    },
    {
      "anonymous": false,
      "inputs": [
        {
          "indexed": true,
          "internalType": "address",
          "name": "owner",
          "type": "address"
        },
        {
          "indexed": true,
          "internalType": "address",
          "name": "approved",
          "type": "address"
        },
        {
          "indexed": true,
          "internalType": "uint256",
          "name": "tokenId",
          "type": "uint256"
        }
      ],
      "name": "Approval",
      "type": "event"
    },
    {
      "anonymous": false,
      "inputs": [
        {
          "indexed": true,
          "internalType": "address",
          "name": "owner",
          "type": "address"
        },
        {
          "indexed": true,
          "internalType": "address",
          "name": "operator",
          "type": "address"
        },
        {
          "indexed": false,
          "internalType": "bool",
          "name": "approved",
          "type": "bool"
        }
      ],
      "name": "ApprovalForAll",
      "type": "event"
    },
    {
      "anonymous": false,
      "inputs": [
        {
          "indexed": false,
          "internalType": "string",
          "name": "message",
          "type": "string"
        }
      ],
      "name": "DebugMessage",
      "type": "event"
    },
    {
      "anonymous": false,
      "inputs": [
        {
          "indexed": true,
          "internalType": "address",
          "name": "previousOwner",
          "type": "address"
        },
        {
          "indexed": true,
          "internalType": "address",
          "name": "newOwner",
          "type": "address"
        }
      ],
      "name": "OwnershipTransferred",
      "type": "event"
    },
    {
      "anonymous": false,
      "inputs": [
        {
          "indexed": true,
          "internalType": "address",
          "name": "from",
          "type": "address"
        },
        {
          "indexed": true,
          "internalType": "address",
          "name": "to",
          "type": "address"
        },
        {
          "indexed": true,
          "internalType": "uint256",
          "name": "tokenId",
          "type": "uint256"
        }
      ],
      "name": "Transfer",
      "type": "event"
    },
    {
      "inputs": [],
      "name": "MAX_PER_MINT",
      "outputs": [
        {
          "internalType": "uint256",
          "name": "",
          "type": "uint256"
        }
      ],
      "stateMutability": "view",
      "type": "function",
      "constant": true
    },
    {
      "inputs": [],
      "name": "MAX_SUPPLY",
      "outputs": [
        {
          "internalType": "uint256",
          "name": "",
          "type": "uint256"
        }
      ],
      "stateMutability": "view",
      "type": "function",
      "constant": true
    },
    {
      "inputs": [],
      "name": "PRICE",
      "outputs": [
        {
          "internalType": "uint256",
          "name": "",
          "type": "uint256"
        }
      ],
      "stateMutability": "view",
      "type": "function",
      "constant": true
    },
    {
      "inputs": [
        {
          "internalType": "address",
          "name": "to",
          "type": "address"
        },
        {
          "internalType": "uint256",
          "name": "tokenId",
          "type": "uint256"
        }
      ],
      "name": "approve",
      "outputs": [],
      "stateMutability": "nonpayable",
      "type": "function"
    },
    {
      "inputs": [
        {
          "internalType": "address",
          "name": "owner",
          "type": "address"
        }
      ],
      "name": "balanceOf",
      "outputs": [
        {
          "internalType": "uint256",
          "name": "",
          "type": "uint256"
        }
      ],
      "stateMutability": "view",
      "type": "function",
      "constant": true
    },
    {
      "inputs": [],
      "name": "baseTokenURI",
      "outputs": [
        {
          "internalType": "string",
          "name": "",
          "type": "string"
        }
      ],
      "stateMutability": "view",
      "type": "function",
      "constant": true
    },
    {
      "inputs": [
        {
          "internalType": "uint256",
          "name": "tokenId",
          "type": "uint256"
        }
      ],
      "name": "getApproved",
      "outputs": [
        {
          "internalType": "address",
          "name": "",
          "type": "address"
        }
      ],
      "stateMutability": "view",
      "type": "function",
      "constant": true
    },
    {
      "inputs": [
        {
          "internalType": "address",
          "name": "owner",
          "type": "address"
        },
        {
          "internalType": "address",
          "name": "operator",
          "type": "address"
        }
      ],
      "name": "isApprovedForAll",
      "outputs": [
        {
          "internalType": "bool",
          "name": "",
          "type": "bool"
        }
      ],
      "stateMutability": "view",
      "type": "function",
      "constant": true
    },
    {
      "inputs": [],
      "name": "name",
      "outputs": [
        {
          "internalType": "string",
          "name": "",
          "type": "string"
        }
      ],
      "stateMutability": "view",
      "type": "function",
      "constant": true
    },
    {
      "inputs": [],
      "name": "owner",
      "outputs": [
        {
          "internalType": "address",
          "name": "",
          "type": "address"
        }
      ],
      "stateMutability": "view",
      "type": "function",
      "constant": true
    },
    {
      "inputs": [
        {
          "internalType": "uint256",
          "name": "tokenId",
          "type": "uint256"
        }
      ],
      "name": "ownerOf",
      "outputs": [
        {
          "internalType": "address",
          "name": "",
          "type": "address"
        }
      ],
      "stateMutability": "view",
      "type": "function",
      "constant": true
    },
    {
      "inputs": [],
      "name": "renounceOwnership",
      "outputs": [],
      "stateMutability": "nonpayable",
      "type": "function"
    },
    {
      "inputs": [
        {
          "internalType": "address",
          "name": "from",
          "type": "address"
        },
        {
          "internalType": "address",
          "name": "to",
          "type": "address"
        },
        {
          "internalType": "uint256",
          "name": "tokenId",
          "type": "uint256"
        }
      ],
      "name": "safeTransferFrom",
      "outputs": [],
      "stateMutability": "nonpayable",
      "type": "function"
    },
    {
      "inputs": [
        {
          "internalType": "address",
          "name": "from",
          "type": "address"
        },
        {
          "internalType": "address",
          "name": "to",
          "type": "address"
        },
        {
          "internalType": "uint256",
          "name": "tokenId",
          "type": "uint256"
        },
        {
          "internalType": "bytes",
          "name": "data",
          "type": "bytes"
        }
      ],
      "name": "safeTransferFrom",
      "outputs": [],
      "stateMutability": "nonpayable",
      "type": "function"
    },
    {
      "inputs": [
        {
          "internalType": "address",
          "name": "operator",
          "type": "address"
        },
        {
          "internalType": "bool",
          "name": "approved",
          "type": "bool"
        }
      ],
      "name": "setApprovalForAll",
      "outputs": [],
      "stateMutability": "nonpayable",
      "type": "function"
    },
    {
      "inputs": [
        {
          "internalType": "bytes4",
          "name": "interfaceId",
          "type": "bytes4"
        }
      ],
      "name": "supportsInterface",
      "outputs": [
        {
          "internalType": "bool",
          "name": "",
          "type": "bool"
        }
      ],
      "stateMutability": "view",
      "type": "function",
      "constant": true
    },
    {
      "inputs": [],
      "name": "symbol",
      "outputs": [
        {
          "internalType": "string",
          "name": "",
          "type": "string"
        }
      ],
      "stateMutability": "view",
      "type": "function",
      "constant": true
    },
    {
      "inputs": [
        {
          "internalType": "uint256",
          "name": "index",
          "type": "uint256"
        }
      ],
      "name": "tokenByIndex",
      "outputs": [
        {
          "internalType": "uint256",
          "name": "",
          "type": "uint256"
        }
      ],
      "stateMutability": "view",
      "type": "function",
      "constant": true
    },
    {
      "inputs": [
        {
          "internalType": "address",
          "name": "owner",
          "type": "address"
        },
        {
          "internalType": "uint256",
          "name": "index",
          "type": "uint256"
        }
      ],
      "name": "tokenOfOwnerByIndex",
      "outputs": [
        {
          "internalType": "uint256",
          "name": "",
          "type": "uint256"
        }
      ],
      "stateMutability": "view",
      "type": "function",
      "constant": true
    },
    {
      "inputs": [
        {
          "internalType": "uint256",
          "name": "tokenId",
          "type": "uint256"
        }
      ],
      "name": "tokenURI",
      "outputs": [
        {
          "internalType": "string",
          "name": "",
          "type": "string"
        }
      ],
      "stateMutability": "view",
      "type": "function",
      "constant": true
    },
    {
      "inputs": [],
      "name": "totalSupply",
      "outputs": [
        {
          "internalType": "uint256",
          "name": "",
          "type": "uint256"
        }
      ],
      "stateMutability": "view",
      "type": "function",
      "constant": true
    },
    {
      "inputs": [
        {
          "internalType": "address",
          "name": "from",
          "type": "address"
        },
        {
          "internalType": "address",
          "name": "to",
          "type": "address"
        },
        {
          "internalType": "uint256",
          "name": "tokenId",
          "type": "uint256"
        }
      ],
      "name": "transferFrom",
      "outputs": [],
      "stateMutability": "nonpayable",
      "type": "function"
    },
    {
      "inputs": [
        {
          "internalType": "address",
          "name": "newOwner",
          "type": "address"
        }
      ],
      "name": "transferOwnership",
      "outputs": [],
      "stateMutability": "nonpayable",
      "type": "function"
    },
    {
      "inputs": [
        {
          "internalType": "string",
          "name": "_baseTokenURI",
          "type": "string"
        }
      ],
      "name": "setBaseURI",
      "outputs": [],
      "stateMutability": "nonpayable",
      "type": "function"
    },
    {
      "inputs": [
        {
          "internalType": "string",
          "name": "_name",
          "type": "string"
        },
        {
          "internalType": "uint256",
          "name": "_serialNumber",
          "type": "uint256"
        },
        {
          "internalType": "uint256",
          "name": "_productionDate",
          "type": "uint256"
        }
      ],
      "name": "mintNFTs",
      "outputs": [],
      "stateMutability": "payable",
      "type": "function",
      "payable": true
    },
    {
      "inputs": [
        {
          "internalType": "uint256",
          "name": "_serialNumber",
          "type": "uint256"
        },
        {
          "internalType": "string",
          "name": "_logisticsInfo",
          "type": "string"
        }
      ],
      "name": "updateLogisticsInfo",
      "outputs": [],
      "stateMutability": "nonpayable",
      "type": "function"
    },
    {
      "inputs": [
        {
          "internalType": "uint256",
          "name": "_serialNumber",
          "type": "uint256"
        },
        {
          "internalType": "string",
          "name": "_salesRecord",
          "type": "string"
        }
      ],
      "name": "updateSalesRecord",
      "outputs": [],
      "stateMutability": "nonpayable",
      "type": "function"
    },
    {
      "inputs": [
        {
          "internalType": "uint256",
          "name": "_serialNumber",
          "type": "uint256"
        }
      ],
      "name": "certifyUser",
      "outputs": [],
      "stateMutability": "nonpayable",
      "type": "function"
    },
    {
      "inputs": [
        {
          "internalType": "uint256",
          "name": "_serialNumber",
          "type": "uint256"
        }
      ],
      "name": "getItemDetails",
      "outputs": [
        {
          "internalType": "string",
          "name": "",
          "type": "string"
        },
        {
          "internalType": "address",
          "name": "",
          "type": "address"
        },
        {
          "internalType": "uint256",
          "name": "",
          "type": "uint256"
        },
        {
          "internalType": "string",
          "name": "",
          "type": "string"
        },
        {
          "internalType": "string",
          "name": "",
          "type": "string"
        }
      ],
      "stateMutability": "view",
      "type": "function",
      "constant": true
    },
    {
      "inputs": [
        {
          "internalType": "uint256",
          "name": "_serialNumber",
          "type": "uint256"
        }
      ],
      "name": "isCertifiedUser",
      "outputs": [
        {
          "internalType": "bool",
          "name": "",
          "type": "bool"
        }
      ],
      "stateMutability": "view",
      "type": "function",
      "constant": true
    }
  ],
  "bytecode": "0x60806040523480156200001157600080fd5b5060405162004f8b38038062004f8b8339818101604052810190620000379190620004e0565b818181600090805190602001906200005192919062000293565b5080600190805190602001906200006a92919062000293565b5050506200008d62000081620000de60201b60201c565b620000e660201b60201c565b6200009e83620001ac60201b60201c565b7f2ca7ea951db3bc93c3c659c7ddf08261b1b1153e0685c16b88444c6235865c53604051620000cd90620005fa565b60405180910390a1505050620006f2565b600033905090565b6000600a60009054906101000a900473ffffffffffffffffffffffffffffffffffffffff16905081600a60006101000a81548173ffffffffffffffffffffffffffffffffffffffff021916908373ffffffffffffffffffffffffffffffffffffffff1602179055508173ffffffffffffffffffffffffffffffffffffffff168173ffffffffffffffffffffffffffffffffffffffff167f8be0079c531659141344cd1fd0a4f28419497f9722a3daafe3b4186f6b6457e060405160405180910390a35050565b620001bc620001d860201b60201c565b80600e9080519060200190620001d492919062000293565b5050565b620001e8620000de60201b60201c565b73ffffffffffffffffffffffffffffffffffffffff166200020e6200026960201b60201c565b73ffffffffffffffffffffffffffffffffffffffff161462000267576040517f08c379a00000000000000000000000000000000000000000000000000000000081526004016200025e906200066c565b60405180910390fd5b565b6000600a60009054906101000a900473ffffffffffffffffffffffffffffffffffffffff16905090565b828054620002a190620006bd565b90600052602060002090601f016020900481019282620002c5576000855562000311565b82601f10620002e057805160ff191683800117855562000311565b8280016001018555821562000311579182015b8281111562000310578251825591602001919060010190620002f3565b5b50905062000320919062000324565b5090565b5b808211156200033f57600081600090555060010162000325565b5090565b6000604051905090565b600080fd5b600080fd5b600080fd5b600080fd5b6000601f19601f8301169050919050565b7f4e487b7100000000000000000000000000000000000000000000000000000000600052604160045260246000fd5b620003ac8262000361565b810181811067ffffffffffffffff82111715620003ce57620003cd62000372565b5b80604052505050565b6000620003e362000343565b9050620003f18282620003a1565b919050565b600067ffffffffffffffff82111562000414576200041362000372565b5b6200041f8262000361565b9050602081019050919050565b60005b838110156200044c5780820151818401526020810190506200042f565b838111156200045c576000848401525b50505050565b6000620004796200047384620003f6565b620003d7565b9050828152602081018484840111156200049857620004976200035c565b5b620004a58482856200042c565b509392505050565b600082601f830112620004c557620004c462000357565b5b8151620004d784826020860162000462565b91505092915050565b600080600060608486031215620004fc57620004fb6200034d565b5b600084015167ffffffffffffffff8111156200051d576200051c62000352565b5b6200052b86828701620004ad565b935050602084015167ffffffffffffffff8111156200054f576200054e62000352565b5b6200055d86828701620004ad565b925050604084015167ffffffffffffffff81111562000581576200058062000352565b5b6200058f86828701620004ad565b9150509250925092565b600082825260208201905092915050565b7f436f6e7472616374206465706c6f796564207375636365737366756c6c792100600082015250565b6000620005e2601f8362000599565b9150620005ef82620005aa565b602082019050919050565b600060208201905081810360008301526200061581620005d3565b9050919050565b7f4f776e61626c653a2063616c6c6572206973206e6f7420746865206f776e6572600082015250565b60006200065460208362000599565b915062000661826200061c565b602082019050919050565b60006020820190508181036000830152620006878162000645565b9050919050565b7f4e487b7100000000000000000000000000000000000000000000000000000000600052602260045260246000fd5b60006002820490506001821680620006d657607f821691505b602082108103620006ec57620006eb6200068e565b5b50919050565b61488980620007026000396000f3fe6080604052600436106101cd5760003560e01c806370a08231116100f7578063a8b83a3d11610095578063c87b56dd11610064578063c87b56dd1461068f578063d547cfb7146106cc578063e985e9c5146106f7578063f2fde38b14610734576101cd565b8063a8b83a3d146105d7578063b0a5430d14610614578063b10b66ca1461063d578063b88d4fde14610666576101cd565b80638d859f3e116100d15780638d859f3e1461052d5780638da5cb5b1461055857806395d89b4114610583578063a22cb465146105ae576101cd565b806370a0823114610498578063715018a6146104d557806373004ca0146104ec576101cd565b80632d58e6ce1161016f5780634f6ccce71161013e5780634f6ccce7146103d957806355f804b3146104165780636352211e1461043f578063700874a51461047c576101cd565b80632d58e6ce1461031f5780632f745c591461034857806332cb6b0c1461038557806342842e0e146103b0576101cd565b8063095ea7b3116101ab578063095ea7b31461027757806309d42b30146102a057806318160ddd146102cb57806323b872dd146102f6576101cd565b806301ffc9a7146101d257806306fdde031461020f578063081812fc1461023a575b600080fd5b3480156101de57600080fd5b506101f960048036038101906101f49190613245565b61075d565b604051610206919061328d565b60405180910390f35b34801561021b57600080fd5b506102246107d7565b6040516102319190613341565b60405180910390f35b34801561024657600080fd5b50610261600480360381019061025c9190613399565b610869565b60405161026e9190613407565b60405180910390f35b34801561028357600080fd5b5061029e6004803603810190610299919061344e565b6108af565b005b3480156102ac57600080fd5b506102b56109c6565b6040516102c2919061349d565b60405180910390f35b3480156102d757600080fd5b506102e06109cb565b6040516102ed919061349d565b60405180910390f35b34801561030257600080fd5b5061031d600480360381019061031891906134b8565b6109d8565b005b34801561032b57600080fd5b5061034660048036038101906103419190613640565b610a38565b005b34801561035457600080fd5b5061036f600480360381019061036a919061344e565b610ab7565b60405161037c919061349d565b60405180910390f35b34801561039157600080fd5b5061039a610b5c565b6040516103a7919061349d565b60405180910390f35b3480156103bc57600080fd5b506103d760048036038101906103d291906134b8565b610b61565b005b3480156103e557600080fd5b5061040060048036038101906103fb9190613399565b610b81565b60405161040d919061349d565b60405180910390f35b34801561042257600080fd5b5061043d6004803603810190610438919061369c565b610bf2565b005b34801561044b57600080fd5b5061046660048036038101906104619190613399565b610c14565b6040516104739190613407565b60405180910390f35b610496600480360381019061049191906136e5565b610c9a565b005b3480156104a457600080fd5b506104bf60048036038101906104ba9190613754565b6110e6565b6040516104cc919061349d565b60405180910390f35b3480156104e157600080fd5b506104ea61119d565b005b3480156104f857600080fd5b50610513600480360381019061050e9190613399565b6111b1565b604051610524959493929190613781565b60405180910390f35b34801561053957600080fd5b50610542611406565b60405161054f919061349d565b60405180910390f35b34801561056457600080fd5b5061056d611410565b60405161057a9190613407565b60405180910390f35b34801561058f57600080fd5b5061059861143a565b6040516105a59190613341565b60405180910390f35b3480156105ba57600080fd5b506105d560048036038101906105d09190613815565b6114cc565b005b3480156105e357600080fd5b506105fe60048036038101906105f99190613399565b6114e2565b60405161060b919061328d565b60405180910390f35b34801561062057600080fd5b5061063b60048036038101906106369190613640565b611594565b005b34801561064957600080fd5b50610664600480360381019061065f9190613399565b611613565b005b34801561067257600080fd5b5061068d600480360381019061068891906138f6565b61176e565b005b34801561069b57600080fd5b506106b660048036038101906106b19190613399565b6117d0565b6040516106c39190613341565b60405180910390f35b3480156106d857600080fd5b506106e1611838565b6040516106ee9190613341565b60405180910390f35b34801561070357600080fd5b5061071e60048036038101906107199190613979565b6118c6565b60405161072b919061328d565b60405180910390f35b34801561074057600080fd5b5061075b60048036038101906107569190613754565b61195a565b005b60007f780e9d63000000000000000000000000000000000000000000000000000000007bffffffffffffffffffffffffffffffffffffffffffffffffffffffff1916827bffffffffffffffffffffffffffffffffffffffffffffffffffffffff191614806107d057506107cf826119dd565b5b9050919050565b6060600080546107e6906139e8565b80601f0160208091040260200160405190810160405280929190818152602001828054610812906139e8565b801561085f5780601f106108345761010080835404028352916020019161085f565b820191906000526020600020905b81548152906001019060200180831161084257829003601f168201915b5050505050905090565b600061087482611abf565b6004600083815260200190815260200160002060009054906101000a900473ffffffffffffffffffffffffffffffffffffffff169050919050565b60006108ba82610c14565b90508073ffffffffffffffffffffffffffffffffffffffff168373ffffffffffffffffffffffffffffffffffffffff160361092a576040517f08c379a000000000000000000000000000000000000000000000000000000000815260040161092190613a8b565b60405180910390fd5b8073ffffffffffffffffffffffffffffffffffffffff16610949611b0a565b73ffffffffffffffffffffffffffffffffffffffff161480610978575061097781610972611b0a565b6118c6565b5b6109b7576040517f08c379a00000000000000000000000000000000000000000000000000000000081526004016109ae90613b1d565b60405180910390fd5b6109c18383611b12565b505050565b600581565b6000600880549050905090565b6109e96109e3611b0a565b82611bcb565b610a28576040517f08c379a0000000000000000000000000000000000000000000000000000000008152600401610a1f90613baf565b60405180910390fd5b610a33838383611c60565b505050565b610a40611f59565b610a4982611fd7565b610a88576040517f08c379a0000000000000000000000000000000000000000000000000000000008152600401610a7f90613c1b565b60405180910390fd5b80600c60008481526020019081526020016000206005019080519060200190610ab2929190613136565b505050565b6000610ac2836110e6565b8210610b03576040517f08c379a0000000000000000000000000000000000000000000000000000000008152600401610afa90613cad565b60405180910390fd5b600660008473ffffffffffffffffffffffffffffffffffffffff1673ffffffffffffffffffffffffffffffffffffffff168152602001908152602001600020600083815260200190815260200160002054905092915050565b600a81565b610b7c8383836040518060200160405280600081525061176e565b505050565b6000610b8b6109cb565b8210610bcc576040517f08c379a0000000000000000000000000000000000000000000000000000000008152600401610bc390613d3f565b60405180910390fd5b60088281548110610be057610bdf613d5f565b5b90600052602060002001549050919050565b610bfa611f59565b80600e9080519060200190610c10929190613136565b5050565b600080610c2083612014565b9050600073ffffffffffffffffffffffffffffffffffffffff168173ffffffffffffffffffffffffffffffffffffffff1603610c91576040517f08c379a0000000000000000000000000000000000000000000000000000000008152600401610c8890613dda565b60405180910390fd5b80915050919050565b6000610ca6600b612051565b9050600a610cbe60018361205f90919063ffffffff16565b1115610cff576040517f08c379a0000000000000000000000000000000000000000000000000000000008152600401610cf690613e46565b60405180910390fd5b600a610d0b600b612051565b10610d4b576040517f08c379a0000000000000000000000000000000000000000000000000000000008152600401610d4290613e46565b60405180910390fd5b600a610d57600b612051565b10610d97576040517f08c379a0000000000000000000000000000000000000000000000000000000008152600401610d8e90613e46565b60405180910390fd5b600a610da3600b612051565b10610de3576040517f08c379a0000000000000000000000000000000000000000000000000000000008152600401610dda90613e46565b60405180910390fd5b600a610def600b612051565b10610e2f576040517f08c379a0000000000000000000000000000000000000000000000000000000008152600401610e2690613e46565b60405180910390fd5b600a610e3b600b612051565b10610e7b576040517f08c379a0000000000000000000000000000000000000000000000000000000008152600401610e7290613e46565b60405180910390fd5b610e8483611fd7565b15610ec4576040517f08c379a0000000000000000000000000000000000000000000000000000000008152600401610ebb90613ed8565b60405180910390fd5b600a610ed0600b612051565b10610f10576040517f08c379a0000000000000000000000000000000000000000000000000000000008152600401610f0790613e46565b60405180910390fd5b600a610f1c600b612051565b10610f5c576040517f08c379a0000000000000000000000000000000000000000000000000000000008152600401610f5390613e46565b60405180910390fd5b600a610f68600b612051565b10610fa8576040517f08c379a0000000000000000000000000000000000000000000000000000000008152600401610f9f90613e46565b60405180910390fd5b600a610fb4600b612051565b10610ff4576040517f08c379a0000000000000000000000000000000000000000000000000000000008152600401610feb90613e46565b60405180910390fd5b600a611000600b612051565b10611040576040517f08c379a000000000000000000000000000000000000000000000000000000000815260040161103790613e46565b60405180910390fd5b600a61104c600b612051565b1061108c576040517f08c379a000000000000000000000000000000000000000000000000000000000815260040161108390613e46565b60405180910390fd5b6509184e72a0003410156110d5576040517f08c379a00000000000000000000000000000000000000000000000000000000081526004016110cc90613f6a565b60405180910390fd5b6110e0848484612075565b50505050565b60008073ffffffffffffffffffffffffffffffffffffffff168273ffffffffffffffffffffffffffffffffffffffff1603611156576040517f08c379a000000000000000000000000000000000000000000000000000000000815260040161114d90613ffc565b60405180910390fd5b600360008373ffffffffffffffffffffffffffffffffffffffff1673ffffffffffffffffffffffffffffffffffffffff168152602001908152602001600020549050919050565b6111a5611f59565b6111af6000612165565b565b60606000806060806111c286611fd7565b611201576040517f08c379a00000000000000000000000000000000000000000000000000000000081526004016111f890613c1b565b60405180910390fd5b6000600c60008881526020019081526020016000209050806000018160020160009054906101000a900473ffffffffffffffffffffffffffffffffffffffff168260030154836004018460050184805461125a906139e8565b80601f0160208091040260200160405190810160405280929190818152602001828054611286906139e8565b80156112d35780601f106112a8576101008083540402835291602001916112d3565b820191906000526020600020905b8154815290600101906020018083116112b657829003601f168201915b505050505094508180546112e6906139e8565b80601f0160208091040260200160405190810160405280929190818152602001828054611312906139e8565b801561135f5780601f106113345761010080835404028352916020019161135f565b820191906000526020600020905b81548152906001019060200180831161134257829003601f168201915b50505050509150808054611372906139e8565b80601f016020809104026020016040519081016040528092919081815260200182805461139e906139e8565b80156113eb5780601f106113c0576101008083540402835291602001916113eb565b820191906000526020600020905b8154815290600101906020018083116113ce57829003601f168201915b50505050509050955095509550955095505091939590929450565b6509184e72a00081565b6000600a60009054906101000a900473ffffffffffffffffffffffffffffffffffffffff16905090565b606060018054611449906139e8565b80601f0160208091040260200160405190810160405280929190818152602001828054611475906139e8565b80156114c25780601f10611497576101008083540402835291602001916114c2565b820191906000526020600020905b8154815290600101906020018083116114a557829003601f168201915b5050505050905090565b6114de6114d7611b0a565b838361222b565b5050565b60006114ed82611fd7565b61152c576040517f08c379a000000000000000000000000000000000000000000000000000000000815260040161152390613c1b565b60405180910390fd5b600c600083815260200190815260200160002060060160003373ffffffffffffffffffffffffffffffffffffffff1673ffffffffffffffffffffffffffffffffffffffff16815260200190815260200160002060009054906101000a900460ff169050919050565b61159c611f59565b6115a582611fd7565b6115e4576040517f08c379a00000000000000000000000000000000000000000000000000000000081526004016115db90613c1b565b60405180910390fd5b80600c6000848152602001908152602001600020600401908051906020019061160e929190613136565b505050565b61161c81611fd7565b61165b576040517f08c379a000000000000000000000000000000000000000000000000000000000815260040161165290613c1b565b60405180910390fd5b3373ffffffffffffffffffffffffffffffffffffffff16600c600083815260200190815260200160002060020160009054906101000a900473ffffffffffffffffffffffffffffffffffffffff1673ffffffffffffffffffffffffffffffffffffffff16146116ff576040517f08c379a00000000000000000000000000000000000000000000000000000000081526004016116f69061408e565b60405180910390fd5b6001600c600083815260200190815260200160002060060160003373ffffffffffffffffffffffffffffffffffffffff1673ffffffffffffffffffffffffffffffffffffffff16815260200190815260200160002060006101000a81548160ff02191690831515021790555050565b61177f611779611b0a565b83611bcb565b6117be576040517f08c379a00000000000000000000000000000000000000000000000000000000081526004016117b590613baf565b60405180910390fd5b6117ca84848484612397565b50505050565b60606117db82611abf565b60006117e56123f3565b905060008151116118055760405180602001604052806000815250611830565b8061180f84612485565b6040516020016118209291906140ea565b6040516020818303038152906040525b915050919050565b600e8054611845906139e8565b80601f0160208091040260200160405190810160405280929190818152602001828054611871906139e8565b80156118be5780601f10611893576101008083540402835291602001916118be565b820191906000526020600020905b8154815290600101906020018083116118a157829003601f168201915b505050505081565b6000600560008473ffffffffffffffffffffffffffffffffffffffff1673ffffffffffffffffffffffffffffffffffffffff16815260200190815260200160002060008373ffffffffffffffffffffffffffffffffffffffff1673ffffffffffffffffffffffffffffffffffffffff16815260200190815260200160002060009054906101000a900460ff16905092915050565b611962611f59565b600073ffffffffffffffffffffffffffffffffffffffff168173ffffffffffffffffffffffffffffffffffffffff16036119d1576040517f08c379a00000000000000000000000000000000000000000000000000000000081526004016119c890614180565b60405180910390fd5b6119da81612165565b50565b60007f80ac58cd000000000000000000000000000000000000000000000000000000007bffffffffffffffffffffffffffffffffffffffffffffffffffffffff1916827bffffffffffffffffffffffffffffffffffffffffffffffffffffffff19161480611aa857507f5b5e139f000000000000000000000000000000000000000000000000000000007bffffffffffffffffffffffffffffffffffffffffffffffffffffffff1916827bffffffffffffffffffffffffffffffffffffffffffffffffffffffff1916145b80611ab85750611ab782612553565b5b9050919050565b611ac881611fd7565b611b07576040517f08c379a0000000000000000000000000000000000000000000000000000000008152600401611afe90613dda565b60405180910390fd5b50565b600033905090565b816004600083815260200190815260200160002060006101000a81548173ffffffffffffffffffffffffffffffffffffffff021916908373ffffffffffffffffffffffffffffffffffffffff160217905550808273ffffffffffffffffffffffffffffffffffffffff16611b8583610c14565b73ffffffffffffffffffffffffffffffffffffffff167f8c5be1e5ebec7d5bd14f71427d1e84f3dd0314c0f7b2291e5b200ac8c7c3b92560405160405180910390a45050565b600080611bd783610c14565b90508073ffffffffffffffffffffffffffffffffffffffff168473ffffffffffffffffffffffffffffffffffffffff161480611c195750611c1881856118c6565b5b80611c5757508373ffffffffffffffffffffffffffffffffffffffff16611c3f84610869565b73ffffffffffffffffffffffffffffffffffffffff16145b91505092915050565b8273ffffffffffffffffffffffffffffffffffffffff16611c8082610c14565b73ffffffffffffffffffffffffffffffffffffffff1614611cd6576040517f08c379a0000000000000000000000000000000000000000000000000000000008152600401611ccd90614212565b60405180910390fd5b600073ffffffffffffffffffffffffffffffffffffffff168273ffffffffffffffffffffffffffffffffffffffff1603611d45576040517f08c379a0000000000000000000000000000000000000000000000000000000008152600401611d3c906142a4565b60405180910390fd5b611d5283838360016125bd565b8273ffffffffffffffffffffffffffffffffffffffff16611d7282610c14565b73ffffffffffffffffffffffffffffffffffffffff1614611dc8576040517f08c379a0000000000000000000000000000000000000000000000000000000008152600401611dbf90614212565b60405180910390fd5b6004600082815260200190815260200160002060006101000a81549073ffffffffffffffffffffffffffffffffffffffff02191690556001600360008573ffffffffffffffffffffffffffffffffffffffff1673ffffffffffffffffffffffffffffffffffffffff168152602001908152602001600020600082825403925050819055506001600360008473ffffffffffffffffffffffffffffffffffffffff1673ffffffffffffffffffffffffffffffffffffffff16815260200190815260200160002060008282540192505081905550816002600083815260200190815260200160002060006101000a81548173ffffffffffffffffffffffffffffffffffffffff021916908373ffffffffffffffffffffffffffffffffffffffff160217905550808273ffffffffffffffffffffffffffffffffffffffff168473ffffffffffffffffffffffffffffffffffffffff167fddf252ad1be2c89b69c2b068fc378daa952ba7f163c4a11628f55a4df523b3ef60405160405180910390a4611f54838383600161271b565b505050565b611f61611b0a565b73ffffffffffffffffffffffffffffffffffffffff16611f7f611410565b73ffffffffffffffffffffffffffffffffffffffff1614611fd5576040517f08c379a0000000000000000000000000000000000000000000000000000000008152600401611fcc90614310565b60405180910390fd5b565b6000600d611fe483612721565b604051611ff19190614330565b908152602001604051809103902060009054906101000a900460ff169050919050565b60006002600083815260200190815260200160002060009054906101000a900473ffffffffffffffffffffffffffffffffffffffff169050919050565b600081600001549050919050565b6000818361206d9190614376565b905092915050565b61207f600b612881565b6000600c600061208f600b612051565b81526020019081526020016000209050838160000190805190602001906120b7929190613136565b50828160010181905550338160020160006101000a81548173ffffffffffffffffffffffffffffffffffffffff021916908373ffffffffffffffffffffffffffffffffffffffff1602179055508181600301819055506001600d61211a85612721565b6040516121279190614330565b908152602001604051809103902060006101000a81548160ff02191690831515021790555061215f3361215a600b612051565b612897565b50505050565b6000600a60009054906101000a900473ffffffffffffffffffffffffffffffffffffffff16905081600a60006101000a81548173ffffffffffffffffffffffffffffffffffffffff021916908373ffffffffffffffffffffffffffffffffffffffff1602179055508173ffffffffffffffffffffffffffffffffffffffff168173ffffffffffffffffffffffffffffffffffffffff167f8be0079c531659141344cd1fd0a4f28419497f9722a3daafe3b4186f6b6457e060405160405180910390a35050565b8173ffffffffffffffffffffffffffffffffffffffff168373ffffffffffffffffffffffffffffffffffffffff1603612299576040517f08c379a000000000000000000000000000000000000000000000000000000000815260040161229090614418565b60405180910390fd5b80600560008573ffffffffffffffffffffffffffffffffffffffff1673ffffffffffffffffffffffffffffffffffffffff16815260200190815260200160002060008473ffffffffffffffffffffffffffffffffffffffff1673ffffffffffffffffffffffffffffffffffffffff16815260200190815260200160002060006101000a81548160ff0219169083151502179055508173ffffffffffffffffffffffffffffffffffffffff168373ffffffffffffffffffffffffffffffffffffffff167f17307eab39ab6107e8899845ad3d59bd9653f200f220920489ca2b5937696c318360405161238a919061328d565b60405180910390a3505050565b6123a2848484611c60565b6123ae848484846128b5565b6123ed576040517f08c379a00000000000000000000000000000000000000000000000000000000081526004016123e4906144aa565b60405180910390fd5b50505050565b6060600e8054612402906139e8565b80601f016020809104026020016040519081016040528092919081815260200182805461242e906139e8565b801561247b5780601f106124505761010080835404028352916020019161247b565b820191906000526020600020905b81548152906001019060200180831161245e57829003601f168201915b5050505050905090565b60606000600161249484612a3c565b01905060008167ffffffffffffffff8111156124b3576124b2613515565b5b6040519080825280601f01601f1916602001820160405280156124e55781602001600182028036833780820191505090505b509050600082602001820190505b600115612548578080600190039150507f3031323334353637383961626364656600000000000000000000000000000000600a86061a8153600a858161253c5761253b6144ca565b5b049450600085036124f3575b819350505050919050565b60007f01ffc9a7000000000000000000000000000000000000000000000000000000007bffffffffffffffffffffffffffffffffffffffffffffffffffffffff1916827bffffffffffffffffffffffffffffffffffffffffffffffffffffffff1916149050919050565b6125c984848484612b8f565b600181111561260d576040517f08c379a00000000000000000000000000000000000000000000000000000000081526004016126049061456b565b60405180910390fd5b6000829050600073ffffffffffffffffffffffffffffffffffffffff168573ffffffffffffffffffffffffffffffffffffffff16036126545761264f81612b95565b612693565b8373ffffffffffffffffffffffffffffffffffffffff168573ffffffffffffffffffffffffffffffffffffffff1614612692576126918582612bde565b5b5b600073ffffffffffffffffffffffffffffffffffffffff168473ffffffffffffffffffffffffffffffffffffffff16036126d5576126d081612d4b565b612714565b8473ffffffffffffffffffffffffffffffffffffffff168473ffffffffffffffffffffffffffffffffffffffff1614612713576127128482612e1c565b5b5b5050505050565b50505050565b606060008203612768576040518060400160405280600181526020017f3000000000000000000000000000000000000000000000000000000000000000815250905061287c565b600082905060005b6000821461279a5780806127839061458b565b915050600a8261279391906145d3565b9150612770565b60008167ffffffffffffffff8111156127b6576127b5613515565b5b6040519080825280601f01601f1916602001820160405280156127e85781602001600182028036833780820191505090505b5090505b60008514612875576001826128019190614604565b9150600a856128109190614638565b603061281c9190614376565b60f81b81838151811061283257612831613d5f565b5b60200101907effffffffffffffffffffffffffffffffffffffffffffffffffffffffffffff1916908160001a905350600a8561286e91906145d3565b94506127ec565b8093505050505b919050565b6001816000016000828254019250508190555050565b6128b1828260405180602001604052806000815250612e9b565b5050565b60006128d68473ffffffffffffffffffffffffffffffffffffffff16612ef6565b15612a2f578373ffffffffffffffffffffffffffffffffffffffff1663150b7a026128ff611b0a565b8786866040518563ffffffff1660e01b815260040161292194939291906146be565b6020604051808303816000875af192505050801561295d57506040513d601f19601f8201168201806040525081019061295a919061471f565b60015b6129df573d806000811461298d576040519150601f19603f3d011682016040523d82523d6000602084013e612992565b606091505b5060008151036129d7576040517f08c379a00000000000000000000000000000000000000000000000000000000081526004016129ce906144aa565b60405180910390fd5b805181602001fd5b63150b7a0260e01b7bffffffffffffffffffffffffffffffffffffffffffffffffffffffff1916817bffffffffffffffffffffffffffffffffffffffffffffffffffffffff191614915050612a34565b600190505b949350505050565b600080600090507a184f03e93ff9f4daa797ed6e38ed64bf6a1f0100000000000000008310612a9a577a184f03e93ff9f4daa797ed6e38ed64bf6a1f0100000000000000008381612a9057612a8f6144ca565b5b0492506040810190505b6d04ee2d6d415b85acef81000000008310612ad7576d04ee2d6d415b85acef81000000008381612acd57612acc6144ca565b5b0492506020810190505b662386f26fc100008310612b0657662386f26fc100008381612afc57612afb6144ca565b5b0492506010810190505b6305f5e1008310612b2f576305f5e1008381612b2557612b246144ca565b5b0492506008810190505b6127108310612b54576127108381612b4a57612b496144ca565b5b0492506004810190505b60648310612b775760648381612b6d57612b6c6144ca565b5b0492506002810190505b600a8310612b86576001810190505b80915050919050565b50505050565b6008805490506009600083815260200190815260200160002081905550600881908060018154018082558091505060019003906000526020600020016000909190919091505550565b60006001612beb846110e6565b612bf59190614604565b9050600060076000848152602001908152602001600020549050818114612cda576000600660008673ffffffffffffffffffffffffffffffffffffffff1673ffffffffffffffffffffffffffffffffffffffff168152602001908152602001600020600084815260200190815260200160002054905080600660008773ffffffffffffffffffffffffffffffffffffffff1673ffffffffffffffffffffffffffffffffffffffff168152602001908152602001600020600084815260200190815260200160002081905550816007600083815260200190815260200160002081905550505b6007600084815260200190815260200160002060009055600660008573ffffffffffffffffffffffffffffffffffffffff1673ffffffffffffffffffffffffffffffffffffffff16815260200190815260200160002060008381526020019081526020016000206000905550505050565b60006001600880549050612d5f9190614604565b9050600060096000848152602001908152602001600020549050600060088381548110612d8f57612d8e613d5f565b5b906000526020600020015490508060088381548110612db157612db0613d5f565b5b906000526020600020018190555081600960008381526020019081526020016000208190555060096000858152602001908152602001600020600090556008805480612e0057612dff61474c565b5b6001900381819060005260206000200160009055905550505050565b6000612e27836110e6565b905081600660008573ffffffffffffffffffffffffffffffffffffffff1673ffffffffffffffffffffffffffffffffffffffff168152602001908152602001600020600083815260200190815260200160002081905550806007600084815260200190815260200160002081905550505050565b612ea58383612f19565b612eb260008484846128b5565b612ef1576040517f08c379a0000000000000000000000000000000000000000000000000000000008152600401612ee8906144aa565b60405180910390fd5b505050565b6000808273ffffffffffffffffffffffffffffffffffffffff163b119050919050565b600073ffffffffffffffffffffffffffffffffffffffff168273ffffffffffffffffffffffffffffffffffffffff1603612f88576040517f08c379a0000000000000000000000000000000000000000000000000000000008152600401612f7f906147c7565b60405180910390fd5b612f9181611fd7565b15612fd1576040517f08c379a0000000000000000000000000000000000000000000000000000000008152600401612fc890614833565b60405180910390fd5b612fdf6000838360016125bd565b612fe881611fd7565b15613028576040517f08c379a000000000000000000000000000000000000000000000000000000000815260040161301f90614833565b60405180910390fd5b6001600360008473ffffffffffffffffffffffffffffffffffffffff1673ffffffffffffffffffffffffffffffffffffffff16815260200190815260200160002060008282540192505081905550816002600083815260200190815260200160002060006101000a81548173ffffffffffffffffffffffffffffffffffffffff021916908373ffffffffffffffffffffffffffffffffffffffff160217905550808273ffffffffffffffffffffffffffffffffffffffff16600073ffffffffffffffffffffffffffffffffffffffff167fddf252ad1be2c89b69c2b068fc378daa952ba7f163c4a11628f55a4df523b3ef60405160405180910390a461313260008383600161271b565b5050565b828054613142906139e8565b90600052602060002090601f01602090048101928261316457600085556131ab565b82601f1061317d57805160ff19168380011785556131ab565b828001600101855582156131ab579182015b828111156131aa57825182559160200191906001019061318f565b5b5090506131b891906131bc565b5090565b5b808211156131d55760008160009055506001016131bd565b5090565b6000604051905090565b600080fd5b600080fd5b60007fffffffff0000000000000000000000000000000000000000000000000000000082169050919050565b613222816131ed565b811461322d57600080fd5b50565b60008135905061323f81613219565b92915050565b60006020828403121561325b5761325a6131e3565b5b600061326984828501613230565b91505092915050565b60008115159050919050565b61328781613272565b82525050565b60006020820190506132a2600083018461327e565b92915050565b600081519050919050565b600082825260208201905092915050565b60005b838110156132e25780820151818401526020810190506132c7565b838111156132f1576000848401525b50505050565b6000601f19601f8301169050919050565b6000613313826132a8565b61331d81856132b3565b935061332d8185602086016132c4565b613336816132f7565b840191505092915050565b6000602082019050818103600083015261335b8184613308565b905092915050565b6000819050919050565b61337681613363565b811461338157600080fd5b50565b6000813590506133938161336d565b92915050565b6000602082840312156133af576133ae6131e3565b5b60006133bd84828501613384565b91505092915050565b600073ffffffffffffffffffffffffffffffffffffffff82169050919050565b60006133f1826133c6565b9050919050565b613401816133e6565b82525050565b600060208201905061341c60008301846133f8565b92915050565b61342b816133e6565b811461343657600080fd5b50565b60008135905061344881613422565b92915050565b60008060408385031215613465576134646131e3565b5b600061347385828601613439565b925050602061348485828601613384565b9150509250929050565b61349781613363565b82525050565b60006020820190506134b2600083018461348e565b92915050565b6000806000606084860312156134d1576134d06131e3565b5b60006134df86828701613439565b93505060206134f086828701613439565b925050604061350186828701613384565b9150509250925092565b600080fd5b600080fd5b7f4e487b7100000000000000000000000000000000000000000000000000000000600052604160045260246000fd5b61354d826132f7565b810181811067ffffffffffffffff8211171561356c5761356b613515565b5b80604052505050565b600061357f6131d9565b905061358b8282613544565b919050565b600067ffffffffffffffff8211156135ab576135aa613515565b5b6135b4826132f7565b9050602081019050919050565b82818337600083830152505050565b60006135e36135de84613590565b613575565b9050828152602081018484840111156135ff576135fe613510565b5b61360a8482856135c1565b509392505050565b600082601f8301126136275761362661350b565b5b81356136378482602086016135d0565b91505092915050565b60008060408385031215613657576136566131e3565b5b600061366585828601613384565b925050602083013567ffffffffffffffff811115613686576136856131e8565b5b61369285828601613612565b9150509250929050565b6000602082840312156136b2576136b16131e3565b5b600082013567ffffffffffffffff8111156136d0576136cf6131e8565b5b6136dc84828501613612565b91505092915050565b6000806000606084860312156136fe576136fd6131e3565b5b600084013567ffffffffffffffff81111561371c5761371b6131e8565b5b61372886828701613612565b935050602061373986828701613384565b925050604061374a86828701613384565b9150509250925092565b60006020828403121561376a576137696131e3565b5b600061377884828501613439565b91505092915050565b600060a082019050818103600083015261379b8188613308565b90506137aa60208301876133f8565b6137b7604083018661348e565b81810360608301526137c98185613308565b905081810360808301526137dd8184613308565b90509695505050505050565b6137f281613272565b81146137fd57600080fd5b50565b60008135905061380f816137e9565b92915050565b6000806040838503121561382c5761382b6131e3565b5b600061383a85828601613439565b925050602061384b85828601613800565b9150509250929050565b600067ffffffffffffffff8211156138705761386f613515565b5b613879826132f7565b9050602081019050919050565b600061389961389484613855565b613575565b9050828152602081018484840111156138b5576138b4613510565b5b6138c08482856135c1565b509392505050565b600082601f8301126138dd576138dc61350b565b5b81356138ed848260208601613886565b91505092915050565b600080600080608085870312156139105761390f6131e3565b5b600061391e87828801613439565b945050602061392f87828801613439565b935050604061394087828801613384565b925050606085013567ffffffffffffffff811115613961576139606131e8565b5b61396d878288016138c8565b91505092959194509250565b600080604083850312156139905761398f6131e3565b5b600061399e85828601613439565b92505060206139af85828601613439565b9150509250929050565b7f4e487b7100000000000000000000000000000000000000000000000000000000600052602260045260246000fd5b60006002820490506001821680613a0057607f821691505b602082108103613a1357613a126139b9565b5b50919050565b7f4552433732313a20617070726f76616c20746f2063757272656e74206f776e6560008201527f7200000000000000000000000000000000000000000000000000000000000000602082015250565b6000613a756021836132b3565b9150613a8082613a19565b604082019050919050565b60006020820190508181036000830152613aa481613a68565b9050919050565b7f4552433732313a20617070726f76652063616c6c6572206973206e6f7420746f60008201527f6b656e206f776e6572206f7220617070726f76656420666f7220616c6c000000602082015250565b6000613b07603d836132b3565b9150613b1282613aab565b604082019050919050565b60006020820190508181036000830152613b3681613afa565b9050919050565b7f4552433732313a2063616c6c6572206973206e6f7420746f6b656e206f776e6560008201527f72206f7220617070726f76656400000000000000000000000000000000000000602082015250565b6000613b99602d836132b3565b9150613ba482613b3d565b604082019050919050565b60006020820190508181036000830152613bc881613b8c565b9050919050565b7f4974656d20646f6573206e6f7420657869737400000000000000000000000000600082015250565b6000613c056013836132b3565b9150613c1082613bcf565b602082019050919050565b60006020820190508181036000830152613c3481613bf8565b9050919050565b7f455243373231456e756d657261626c653a206f776e657220696e646578206f7560008201527f74206f6620626f756e6473000000000000000000000000000000000000000000602082015250565b6000613c97602b836132b3565b9150613ca282613c3b565b604082019050919050565b60006020820190508181036000830152613cc681613c8a565b9050919050565b7f455243373231456e756d657261626c653a20676c6f62616c20696e646578206f60008201527f7574206f6620626f756e64730000000000000000000000000000000000000000602082015250565b6000613d29602c836132b3565b9150613d3482613ccd565b604082019050919050565b60006020820190508181036000830152613d5881613d1c565b9050919050565b7f4e487b7100000000000000000000000000000000000000000000000000000000600052603260045260246000fd5b7f4552433732313a20696e76616c696420746f6b656e2049440000000000000000600082015250565b6000613dc46018836132b3565b9150613dcf82613d8e565b602082019050919050565b60006020820190508181036000830152613df381613db7565b9050919050565b7f5468697320636f6c6c656374696f6e20697320736f6c64206f75742100000000600082015250565b6000613e30601c836132b3565b9150613e3b82613dfa565b602082019050919050565b60006020820190508181036000830152613e5f81613e23565b9050919050565b7f4974656d207769746820746869732073657269616c206e756d62657220616c7260008201527f6561647920657869737473000000000000000000000000000000000000000000602082015250565b6000613ec2602b836132b3565b9150613ecd82613e66565b604082019050919050565b60006020820190508181036000830152613ef181613eb5565b9050919050565b7f4e6f7420656e6f75676820657468657220746f207075726368617365204e465460008201527f2e00000000000000000000000000000000000000000000000000000000000000602082015250565b6000613f546021836132b3565b9150613f5f82613ef8565b604082019050919050565b60006020820190508181036000830152613f8381613f47565b9050919050565b7f4552433732313a2061646472657373207a65726f206973206e6f74206120766160008201527f6c6964206f776e65720000000000000000000000000000000000000000000000602082015250565b6000613fe66029836132b3565b9150613ff182613f8a565b604082019050919050565b6000602082019050818103600083015261401581613fd9565b9050919050565b7f4f6e6c79206d616e7566616374757265722063616e206365727469667920757360008201527f6572730000000000000000000000000000000000000000000000000000000000602082015250565b60006140786023836132b3565b91506140838261401c565b604082019050919050565b600060208201905081810360008301526140a78161406b565b9050919050565b600081905092915050565b60006140c4826132a8565b6140ce81856140ae565b93506140de8185602086016132c4565b80840191505092915050565b60006140f682856140b9565b915061410282846140b9565b91508190509392505050565b7f4f776e61626c653a206e6577206f776e657220697320746865207a65726f206160008201527f6464726573730000000000000000000000000000000000000000000000000000602082015250565b600061416a6026836132b3565b91506141758261410e565b604082019050919050565b600060208201905081810360008301526141998161415d565b9050919050565b7f4552433732313a207472616e736665722066726f6d20696e636f72726563742060008201527f6f776e6572000000000000000000000000000000000000000000000000000000602082015250565b60006141fc6025836132b3565b9150614207826141a0565b604082019050919050565b6000602082019050818103600083015261422b816141ef565b9050919050565b7f4552433732313a207472616e7366657220746f20746865207a65726f2061646460008201527f7265737300000000000000000000000000000000000000000000000000000000602082015250565b600061428e6024836132b3565b915061429982614232565b604082019050919050565b600060208201905081810360008301526142bd81614281565b9050919050565b7f4f776e61626c653a2063616c6c6572206973206e6f7420746865206f776e6572600082015250565b60006142fa6020836132b3565b9150614305826142c4565b602082019050919050565b60006020820190508181036000830152614329816142ed565b9050919050565b600061433c82846140b9565b915081905092915050565b7f4e487b7100000000000000000000000000000000000000000000000000000000600052601160045260246000fd5b600061438182613363565b915061438c83613363565b9250827fffffffffffffffffffffffffffffffffffffffffffffffffffffffffffffffff038211156143c1576143c0614347565b5b828201905092915050565b7f4552433732313a20617070726f766520746f2063616c6c657200000000000000600082015250565b60006144026019836132b3565b915061440d826143cc565b602082019050919050565b60006020820190508181036000830152614431816143f5565b9050919050565b7f4552433732313a207472616e7366657220746f206e6f6e20455243373231526560008201527f63656976657220696d706c656d656e7465720000000000000000000000000000602082015250565b60006144946032836132b3565b915061449f82614438565b604082019050919050565b600060208201905081810360008301526144c381614487565b9050919050565b7f4e487b7100000000000000000000000000000000000000000000000000000000600052601260045260246000fd5b7f455243373231456e756d657261626c653a20636f6e736563757469766520747260008201527f616e7366657273206e6f7420737570706f727465640000000000000000000000602082015250565b60006145556035836132b3565b9150614560826144f9565b604082019050919050565b6000602082019050818103600083015261458481614548565b9050919050565b600061459682613363565b91507fffffffffffffffffffffffffffffffffffffffffffffffffffffffffffffffff82036145c8576145c7614347565b5b600182019050919050565b60006145de82613363565b91506145e983613363565b9250826145f9576145f86144ca565b5b828204905092915050565b600061460f82613363565b915061461a83613363565b92508282101561462d5761462c614347565b5b828203905092915050565b600061464382613363565b915061464e83613363565b92508261465e5761465d6144ca565b5b828206905092915050565b600081519050919050565b600082825260208201905092915050565b600061469082614669565b61469a8185614674565b93506146aa8185602086016132c4565b6146b3816132f7565b840191505092915050565b60006080820190506146d360008301876133f8565b6146e060208301866133f8565b6146ed604083018561348e565b81810360608301526146ff8184614685565b905095945050505050565b60008151905061471981613219565b92915050565b600060208284031215614735576147346131e3565b5b60006147438482850161470a565b91505092915050565b7f4e487b7100000000000000000000000000000000000000000000000000000000600052603160045260246000fd5b7f4552433732313a206d696e7420746f20746865207a65726f2061646472657373600082015250565b60006147b16020836132b3565b91506147bc8261477b565b602082019050919050565b600060208201905081810360008301526147e0816147a4565b9050919050565b7f4552433732313a20746f6b656e20616c7265616479206d696e74656400000000600082015250565b600061481d601c836132b3565b9150614828826147e7565b602082019050919050565b6000602082019050818103600083015261484c81614810565b905091905056fea2646970667358221220b9129f4f3b7074d43359cbfedfaf192f6e729b394463315a6bd762ef2143011f64736f6c634300080d0033",
  "immutableReferences": {},
  "source": "// SPDX-License-Identifier: MIT\r\npragma solidity ^0.8.13;\r\n\r\nimport \"@openzeppelin/contracts/token/ERC721/extensions/ERC721Enumerable.sol\";\r\nimport \"@openzeppelin/contracts/access/Ownable.sol\";\r\nimport \"@openzeppelin/contracts/utils/Counters.sol\";\r\nimport \"@openzeppelin/contracts/utils/math/SafeMath.sol\";\r\nimport \"./StringUtils.sol\";\r\n\r\ncontract LuxuryItemTracking is ERC721Enumerable, Ownable {\r\n    using SafeMath for uint256;\r\n    using Counters for Counters.Counter;\r\n\r\n    Counters.Counter private _tokenIds;\r\n    uint public constant MAX_SUPPLY = 10;\r\n    uint public constant PRICE = 0.00001 ether;\r\n    uint public constant MAX_PER_MINT = 5;\r\n\r\n    struct LuxuryItem {\r\n        string name;\r\n        uint256 serialNumber;\r\n        address manufacturer;\r\n        uint256 productionDate;\r\n        string logisticsInfo;\r\n        string salesRecord;\r\n        mapping(address => bool) certifiedUsers;\r\n    }\r\n\r\n    mapping(uint256 => LuxuryItem) private luxuryItems;\r\n    mapping(string => bool) private existingSerialNumbers;\r\n\r\n    string public baseTokenURI;\r\n\r\n    constructor(\r\n        string memory baseURI,\r\n        string memory name,\r\n        string memory symbol\r\n    ) ERC721(name, symbol) {\r\n        setBaseURI(baseURI);\r\n        emit DebugMessage(\"Contract deployed successfully!\");\r\n    }\r\n\r\n    event DebugMessage(string message);\r\n\r\n    function _baseURI() internal view virtual override returns (string memory) {\r\n        return baseTokenURI;\r\n    }\r\n\r\n    function setBaseURI(string memory _baseTokenURI) public onlyOwner {\r\n        baseTokenURI = _baseTokenURI;\r\n    }\r\n\r\n    function mintNFTs(\r\n        string memory _name,\r\n        uint256 _serialNumber,\r\n        uint256 _productionDate\r\n    ) public payable {\r\n        uint totalMinted = _tokenIds.current();\r\n\r\n        require(\r\n            totalMinted.add(1) <= MAX_SUPPLY,\r\n            \"This collection is sold out!\"\r\n        );\r\n        require(\r\n            _tokenIds.current() < MAX_SUPPLY,\r\n            \"This collection is sold out!\"\r\n        );\r\n        require(\r\n            _tokenIds.current() < MAX_SUPPLY,\r\n            \"This collection is sold out!\"\r\n        );\r\n        require(\r\n            _tokenIds.current() < MAX_SUPPLY,\r\n            \"This collection is sold out!\"\r\n        );\r\n        require(\r\n            _tokenIds.current() < MAX_SUPPLY,\r\n            \"This collection is sold out!\"\r\n        );\r\n        require(\r\n            _tokenIds.current() < MAX_SUPPLY,\r\n            \"This collection is sold out!\"\r\n        );\r\n        require(\r\n            !_exists(_serialNumber),\r\n            \"Item with this serial number already exists\"\r\n        );\r\n        require(\r\n            _tokenIds.current() < MAX_SUPPLY,\r\n            \"This collection is sold out!\"\r\n        );\r\n        require(\r\n            _tokenIds.current() < MAX_SUPPLY,\r\n            \"This collection is sold out!\"\r\n        );\r\n        require(\r\n            _tokenIds.current() < MAX_SUPPLY,\r\n            \"This collection is sold out!\"\r\n        );\r\n        require(\r\n            _tokenIds.current() < MAX_SUPPLY,\r\n            \"This collection is sold out!\"\r\n        );\r\n        require(\r\n            _tokenIds.current() < MAX_SUPPLY,\r\n            \"This collection is sold out!\"\r\n        );\r\n        require(\r\n            _tokenIds.current() < MAX_SUPPLY,\r\n            \"This collection is sold out!\"\r\n        );\r\n        require(msg.value >= PRICE, \"Not enough ether to purchase NFT.\");\r\n\r\n        _mintSingleNFT(_name, _serialNumber, _productionDate);\r\n    }\r\n\r\n    function _mintSingleNFT(\r\n        string memory _name,\r\n        uint256 _serialNumber,\r\n        uint256 _productionDate\r\n    ) private {\r\n        _tokenIds.increment();\r\n        LuxuryItem storage newItem = luxuryItems[_tokenIds.current()];\r\n        newItem.name = _name;\r\n        newItem.serialNumber = _serialNumber;\r\n        newItem.manufacturer = msg.sender;\r\n        newItem.productionDate = _productionDate;\r\n\r\n        existingSerialNumbers[StringUtils.uintToString(_serialNumber)] = true;\r\n\r\n        _safeMint(msg.sender, _tokenIds.current());\r\n    }\r\n\r\n    function updateLogisticsInfo(\r\n        uint256 _serialNumber,\r\n        string memory _logisticsInfo\r\n    ) public onlyOwner {\r\n        require(_exists(_serialNumber), \"Item does not exist\");\r\n        luxuryItems[_serialNumber].logisticsInfo = _logisticsInfo;\r\n    }\r\n\r\n    function updateSalesRecord(\r\n        uint256 _serialNumber,\r\n        string memory _salesRecord\r\n    ) public onlyOwner {\r\n        require(_exists(_serialNumber), \"Item does not exist\");\r\n        luxuryItems[_serialNumber].salesRecord = _salesRecord;\r\n    }\r\n\r\n    function certifyUser(uint256 _serialNumber) public {\r\n        require(_exists(_serialNumber), \"Item does not exist\");\r\n        require(\r\n            luxuryItems[_serialNumber].manufacturer == msg.sender,\r\n            \"Only manufacturer can certify users\"\r\n        );\r\n        luxuryItems[_serialNumber].certifiedUsers[msg.sender] = true;\r\n    }\r\n\r\n    function getItemDetails(\r\n        uint256 _serialNumber\r\n    )\r\n        public\r\n        view\r\n        returns (string memory, address, uint256, string memory, string memory)\r\n    {\r\n        require(_exists(_serialNumber), \"Item does not exist\");\r\n\r\n        LuxuryItem storage item = luxuryItems[_serialNumber];\r\n        return (\r\n            item.name,\r\n            item.manufacturer,\r\n            item.productionDate,\r\n            item.logisticsInfo,\r\n            item.salesRecord\r\n        );\r\n    }\r\n\r\n    function isCertifiedUser(uint256 _serialNumber) public view returns (bool) {\r\n        require(_exists(_serialNumber), \"Item does not exist\");\r\n        return luxuryItems[_serialNumber].certifiedUsers[msg.sender];\r\n    }\r\n\r\n    function _exists(\r\n        uint256 _serialNumber\r\n    ) internal view override returns (bool) {\r\n        return existingSerialNumbers[StringUtils.uintToString(_serialNumber)];\r\n    }\r\n}\r\n",
  "sourcePath": "E:\\\\ddn\\contracts\\LuxuryItemTracking.sol",
  "compiler": {
    "name": "solc",
    "version": "0.8.13+commit.abaa5c0e.Emscripten.clang"
  },
  "schemaVersion": "3.4.16",
  "updatedAt": "2023-12-14T08:56:03.446Z",
  "networkType": "ethereum",
  "devdoc": {
    "kind": "dev",
    "methods": {
      "approve(address,uint256)": {
        "details": "See {IERC721-approve}."
      },
      "balanceOf(address)": {
        "details": "See {IERC721-balanceOf}."
      },
      "getApproved(uint256)": {
        "details": "See {IERC721-getApproved}."
      },
      "isApprovedForAll(address,address)": {
        "details": "See {IERC721-isApprovedForAll}."
      },
      "name()": {
        "details": "See {IERC721Metadata-name}."
      },
      "owner()": {
        "details": "Returns the address of the current owner."
      },
      "ownerOf(uint256)": {
        "details": "See {IERC721-ownerOf}."
      },
      "renounceOwnership()": {
        "details": "Leaves the contract without owner. It will not be possible to call `onlyOwner` functions. Can only be called by the current owner. NOTE: Renouncing ownership will leave the contract without an owner, thereby disabling any functionality that is only available to the owner."
      },
      "safeTransferFrom(address,address,uint256)": {
        "details": "See {IERC721-safeTransferFrom}."
      },
      "safeTransferFrom(address,address,uint256,bytes)": {
        "details": "See {IERC721-safeTransferFrom}."
      },
      "setApprovalForAll(address,bool)": {
        "details": "See {IERC721-setApprovalForAll}."
      },
      "supportsInterface(bytes4)": {
        "details": "See {IERC165-supportsInterface}."
      },
      "symbol()": {
        "details": "See {IERC721Metadata-symbol}."
      },
      "tokenByIndex(uint256)": {
        "details": "See {IERC721Enumerable-tokenByIndex}."
      },
      "tokenOfOwnerByIndex(address,uint256)": {
        "details": "See {IERC721Enumerable-tokenOfOwnerByIndex}."
      },
      "tokenURI(uint256)": {
        "details": "See {IERC721Metadata-tokenURI}."
      },
      "totalSupply()": {
        "details": "See {IERC721Enumerable-totalSupply}."
      },
      "transferFrom(address,address,uint256)": {
        "details": "See {IERC721-transferFrom}."
      },
      "transferOwnership(address)": {
        "details": "Transfers ownership of the contract to a new account (`newOwner`). Can only be called by the current owner."
      }
    },
    "version": 1
  },
  "userdoc": {
    "kind": "user",
    "methods": {},
    "version": 1
  }
}