{
  "contractName": "Migrations",
  "abi": [
    {
      "inputs": [],
      "stateMutability": "nonpayable",
      "type": "constructor"
    },
    {
      "inputs": [],
      "name": "last_completed_migration",
      "outputs": [
        {
          "internalType": "uint256",
          "name": "",
          "type": "uint256"
        }
      ],
      "stateMutability": "view",
      "type": "function",
      "constant": true
    },
    {
      "inputs": [],
      "name": "owner",
      "outputs": [
        {
          "internalType": "address",
          "name": "",
          "type": "address"
        }
      ],
      "stateMutability": "view",
      "type": "function",
      "constant": true
    },
    {
      "inputs": [
        {
          "internalType": "uint256",
          "name": "completed",
          "type": "uint256"
        }
      ],
      "name": "setCompleted",
      "outputs": [],
      "stateMutability": "nonpayable",
      "type": "function"
    },
    {
      "inputs": [
        {
          "internalType": "address",
          "name": "new_address",
          "type": "address"
        }
      ],
      "name": "upgrade",
      "outputs": [],
      "stateMutability": "nonpayable",
      "type": "function"
    }
  ],
  "bytecode": "0x6080604052336000806101000a81548173ffffffffffffffffffffffffffffffffffffffff021916908373ffffffffffffffffffffffffffffffffffffffff16021790555034801561005057600080fd5b50336000806101000a81548173ffffffffffffffffffffffffffffffffffffffff021916908373ffffffffffffffffffffffffffffffffffffffff16021790555061045d806100a06000396000f3fe608060405234801561001057600080fd5b506004361061004c5760003560e01c80630900f01014610051578063445df0ac1461006d5780638da5cb5b1461008b578063fdacd576146100a9575b600080fd5b61006b600480360381019061006691906102c6565b6100c5565b005b610075610193565b604051610082919061030c565b60405180910390f35b610093610199565b6040516100a09190610336565b60405180910390f35b6100c360048036038101906100be919061037d565b6101bd565b005b60008054906101000a900473ffffffffffffffffffffffffffffffffffffffff1673ffffffffffffffffffffffffffffffffffffffff163373ffffffffffffffffffffffffffffffffffffffff161461011d57600080fd5b60008190508073ffffffffffffffffffffffffffffffffffffffff1663fdacd5766001546040518263ffffffff1660e01b815260040161015d919061030c565b600060405180830381600087803b15801561017757600080fd5b505af115801561018b573d6000803e3d6000fd5b505050505050565b60015481565b60008054906101000a900473ffffffffffffffffffffffffffffffffffffffff1681565b60008054906101000a900473ffffffffffffffffffffffffffffffffffffffff1673ffffffffffffffffffffffffffffffffffffffff163373ffffffffffffffffffffffffffffffffffffffff161461021557600080fd5b6064811115610259576040517f08c379a000000000000000000000000000000000000000000000000000000000815260040161025090610407565b60405180910390fd5b8060018190555050565b600080fd5b600073ffffffffffffffffffffffffffffffffffffffff82169050919050565b600061029382610268565b9050919050565b6102a381610288565b81146102ae57600080fd5b50565b6000813590506102c08161029a565b92915050565b6000602082840312156102dc576102db610263565b5b60006102ea848285016102b1565b91505092915050565b6000819050919050565b610306816102f3565b82525050565b600060208201905061032160008301846102fd565b92915050565b61033081610288565b82525050565b600060208201905061034b6000830184610327565b92915050565b61035a816102f3565b811461036557600080fd5b50565b60008135905061037781610351565b92915050565b60006020828403121561039357610392610263565b5b60006103a184828501610368565b91505092915050565b600082825260208201905092915050565b7f496e76616c69642076616c756520666f7220636f6d706c657465640000000000600082015250565b60006103f1601b836103aa565b91506103fc826103bb565b602082019050919050565b60006020820190508181036000830152610420816103e4565b905091905056fea2646970667358221220a04a2b6c9ce29367b48d0132718c09e4dac60c5d907d2542c81003874b95936764736f6c634300080d0033",
  "immutableReferences": {},
  "source": "// SPDX-License-Identifier: MIT\r\npragma solidity >=0.4.21 <0.9.0;\r\n\r\ncontract Migrations {\r\n    address public owner = msg.sender;\r\n    uint public last_completed_migration;\r\n\r\n    modifier restricted() {\r\n        require(msg.sender == owner);\r\n        _;\r\n    }\r\n\r\n    //  \"constructor\" \r\n    constructor()  {\r\n        owner = msg.sender;\r\n        \r\n    }\r\n\r\n    function setCompleted(uint completed) public restricted {\r\n        require(completed <= 100, \"Invalid value for completed\"); // \r\n        last_completed_migration = completed;\r\n    }\r\n\r\n    function upgrade(address new_address) public restricted {\r\n        Migrations upgraded = Migrations(new_address);\r\n        upgraded.setCompleted(last_completed_migration);\r\n    }\r\n}",
  "sourcePath": "E:\\\\ddn\\contracts\\Migrations.sol",
  "compiler": {
    "name": "solc",
    "version": "0.8.13+commit.abaa5c0e.Emscripten.clang"
  },
  "schemaVersion": "3.4.16",
  "updatedAt": "2023-11-24T07:21:20.518Z",
  "networkType": "ethereum",
  "devdoc": {
    "kind": "dev",
    "methods": {},
    "version": 1
  },
  "userdoc": {
    "kind": "user",
    "methods": {},
    "version": 1
  }
}